:020000040800F2
:10000000400500209D0100080D1000089104000823
:100010000910000891020008D1110008000000003A
:100020000000000000000000000000005110000867
:1000300095020008000000000F100008B50100083C
:10004000B7010008B7010008B7010008B7010008B0
:10005000B7010008B7010008B7010008B7010008A0
:10006000B7010008B7010008B7010008B701000890
:10007000B7010008B7010008B7010008B701000880
:10008000B7010008B7010008B7010008B701000870
:10009000B7010008B7010008B7010008B701000860
:1000A000B7010008B7010008B7010008B701000850
:1000B000B7010008B7010008B7010008B701000840
:1000C000B7010008B7010008B7010008B701000830
:1000D000B7010008B7010008B7010008B701000820
:1000E000B7010008B7010008B7010008B701000810
:1000F000B7010008B7010008B7010008B701000800
:10010000B7010008B7010008B7010008B7010008EF
:10011000B7010008B7010008B7010008B7010008DF
:10012000B7010008B7010008B7010008B7010008CF
:10013000B7010008B7010008B7010008B7010008BF
:10014000B7010008B7010008B7010008B7010008AF
:10015000B7010008B7010008B7010008B70100089F
:10016000B7010008B7010008B7010008B70100088F
:10017000B7010008B7010008B7010008B70100087F
:10018000B7010008B7010008DFF80CD000F018F83C
:1001900000480047D5150008400500200648804764
:1001A00006480047FEE7FEE7FEE7FEE7FEE7FEE75C
:1001B000FEE7FEE7FEE7FEE7691100088901000897
:1001C000064C074D06E0E06840F0010394E80700A4
:1001D00098471034AC42F6D3FFF7DAFF8C9C040842
:1001E000AC9C040870B58C1810F8015B15F007037F
:1001F00001D110F8013B2A1106D110F8012B03E0C0
:1002000010F8016B01F8016B5B1EF9D12B0705D4C7
:100210000023521E0DD401F8013BFAE710F8013B10
:10022000CB1A921C03E013F8015B01F8015B521E2C
:10023000F9D5A142D8D3002070BD00001CB5012023
:100240008DF8040000208DF8060002208DF80500CE
:1002500001208DF807000121082000F0D9FE0420BC
:1002600000906946014800F0A4F81CBD000C024053
:1002700010B5044624B10421044800F007F903E056
:100280000421024800F000F910BD0000000C0240FB
:1002900000BFFEE77047000051B18200A2F1C042EA
:1002A000126842F001038200A2F1C042136009E02B
:1002B0008200A2F1C0421268034B1A408300A3F1EE
:1002C000C0431A6070470000FEFF0F00D0E9011222
:1002D0001143C268114302691143426911438269A3
:1002E0001143C2691143026A1143426A1143826A8F
:1002F0001143C26A1143026B114302689200A2F1DA
:10030000C0421160816808290BD101688900A1F100
:10031000C041096841F0400201688900A1F1C04173
:100320000A60416B0968426B526841EA0211426BF4
:10033000926841EA0221426B928941EA0241426B92
:10034000128A41EA0251426B127D41EA0261426B1C
:10035000926911430268521C9200A2F1C0421160DE
:10036000C16AB1F5804F1BD1816B0968826B5268FD
:1003700041EA0211826B926841EA0221826B128A81
:1003800041EA0251826B127D41EA0261826B9269FD
:10039000114302689200A2F1C042C2F8041107E0C2
:1003A0006FF0704201688900A1F1C041C1F80421D9
:1003B0007047F0B50A4600210023002400BF3DE04D
:1003C000012505FA01F3156805EA03049C4234D1BE
:1003D00005684F000326BE40B543056015794E0001
:1003E000B5400668354305601579012D02D01579B1
:1003F000022D16D185684F000326BE40B5438560A7
:1004000055794E00B54086683543856045680126BC
:100410008E40B5434560456896798E40B6B2354307
:100420004560C5684F000326BE40B543C560D57919
:100430004E00B540C6683543C560491C1029BFD37E
:10044000F0BDF0B5002300244D07ED0E02FA05F3D0
:10045000CE1000F1200555F826504E07F70E0F2656
:10046000BE40B543CF1000F1200646F82750CE100D
:1004700000F1200555F8265045EA0304CE1000F19E
:10048000200545F82640F0BD418370470183704741
:1004900000BFFEE72DE9F0410120FFF7E9FE002053
:1004A00000F016FBFE4908600846006898B9D320A2
:1004B00000F0A0FD00F088FD054600F085FD064631
:1004C00000F082FD024600F07FFD044644EA02206F
:1004D000F349086000BFF248006872287ED12C20E2
:1004E000F049087002211A2000F0FCFA88211B2034
:1004F00000F0F8FA0021232000F0F4FA5F21242014
:1005000000F0F0FA1521252000F0ECFA03212D204F
:1005100000F0E8FA0421182000F0E4FA0121192083
:1005200000F0E0FA0021012000F0DCFA052117209C
:1005300000F0D8FA1321362000F0D4FA0021402030
:1005400000F0D0FA4521412000F0CCFA45214220AC
:1005500000F0C8FA0421432000F0C4FA002144202E
:1005600000F0C0FA0821452000F0BCFA2321462003
:1005700000F0B8FA2321472000F0B4FA7721482090
:1005800000F0B0FA4021492000F0ACFA04214A20E2
:1005900000F0A8FA00214B2000F0A4FA88214C209A
:1005A00000F0A0FA88214D2000F09CFA88214E200E
:1005B00000F098FAD0211F2000F094FA3F21282063
:1005C00000F090FA0021162000F08CFA0023F024AD
:1005D00000254FF4C876190A022000E031E000F04F
:1005E00081FA1946032000F07DFA210A042000F068
:1005F00079FA2146052000F075FA290A062000F054
:1006000071FA2946072000F06DFA310A082000F03F
:1006100069FA3146092000F065FA22204FF0C04106
:10062000088000200AE0002104E04FF478429E4F49
:100630003A80491CB1F5C87FF7DB401CF028F2DB9B
:1006400043E29748006849F2253188420AD094482D
:100650000068C91C884205D0914800684DF2D3312A
:1006600088427DD122208F4908700024012501266F
:10067000002641F28F01EC2000F034FA41F23421DF
:10068000EF2000F02FFA002040EA052040EA842104
:10069000012000F027FA4FF4E061022000F022FA76
:1006A00041F21801032000F01DFA0021042000F09F
:1006B00019FA40F20221082000F014FA0021092062
:1006C00000F010FA00210A2000F00CFA01210C20A1
:1006D00000F008FA00210D2000F004FA00210F209C
:1006E00000F000FA0021102000F0FCF90721112091
:1006F00000F0F8F90021122000F0F4F90021132095
:1007000000F0F0F90121072000F0ECF9322000F0B0
:100710008FFD41F29041102000F0E4F940F22721D2
:10072000112000F0DFF9322000F082FD8A21122032
:1007300000F0D8F9322000F07BFD4FF4D0511320A7
:1007400000F0D0F90621292000F0CCF90D212B2052
:1007500000F0C8F9322000F06BFD0021202000E0FD
:1007600088E000F0BFF90021212000F0BBF9322021
:1007700000F05EFD0021302000F0B4F940F2046189
:10078000312000F0AFF940F20531322000F0AAF933
:100790000021352000F0A6F940F60941362000F08E
:1007A000A1F94FF40171372000F09CF940F20131BA
:1007B000382000F097F940F20771392000F092F9E3
:1007C00000213C2000F08EF940F60A213D2000F087
:1007D00089F9322000F02CFD0021502000F082F930
:1007E000EF21512000F07EF90021522000F07AF92B
:1007F00040F23F11532000F075F94FF41C5040EACD
:10080000C631602000F06EF90121612000F06AF924
:1008100000216A2000F066F90021802000F062F9D2
:100820000021812000F05EF90021822000F05AF9B9
:100830000021832000F056F90021842000F052F9B5
:100840000021852000F04EF91021902000F04AF997
:100850004FF4C061922000F045F940F233110720B7
:1008600000F040F9F02300224FF4A071104600F090
:1008700037FB2AE10A48006849F241318842F8D141
:100880002C2008490870CF2000F0B4FB002000F0B5
:10089000A5FBC12000F0A2FB302000F09FFB05E08B
:1008A0000C0000200800002000000460ED2000F093
:1008B000A1FB642000F092FB032000F08FFB1220CC
:1008C00000F08CFB812000F089FBE82000F092FB17
:1008D000852000F083FB102000F080FB7A2000F0E0
:1008E0007DFBCB2000F086FB392000F077FB2C202D
:1008F00000F074FB002000F071FB342000F06EFB70
:10090000022000F06BFBF72000F074FB202000F0C9
:1009100065FBEA2000F06EFB002000F05FFB00208A
:1009200000F05CFBC02000F065FB1B2000F056FBD4
:10093000C12000F05FFB012000F050FBC52000F05B
:1009400059FB302000F04AFB302000F047FBC72065
:1009500000F050FBB72000F041FB362000F04AFBCE
:10096000A82000F03BFB3A2000F044FB552000F0AB
:1009700035FBB12000F03EFB002000F02FFB1A20D9
:1009800000F02CFBB62000F035FB0A2000F026FB1F
:10099000A22000F023FBF22000F02CFB002000F04E
:1009A0001DFB262000F026FB012000F017FBE020B5
:1009B00000F020FB0F2000F011FB2A2000F00EFBBE
:1009C000282000F00BFB082000F008FB0E2000F0B0
:1009D00005FB082000F002FB542000F0FFFAA920DC
:1009E00000F0FCFA432000F0F9FA0A2000F0F6FAD1
:1009F0000F2000F0F3FA002000F0F0FA002000F0E1
:100A0000EDFA002000F0EAFA002000F0E7FAE12019
:100A100000F0F0FA002000F0E1FA152000F0DEFA14
:100A2000172000F0DBFA072000F0D8FA112000F0C0
:100A3000D5FA062000F0D2FA2B2000F0CFFA56208B
:100A400000F0CCFA3C2000F0C9FA052000F0C6FA0C
:100A5000102000F0C3FA0F2000F0C0FA3F2000F091
:100A6000BDFA3F2000F0BAFA0F2000F0B7FA2B20B1
:100A700000F0C0FA002000F0B1FA002000F0AEFA59
:100A8000002000F0ABFAEF2000F0A8FA2A2000F0D6
:100A9000B1FA002000F0A2FA002000F09FFA012035
:100AA00000F09CFA3F2000F099FA112000F0A2FA21
:100AB000782000F0BDFB292000F09CFAF0230022F2
:100AC0004FF4A071104600F00BFABDE8F081000071
:100AD00001464FF0C0421180014A10887047000063
:100AE000000004604FF0C0421080014A118070473E
:100AF0000000046010B504460021084600F0BCF96F
:100B0000064800784FF0C0410880002002E0044908
:100B10000C80401CB0F5963FF9DB10BD08000020AA
:100B2000000004602DE9F04F8046894615469B463B
:100B3000202D01DB7E2D00DD2025A5F12000C5B292
:100B4000002430E000262BE005EBC500800004EB1C
:100B5000440100EB81003044154911F800A0002742
:100B60001BE00AF0010048B11FFA8BF209EBC40345
:100B7000D91908EB060000F06BF90BE00998002882
:100B800008DD099B9AB209EBC403D91908EB0600EA
:100B900000F05EF94FEA6A0A7F1C082FE1DB761C41
:100BA0000C2ED1DB641C032CCCDBBDE8F08F0000E5
:100BB000F01B00082DE9F04F074688461446994679
:100BC000DDF824A0202C01DB7E2C00DD2024A4F104
:100BD0002000C4B2002523E005EB0410124911F8EF
:100BE00000B0002619E00BF0800038B11FFA89F23E
:100BF00008EB0501B81900F02BF909E0BAF1000F74
:100C000006DD1FFA8AF208EB0501B81900F020F999
:100C10004FEA4B604FEA106B761C082EE3DB6D1C2D
:100C2000102DD9DBBDE8F08FF01500082DE9F8474D
:100C300005460E4617469846DDE90AA9099C27E0B5
:100C4000207800F0800098B1607880B15346224649
:100C500031462846CDF8009000F048F8A41C103525
:100C6000A8F11000A84213DA3D46143610E012E055
:100C7000CDF800902278534631462846FFF79AFF78
:100C8000641C0835A8F10800A84201DA3D46143674
:100C900020780028D4D100BFBDE8F8872DE9F841BD
:100CA00005460F4614469846079E19E0207800F046
:100CB000800060B1607848B14346224639462846F4
:100CC000009600F05FF8A41C183509E00BE00096D0
:100CD0002278434639462846FFF724FF641C0C352A
:100CE00020780028E2D100BFBDE8F8812DE9FC4F53
:100CF0000746884691469A46DDF82CB000200090C1
:100D000099F80100A13899F80010A1395E2212FB70
:100D10000100009000252FE000242AE00098400107
:100D200000EB450020441649085C019000261DE0B8
:100D3000C6F10701012088400199084048B11FFA17
:100D40008AF208EB050107EBC403981900F080F85C
:100D50000BE0BBF1000F08DD1FFA8BF208EB050179
:100D600007EBC403981900F073F8761C082EDFDB3C
:100D7000641C022CD2DB6D1C102DCDDBBDE8FC8F7A
:100D8000403B00082DE9F84F8046894692469B4635
:100D9000002551E09AF8000005EB450101EB051133
:100DA000294A52F821100978884244D19AF8010062
:100DB00005EB450101EB051152F8211049788842F5
:100DC00039D1002634E000242FE005EB450000EB8C
:100DD00005101D4901EB8000001D06EB4601214472
:100DE000405C009000271DE0C7F10701012088400A
:100DF0000099084048B11FFA8BF209EB060108EB95
:100E0000C403D81900F024F80BE00A98002808DD84
:100E10000A9B9AB209EB060108EBC403D81900F04B
:100E200017F87F1C082FDFDB641C032CCDDB761C3E
:100E3000182EC8DB04E06D1C044800688542A9DB5D
:100E400000BFBDE8F88F00007029000804000020F2
:100E500070B505460E4614463146284600F00CF89B
:100E6000034800784FF0C04108800248048070BDFC
:100E7000080000200000046030B504460D46174805
:100E8000006849F24131884213D12A2000F0B2F8BB
:100E9000C4F30F2000F0A2F8E0B200F09FF82B207E
:100EA00000F0A8F8C5F30F2000F098F8E8B200F0C1
:100EB00095F80A48006849F22531884204D007486D
:100EC0000068C91C884207D1A1B22120FFF70AFEA1
:100ED000A9B22020FFF706FE30BD00000C00002064
:100EE000F0B504460D4616461F461D48006849F2F7
:100EF0004131884222D12A2000F07CF8C4F30F202F
:100F000000F06CF8E0B200F069F8C5F30F2000F0D3
:100F100065F8E8B200F062F82B2000F06BF8C6F339
:100F20000F2000F05BF8F0B200F058F8C7F30F2084
:100F300000F054F8F8B200F051F80FE0A1B25220DE
:100F4000FFF7D0FDA9B25320FFF7CCFDB1B250207E
:100F5000FFF7C8FDB9B25120FFF7C4FDF0BD000096
:100F60000C0000202DE9F04106460C4615461F46B0
:100F7000DDF818803B46224629463046FFF7B0FF91
:100F800021463046FFF778FF0D4800784FF0C0410A
:100F90000880304608E0214603E00A4AA2F80080B3
:100FA000491CB942F9DB401CA842F4DDF0230022C1
:100FB0004FF4A0711046FFF793FFBDE8F0810000E9
:100FC000080000200000046008B503480088009075
:100FD000BDF8000008BD00000000046001B5BDF8C8
:100FE00000000090BDF800000149088008BD000025
:100FF0000000046001B5BDF800000090BDF80000DD
:101000004FF0C041088008BD00BFFEE77047704741
:1010100029B1064A12680243044B1A6004E0034AED
:1010200012688243014B1A6070470000303802405A
:1010300029B1064A12680243044B1A6004E0034ACD
:1010400012688243014B1A60704700003838024032
:10105000704700000CB500200190009034480068F3
:1010600040F480303249086000BF3148006800F425
:10107000003000900198401C0190009818B9019828
:10108000B0F5A06FF1D12A48006800F4003010B12B
:101090000120009001E0002000900098012846D136
:1010A00023484030006840F08050214940310860BA
:1010B0002048006840F480401E4908601C48083001
:1010C00000681B49083108600846006840F4004089
:1010D00008600846006840F4A05008601648091FE0
:1010E0000860081F006840F08070091F086000BF9A
:1010F0000F48006800F000700028F9D040F2056049
:101100000E4908600A480830006820F003000849CA
:10111000083108600846006840F00200086000BF1F
:1011200003480830006800F00C000828F8D10CBD16
:10113000003802400070004008544007003C024064
:10114000042808D14FF0E021096941F004014FF073
:10115000E022116107E04FF0E021096921F004016C
:101160004FF0E0221161704710B51548006840F457
:101170007000134908601348006840F001001149ED
:10118000086000200F49083108600E4800680E49C9
:1011900008400C4908600D48091D0860081F0068D8
:1011A00020F48020091F0860002006490C310860E7
:1011B000FFF750FF4FF0006001498039086010BD13
:1011C00088ED00E000380240FFFFF6FE10300024FA
:1011D00000BFFEE702E008C8121F08C1002AFAD1CA
:1011E00070477047002001E001C1121F002AFBD1A7
:1011F0007047000010B504466FF00400FFF7A0FF31
:10120000E11704EB5171C1F3C701074A1170104691
:10121000007800EB4001C1EBC0104FF6FF7101EA0E
:10122000C0000249088010BD00000020020000201C
:1012300070B504464FF4077094FBF0F0C6B24FF45B
:10124000077094FBF0F100FB114085B205E04FF40C
:10125000077000F009F8701EC6B2002EF7D115B164
:10126000284600F001F870BD0146114A12884A4331
:101270004FF0E0235A6100229A611A46126942F047
:1012800001021A6100BF4FF0E022106900F0010274
:101290001AB100F48032002AF5D04FF0E022126932
:1012A00022F001024FF0E0231A6100229A61704798
:1012B0000200002000B59FB001210846FFF7B8FEEC
:1012C00001211820FFF7A4FE4DF2B3701D900220FB
:1012D0008DF8780003208DF8790000208DF87A00D1
:1012E0008DF87B001DA95348FFF763F84FF6807017
:1012F0001D901DA95048FFF75CF80C2211464D487F
:10130000FFF79FF80C2207214A48FFF79AF80C22B2
:1013100004214848FFF795F80C2205214548FFF7BE
:1013200090F80C220E214348FFF78BF80C220F2176
:101330004048FFF786F80C2200213E48FFF781F86D
:101340000C2201213B48FFF77CF80C220821394888
:10135000FFF777F80C2209213648FFF772F80C22C4
:101360000A213448FFF76DF80C2207213248FFF7B5
:1013700068F80C2208213048FFF763F80C22092195
:101380002D48FFF75EF80C220A212B48FFF759F889
:101390000C220B212848FFF754F80C22114626484E
:1013A000FFF74FF80C220D212348FFF74AF80C22D3
:1013B0000E212148FFF745F80C220F211E48FFF7A8
:1013C00040F80F200790002008903C200990002052
:1013D0000A900B900C900D900F200090002001902F
:1013E0000F200290002003900490059006900E902C
:1013F0000F901090102011900020129014901390D4
:10140000159016904FF480501790002018904FF4CC
:101410008040199000201A9007A81B90CDF870D03A
:101420000EA8FEF753FF01210020FEF735FF1FB085
:1014300000BD0000000C0240001002403EB5044612
:10144000FEF7FCFEFFF736FFFFF724F80120FEF75A
:101450000FFF4FF6FF70FFF74DFB44F296501E232F
:1014600040F23F12002100900846FFF77BFD44F256
:1014700096500090601E2F4951F820204FF6FF73C0
:1014800002210420FFF70AFC4FF0FF3044F296518E
:1014900029A24FF4A073CDE900210290002220215F
:1014A0000420FFF7C3FB4FF0FF310022601E254BE5
:1014B00053F820004FF4A073CDE9012100903421AE
:1014C0002420FFF7B3FB4FF0FF3044F296511EA2E9
:1014D0004FF4A073CDE90021029000228421042062
:1014E000FFF7A4FB4FF0FF30FF211AA24FF4A073C7
:1014F000CDE900210290002298212420FFF796FBDD
:1015000044F29650F02340F23F12D2210090002086
:10151000FFF728FD44F296504FF6FF7110A24FF4EA
:10152000A073CDE9002102900022D5211A20FFF7F7
:101530007DFB3EBD10000020CAB5D1E9C3E8CAF664
:10154000A3BA0000A8000020CAB5D1E9CFD6CFF3D6
:10155000A3BA0000C4E3B2C2B2C2BFB4000000002C
:10156000B6ABB1B1B4F3D1A7CEEFC1AACDF8B9A44F
:10157000B3CCD7A8D2B5C9FAB2FACAB5CFB02D321A
:10158000303139001CB501211220FFF741FD0F2039
:10159000009001208DF8040000208DF806008DF8E1
:1015A00005008DF8070069460848FEF702FF0F2185
:1015B0000648FEF76BFF0720009069460448FEF7D7
:1015C000F8FE07210248FEF761FF1CBD0010024033
:1015D0000004024010B5FFF7D5FFA820FFF70AFE70
:1015E0000120FFF72BFF40F6B830FFF721FE10BDBA
:1015F00000000000000000000000000000000000EB
:101600000000183C3C3C1818180018180000000096
:101610000066666624000000000000000000000074
:101620000000006C6CFE6C6C6CFE6C6C00000000CA
:1016300018187CC6C2C07C0686C67C18180000003C
:1016400000000000C2C60C183060C6860000000012
:101650000000386C6C3876DCCCCCCC760000000016
:10166000003030306000000000000000000000008A
:1016700000000C18303030303030180C0000000002
:10168000000030180C0C0C0C0C0C18300000000082
:101690000000000000663CFF3C6600000000000007
:1016A000000000000018187E18180000000000005C
:1016B00000000000000000000018181830000000B2
:1016C00000000000000000FE00000000000000001C
:1016D00000000000000000000000181800000000DA
:1016E0000000000002060C183060C08000000000FE
:1016F00000007CC6C6CED6D6E6C6C67C000000007A
:1017000000001838781818181818187E0000000003
:1017100000007CC6060C183060C0C6FE0000000049
:1017200000007CC606063C060606C67C00000000DB
:1017300000000C1C3C6CCCFE0C0C0C1E00000000CD
:101740000000FEC0C0C0FC0E0606C67C0000000003
:1017500000003860C0C0FCC6C6C6C67C00000000E1
:101760000000FEC606060C183030303000000000C5
:1017700000007CC6C6C67CC6C6C6C67C000000008B
:1017800000007CC6C6C67E0606060C780000000077
:1017900000000000181800000018180000000000E9
:1017A00000000000181800000018183000000000A9
:1017B000000000060C18306030180C060000000015
:1017C000000000000000FE0000FE0000000000001D
:1017D0000000006030180C060C183060000000009B
:1017E00000007CC6C60C181818001818000000006D
:1017F0000000007CC6C6DEDEDEDCC07C000000002F
:10180000000010386CC6C6FEC6C6C6C60000000082
:101810000000FC6666667C66666666FC000000008A
:1018200000003C66C2C0C0C0C0C2663C00000000F0
:101830000000F86C6666666666666CF8000000007C
:101840000000FE6662687868606266FE0000000064
:101850000000FE6662687868606060F0000000006A
:1018600000003C66C2C0C0DEC6C6663A000000008A
:101870000000C6C6C6C6FEC6C6C6C6C60000000074
:1018800000003C18181818181818183C0000000020
:1018900000001E0C0C0C0C0CCCCCCC780000000012
:1018A0000000E6666C6C78786C6666E60000000006
:1018B0000000F06060606060606266FE0000000032
:1018C0000000C6EEFEFED6C6C6C6C6C600000000B4
:1018D0000000C6E6F6FEDECEC6C6C6C600000000A4
:1018E0000000386CC6C6C6C6C6C66C38000000000C
:1018F0000000FC6666667C60606060F000000000CE
:1019000000007CC6C6C6C6C6C6D6DE7C0C0E00006D
:101910000000FC6666667C6C666666E60000000099
:1019200000007CC6C660380C06C6C67C00000000FD
:1019300000007E7E5A1818181818183C0000000085
:101940000000C6C6C6C6C6C6C6C6C67C0000000025
:101950000000C6C6C6C6C6C6C66C38100000000069
:101960000000C6C6C6C6C6D6D6FE6C6C0000000017
:101970000000C6C66C6C38386C6CC6C6000000002F
:101980000000666666663C181818183C00000000E7
:101990000000FEC6860C183060C2C6FE00000000C3
:1019A00000003C30303030303030303C000000003F
:1019B00000000080C0E070381C0E0602000000002D
:1019C00000003C0C0C0C0C0C0C0C0C3C000000003F
:1019D00010386CC60000000000000000000000008D
:1019E00000000000000000000000000000FF0000F8
:1019F000303018000000000000000000000000006F
:101A00000000000000780C7CCCCCCC7600000000FC
:101A10000000E06060786C66666666DC00000000CE
:101A200000000000007CC6C0C0C0C67C00000000F2
:101A300000001C0C0C3C6CCCCCCCCC760000000024
:101A400000000000007CC6FEC0C0C67C0000000094
:101A50000000386C6460F060606060F000000000BE
:101A6000000000000076CCCCCCCCCC7C0CCC780038
:101A70000000E060606C7666666666E60000000066
:101A800000001818003818181818183C000000003A
:101A900000000606000E06060606060666663C0000
:101AA0000000E06060666C78786C66E6000000001C
:101AB00000003818181818181818183C00000000F2
:101AC0000000000000ECFED6D6D6D6D600000000FE
:101AD0000000000000DC66666666666600000000C6
:101AE00000000000007CC6C6C6C6C67C0000000020
:101AF0000000000000DC66666666667C6060F000E0
:101B0000000000000076CCCCCCCCCC7C0C0C1E00B1
:101B10000000000000DC7662606060F00000000001
:101B200000000000007CC660380CC67C000000008D
:101B30000000103030FC30303030361C0000000027
:101B40000000000000CCCCCCCCCCCC760000000057
:101B5000000000000066666666663C180000000033
:101B60000000000000C6C6C6D6D6FE6C000000000D
:101B70000000000000C66C3838386CC60000000059
:101B80000000000000C6C6C6C6C6C67E060CF80029
:101B90000000000000FECC183060C6FE000000000F
:101BA00000000E18181870181818180E0000000001
:101BB000000018181818001818181818000000004D
:101BC0000000701818180E1818181870000000007F
:101BD000000076DC000000000000000000000000B3
:101BE0000000000010386CC6C6C6FE0000000000F1
:101BF00000000000000000000000000000000000E5
:101C000000000000000000000000000000000000D4
:101C1000000000000000000000FCFEFC00000000CE
:101C2000000000000003FF030000000000000000AF
:101C3000003079300000000000001CFC1C00001C7B
:101C4000FC1C00000000000000000000000000007C
:101C50000000000000000000000000000000E0E0C4
:101C6000000000F0F08080008282FFFF414141FFD0
:101C7000FF20200000001F1F0000000F0F000000C9
:101C8000C0E0301010FCFC101030E0C003070C085E
:101C900018FFFF303060C080070F1810107F7F10D2
:101CA00010180F07F0F80404F8F00000C0701800D6
:101CB00001030484E3398E4341800000301C070196
:101CC000001F3F40403F1F0000F08804048478005C
:101CD00000000000E0F807061D70C0800040C04012
:101CE0000F1F30202030111B0E1E3120000000007D
:101CF000003CFC3C0000000000000000000001006F
:101D000000000000000000000000000000000000D3
:101D1000000000000080E0780C02010000000000DC
:101D200000FFFF0000000000000000000001071E8F
:101D3000304080000001020C78E0800000000000CC
:101D40000000000000FFFF000000000000804030A5
:101D50001E070100000000008080000060F06000AD
:101D60000080800081C3C32400C30024C3C381005A
:101D700001010000060F0600000101000000000044
:101D800000808000000000000018181818FFFF18DD
:101D900018181800000000000001010000000000F9
:101DA0000000000000000000000000000000000033
:101DB00000000000000000000000008CDE7E3C00FF
:101DC0000000000000000000000000000000000013
:101DD0000018181818181818181818000000000013
:101DE00000000000000000000000000000000000F3
:101DF00000000000000000000000000000000000E3
:101E0000000000183C3C180000000000000000002A
:101E1000000000C0701C0600000000C0701C07011C
:101E200000000000301C070100000000000000005E
:101E300000C0F0380C040C38F0C00000FFFF0000B8
:101E40000000000000FFFF0000030F1C3020301CCA
:101E50000F0300000010101818FCFC000000000028
:101E60000000000000FFFF00000000000000202034
:101E7000203F3F202020000060F0F80C0404040CF8
:101E800018F0E00000000080C06030180E0701006C
:101E9000383E3F333030303030303C0000307878DE
:101EA0000C04040C18F8F0000000000008081C16D0
:101EB00033E1C0000C1E3E3020202030181F0F00E0
:101EC0000000000080E038FCFC00000080E0380EDC
:101ED000030000FFFF000000010101010121213F7B
:101EE0003F21210100FCFC0C0C0C0C0C0C0C000024
:101EF000001F0F08040202061CF8E0000C1E3E3012
:101F0000202020301C0F0300C0F0380C04040C7C8F
:101F100078300000FFFF0804020202061CF8E0000F
:101F2000030F1C30202020301C0F0300781C0C0CE9
:101F30000C0C0C0CCC7C1C000000000080F07C0F12
:101F400001000000000000003F3F00000000000012
:101F500000F0F80C0404040CF8F00000C0E0311BA1
:101F60000E0C0E1B31E0C000070F1830202020306F
:101F7000180F0700C0F0380C0404040C38F0C0003F
:101F8000071F38604040402010FFFF00000C1E3E3D
:101F9000302020301C0F03000000000080C0C080F3
:101FA000000000000000000081C3C38100000000A9
:101FB0000000000001030301000000000000000019
:101FC00080C0C080000000000000000081C3C38109
:101FD0000000000000000000111B0F0700000000BF
:101FE000000000000080C0603018080010386CC687
:101FF0008301000000000000000000000103060C47
:102000001830200000000000000000000000000068
:1020100000C3C3C3C3C3C3C3C3C3C3000000000022
:10202000000000000000000008183060C0800000C0
:102030000000000000000000000183C66C381000A2
:102040002030180C06030100000000000060F0784A
:102050000C0404040CF8F000000000000000F01C68
:10206000070300000000000000307930000000008D
:10207000E0100884C44444C48810E000FF00FFFF5F
:10208000808080FFFF00FF00070810212121202011
:102090002111080000000000F00C3CF000000000DE
:1020A0000000F0FF43404043FFF00000203E3F208F
:1020B00000000000203F3E2004FCFC0404040C1837
:1020C000F0E0000000FFFF0808081C1673E1800024
:1020D000203F3F20202020301C0F0300C0F0380C90
:1020E0000404040C18387C00FFFF0000000000000E
:1020F00000000000030F1C3020202030180E0600C6
:1021000004FCFC0404040C1870E0800000FFFF00D5
:102110000000000000FFFF00203F3F20202030187B
:102120000E07010004FCFC04040404040C1C7C00E5
:1021300000FFFF0808081C7F00000000203F3F2030
:102140002020202030383E0004FCFC040404040459
:102150000C1C7C0000FFFF0808081C7F000000002A
:10216000203F3F200000000000000000C0F0380CBD
:1021700004040C08187C0000FFFF000000000008A9
:10218000F8F80800030F1C302030180C3F3F000007
:1021900004FCFC0400000004FCFC040000FFFF0839
:1021A00008080808FFFF0000203F3F200000002033
:1021B0003F3F2000000000040404FCFC0404040071
:1021C000000000000000FFFF0000000000000020F1
:1021D00020203F3F2020200000000000000404FCDD
:1021E000FC04040000000000000000FFFF000000ED
:1021F0000E1F37222030301F0F00000004FCFC04AB
:102200000080E47C1C04040000FFFF781E7FE18056
:1022100000000000203F3F20000001273E38202022
:1022200004FCFC04000000000000000000FFFF00B0
:102230000000000000000000203F3F202020202060
:1022400030383E0004FCFCC000000000C0FCFC0470
:1022500000FFFF073CE0E03C07FFFF00203F3F207E
:1022600000010100203F3F2004FCFCE000000004CE
:10227000FCFC040000FFFF01071C70C0FFFF000012
:10228000203F3F20000000030F3F0000E0F0180C4B
:102290000404040C18F0E000FFFF00000000000040
:1022A00000FFFF00070F183020202030180F070014
:1022B00004FCFC0404040C0838F0C00000FFFF100C
:1022C000101018080E070100203F3F2000000000FA
:1022D00000000000E0F0180C0404040C18F0E0000A
:1022E000FFFF00000000000000FFFF00070F183094
:1022F00022262C18307F4F4004FCFC0404040C18E8
:10230000F8E0000000FFFF0838F8CC0607010000E5
:10231000203F3F200000032F3C302000F0F8880CC5
:1023200004040C18387C0000000103070E1C3870F0
:10233000E0C080003F1E0C1830202030180F07002E
:102340007C1C0C0404FCFC04040C1C7C000000003D
:1023500000FFFF000000000000000020203F3F20A1
:102360002000000004FCFC0400000004FCFC04004D
:1023700000FFFF0000000000FFFF0000000F1F3003
:10238000202020301F0F000004FCFC04000000048B
:10239000FCFC040000003FFFC000C0FF3F00000045
:1023A000000000031F3C1F030000000004FCFC04AD
:1023B0000000000004FCFC040003FF8000FCFC00A3
:1023C00080FF03000000033F3C03033C3F03000089
:1023D000041C7CE480000080E47C1C04000000817C
:1023E000E77E7EE78100000020383E2701000001E3
:1023F000273E3820041CFCE400000000E4FC1C0420
:10240000000000071FF8F81F070000000000002070
:10241000203F3F20200000007C1C0C040404C4F476
:102420003C1C00000000C0F03C0F03000000000056
:102430003C3F23202020202030383E0000000000B8
:1024400000FF0101010101000000000000FF000089
:10245000000000000000000000FF808080808000FD
:10246000061C70C000000000000000000000000119
:10247000071C70C000000000000000000000000108
:10248000071C3000000101010101FF0000000000F5
:10249000000000000000FF000000000000808080BD
:1024A0008080FF0000000000006030180C06060C61
:1024B0001830600000000000000000000000000074
:1024C000000000000000000000000000000000000C
:1024D00000000000000000000000000000000000FC
:1024E00000000000808080808080808080808080EC
:1024F000000002030706040C0808000000000000AA
:1025000000000000000000000000000000000000CB
:1025100000000000000000000000000000000000BB
:10252000081C9E8AC2424246FCF800001E1F312051
:10253000202030101F3F200004FCFC0000000000A1
:102540000000000000FFFF0C060202061CF8E0007D
:10255000203F1F18302020301C0F03000000000017
:102560000000000000000000E0F81C060202021655
:102570003C3C1800030F1C3020202020301808009D
:10258000000000000000000004FCFC00E0F81C0655
:10259000020202060CFFFF00030F1C302020203037
:1025A000181F3F00000000000000000000000000B5
:1025B000E0F89C86828282869CF8E000030F1C3043
:1025C0002020202030180800000000F0F80C04043F
:1025D0001C3C1800020202FFFF0202020000000081
:1025E0000020203F3F2020000000000000000000ED
:1025F0000000000000000000387CC6828282C67C99
:102600003C0606003C7FC3828684848CCC783000F4
:1026100004FCFC00000000000000000000FFFF18A8
:102620000C060206FCF80000203F3F2000000020BE
:102630003F3F200000000000183C3C180000000054
:102640000000000202FEFE0000000000000000206A
:10265000203F3F20200000000000000000183C3C0C
:102660001800000000000000000202FEFE00000052
:102670003078F8908080C07F3F00000004FCFC00B0
:10268000000000000000000000FFFFC060F0DA0E54
:1026900006020200203F3F200000032F3C302000B4
:1026A0000000000404FCFC0000000000000000002A
:1026B00000FFFF000000000000000020203F3F203E
:1026C00020000000000000000000000000000000EA
:1026D00002FEFE0406FEFC0606FEFC00203F3F2034
:1026E000003F3F20003F3F200000000000000000AE
:1026F0000000000002FEFE180C060206FCF80000B6
:10270000203F3F20000000203F3F2000000000004D
:102710000000000000000000E0F81C0602020206B3
:102720001CF8E000030F1C30202020301C0F030099
:1027300000000000000000000000000002FEFE0C8F
:10274000060202061CF8E00080FFFF860C08080C59
:10275000070300000000000000000000000000006F
:10276000E0F81C060202060CFCFE00000003070C49
:1027700008080C86FFFF8000000000000000000039
:102780000000000002FEFE180C0602021E1C0800DB
:10279000203F3F200000000000000000000000007B
:1027A0000000000000000000387C66C2C282828601
:1027B0000C1C00001C18302020202121331F0E008B
:1027C000000000E0F000000000000000020202FF34
:1027D000FF020202020200000000000F1F30202052
:1027E000301C0C0000000000000000000000000091
:1027F00002FEFE0000000002FEFE0000000F1F307F
:102800002030180C3F3F20000000000000000000B6
:1028100000000000020E7EF2800080F27E0E0200B8
:10282000000000031F3C1F03000000000000000028
:102830000000000000000000023EFEC200F0F000B8
:10284000C2FE3E020000033F3E03033E3F03000082
:10285000000000000000000000000000020E1E3218
:10286000E0C0E0321E0E020020383C2603010326A1
:102870003C382000000000000000000000000000C4
:1028800002061E7AE08080F27E0E020060E0808008
:10289000E17F1F03000000000000000000000000B6
:1028A00000000000000E020282C262321A0E060010
:1028B000383C26232120202020303C00000000004E
:1028C00000FCFE0301010100000000183CE7C3000A
:1028D0000000000000000000003F7FC080808000FA
:1028E0000000000000FFFF000000000000000000EA
:1028F00000FFFF00000000000000000000FFFF00DC
:10290000000000000001010103FEFC0000000000C7
:102910000000000000C3E73C180000000080808039
:10292000C07F3F0000000000000000000000000029
:102930000000000010180C040C081030203018089B
:102940000000000000000000000000000000000087
:10295000C070C00000000000C0F09C8781808187AB
:102960009CF0C0000000000000000000000000001B
:102970001C8C04080000001820300C3FF806B03012
:1029800004B03000B030613FF03130301B303012D5
:102990003030023FF00230300600000440180C7F57
:1029A000FC7C64980C64980C64980C64980C649893
:1029B0000C649A0DFFFF040000000000E08B040887
:1029C00000000010C01818FFFC0CC01808C0184008
:1029D000FFF862C01832C01822FFF80480100410FB
:1029E00080081CE00A18C80918CE1998CC7998D824
:1029F00018D8D018D8E01898C01818C01818CC1BD0
:102A0000FFFE080000000000288C040800300000D1
:102A10001C0810081C1FFFFE1841001871C0186127
:102A2000981BFFFC186180186180186180187F80F6
:102A300018410018006019FFF01840C018218018D4
:102A40001300100E00301E002033C021C0FE4E00C7
:102A500030000000608C0408001000001C00081802
:102A6000400418700618600318C00398C0019980CC
:102A7000011900001A0C7FFFFE00C60000C600000E
:102A8000C60000C60000C60400C604018604018614
:102A9000040306040606061807FE6003FC00000097
:102AA000548C040800000000001810CFFC1FE3182D
:102AB00018C31818C31818C63818C4F01FC86018EF
:102AC000D81818CFFC18CC1818CC1818CC181FCC54
:102AD0001818CFF8108000090C2008863018C61C82
:102AE00038630E704206200004000000E48B0408E6
:102AF0000402000703800603000603000C06180CFE
:102B0000FFFC0C0C000E0C001C0C001C180C2DFF04
:102B1000FE2C18004C10000C30100C7FF80C2030EC
:102B20000C00600C00C00C31800C0D000C07800CF8
:102B300001C00C00E0080040488C0408000240007E
:102B4000036010032C1FFFFE1803001813101BFB5B
:102B50001C1803181A19B01BFDB01B19E01B18C470
:102B600033F9E4331B7422143C20480E42304613E0
:102B7000183013189813088C3300C473FFC061FF1A
:102B800080000000908C040800000010C2181FE3B1
:102B9000FC18C31818C31818C3181FD3F8189910B5
:102BA0001030C00060887FFFFE01820003018006B4
:102BB00000600C643E3FF7F84C66300C66300C66E3
:102BC000300C66300FE7F00C66300844200000003F
:102BD000308C04080000C0000FE0007FF03FF000E0
:102BE0000040200830700C30C00618800611000428
:102BF0000000001C0000180C7FFFFE003C00007A63
:102C00000000DA000199000319800618C00C187042
:102C100030183E401818001800001000EC8B040813
:102C200001100001CC00030E0002041807FFFC068F
:102C30000C000E0C1017FFF8260C00460C1007FFB6
:102C4000F8060C00060C0807FFFC04100000180C26
:102C50007FFFFE007A0000DB000199800618F8185B
:102C6000183E601808001000F88B0408006000008F
:102C7000380008180008100C0FFFFE18041C3987D4
:102C80001830C610006600004600060600038600E5
:102C900001CC00008C00000C0C7FFFFE001800002F
:102CA0001A000031800060E000C03803801C0E0074
:102CB0000E700004788C04080000000002000183FC
:102CC000807FC700118C801D8CC019986019B030AE
:102CD00019A0B819DFDE1980081842103FE114105E
:102CE000D11800C93000C9B01ECDA070CD6020C879
:102CF0004000C04001808C1FFFFE07000002000062
:102D0000A88C040804000807000E06030C0DFF8CB5
:102D10000C300C0C304C18306C1C664C3C7F4C2C2E
:102D2000C64C2CC64C4C864C0D4C4C0D6C4C0E3C81
:102D30004C0C2C4C0C184C0C184C0C300C0C600C23
:102D40000C800C0D00FC0A00380000103C8C0408BC
:102D500000000001901807DFFC1E181866181806FE
:102D60001818061818069FF87FD0100E00000E00E5
:102D70000C173FFE16818016C180264180260198DF
:102D8000461FFC06018006018006018006018C06B4
:102D9000FFFE060000040000F48B040800000000A1
:102DA00000000000303FFFF80000300100300080DC
:102DB0003000C03000C0300060300060300041B0F2
:102DC000000E3000703001C0300F80607E00603037
:102DD00000601000600000E0007FC000078000037A
:102DE00000000000648C040800000010C00C1FEFFD
:102DF000FE18C0C018C0801FC91818CFFC18CC1806
:102E00001FCC9818CCD8108C98002C987FFC980375
:102E10000C98130C981B40C01BE1303302183B0484
:102E20000C27180423000041FFFE80FFF80000007B
:102E3000988C040801000001C00003800003001802
:102E400007FFFC0600000C01801BFFC010000020E3
:102E500000004003001FFF80000300000300000388
:102E6000000003000003000003080001880001883F
:102E70000000C800007C00003C000000008C04083A
:102E80000000000000000800180FFFFC0C00000C00
:102E900008000C0E000C0C000C0C000C0C000C0CB0
:102EA000300DFFF80C0C000C0C000C0CC00C0C606E
:102EB0000C0C70180C30180C20100C00300C0C2767
:102EC000FFFE400000000000C48B0408002000301A
:102ED00038101C30380C3FFC04600000600002C059
:102EE0003062FFF835603036663014633004623685
:102EF0000BFFFE08C03018CC3018C63078C7301829
:102F0000C23419FFFE188030180070180FE0080353
:102F100080000100448C04080808000E0E800C0C90
:102F2000600C0C300C0C300D0C0C7FBFFE0C0C0038
:102F30000C0C000C58300D9FF80E1C301C34307CEB
:102F400034602C32600C62C00C63C00CC1800C83F6
:102F5000C00D06600D0C307E301E1CC0080800003D
:102F6000388C0408000000001000001C000018004D
:102F7000001800001800003800003800003400007D
:102F8000340000640000620000C20000C300018140
:102F9000000181800300C006006004007008003C4E
:102FA00010001F2000084000000000006C8C040886
:102FB0000404000707000606000606000C06080CBD
:102FC000061C0DFFFE1C0E801E1E803C1E802C3633
:102FD000C02C36404C66400C66200CC6300C86185F
:102FE0000D065E0EFFE80C06000C06000C06000C39
:102FF00006000C0600080400808C0408040000078A
:1030000000000600000600180C3FFC0C018018812F
:103010008018E18011C1807F81803B0180020180A6
:103020000601800C01801001807FC1803801800082
:10303000018000C18007018C7C7FFE380000000009
:1030400000000000688C04080001000401C00701B2
:10305000800601800601800601800C31800FF98016
:103060000831801831C01631B033319C23618E4154
:10307000618600C184018180018180030180060195
:10308000800C01803001804001800001800001003F
:10309000348C040800000000000800001C7FFFFEC4
:1030A00000006000006000006004186007FC60061B
:1030B0001860061860061860061860061860061882
:1030C0006007F86006186006106004006000006089
:1030D0000000600007E00001C0000080088C0408C8
:1030E0000810400E1C700C18600C10680C32640D37
:1030F000BF660D26642E66602C57FE2C96602D4C04
:10310000606C4CD06C38904C11980C230C0E440E13
:10311000190804190000184888104CCC3046662065
:10312000C66641C446018004888C04080800000E6D
:1031300000000C20180C3FFC0C30000D30007FB05C
:10314000300C37F80C30000C30000CB00C0F3FFE88
:103150000E36807C36882C269C0C66600C66400CF3
:1031600066600C66200CC6B80CC71C7D8E0F190457
:1031700004120000E88B04080001000001C00001F7
:10318000800061803FF18000018000018C000FFE13
:1031900000318C7FF98C04018C07018C0C030C0C22
:1031A000830C18430C10630C21F30C7E360C302674
:1031B0000C000C1C0019F800607001802002000057
:1031C000C88B04081000001C0000188C8C18FEFE30
:1031D00018CCCC1ACCCCFFCCCC18CCCC18CCCC385E
:1031E000CCCC3DFFFE3ACCCC5ACCCC58CCCC58CC35
:1031F000CC98CCCC18CCCC18CC8C188D8C198D0CD0
:10320000193F7C1A1A18140410000000408C04089E
:103210000000800840E00E70C00C60C81868CE192D
:1032200064C811E6D82364D02660E07E60C4247FA1
:10323000FE0861C00861E01063D023E2D87C64CC52
:103240002064CE0068C403F0C07C60C0306084009D
:10325000FFFE004000000000708C04080020000009
:1032600038000030000030001030601FFFF01830D0
:10327000601830601830601830601FFFE018306050
:103280001830601830601830601FFFE018304010B0
:103290003004003004003004003006003FFE001F00
:1032A000FC000000748C04080000000800600FFFA0
:1032B000F00C00600C00600C04600C07600D0660F0
:1032C0000C8C600C4C600C28600C18600C38600C86
:1032D0002C600C66600CC660188362190332120100
:1032E0003214001220001E20000E400006000000D4
:1032F0002C8C0408001800000C000808180FFFFCB4
:103300000C00180C00180C00180FFFF80C00000C33
:1033100018180DFDFC0C18180D1A180C99980CD9DA
:10332000D80C38B81858581999981F1F18321A18FD
:1033300020181841F9F80070700020200C8C040847
:10334000001000001C00021800039800031860031E
:103350001FF003180003180003180003180C7FFF68
:10336000FE001000021C000318000618200C18783C
:103370001818E0101980201B00401E0000380000C3
:10338000C0000F0000700000948C04080010801032
:103390001CE01818C00C18C00618C806FFFC04185A
:1033A000C00018C00018C00C18C07E18CC0DFFFE5D
:1033B0000C18C00C18C00C30C00C30C00C60C00C15
:1033C000C0C00D00C00C008032000061FFFE20FF75
:1033D000F8000000A48C0408040000070860060F31
:1033E000F0060C60060C60060C6006CC607FEC609A
:1033F0000E0C600E0C601F0C6016CC60166C6036F4
:103400004C60260C60460C60860C6206186206183A
:103410006206306306207F06403E068000040000FE
:10342000A08C0408001000001C0000180800181CE4
:103430007FFFFE0018000018000018301FFFF80082
:1034400000000800300FFFF80C18300C18300C1872
:10345000300FFFF00C00300C0020180000180000A6
:10346000100000200000400000000000D08B040885
:10347000040000071018061FFC0618180618180686
:1034800098187FD8300619F006186006180806DF6D
:10349000FC071A180E1A187E193036193026193002
:1034A0000618E00618C00618E00619B00619183EFE
:1034B0001A0E1C1408080000F08B04080660800631
:1034C00068C07FFD8C0661FE1833181FFA983034EF
:1034D000B02FB06048B0F00FB19E08320800E8008D
:1034E00000080C7FFFFE0000000FFFF00000000F3F
:1034F000FFF000000007FFE006006006006007FF25
:10350000E0060060588C04080806000E03000C0159
:10351000800C21040C3FFE0D200C7F60100C6840D5
:103520000C0E300C18180CB01C0F200C1C40047C26
:1035300080302C7FF80C03000C03000C03000C03FC
:10354000000C03000C030C7CFFFE180000100000B0
:10355000248C040801001001C01C1180181D801863
:103560001999183FFDD8218198418198018D987F44
:10357000FF980181980181981199981FFD981999D8
:103580009819999819999819991819981819F81853
:1035900011B0180181F8018070010020CC8B040863
:1035A0000000000000000000C000018000030000D7
:1035B0000200000600000E00000E00000C00001CBF
:1035C00000001C00001C00001C00001C00000C007F
:1035D000000E00000E0000060000020000030000C4
:1035E00001800000C0000000809A04080000000074
:1035F000000006000003000001800000800000C001
:103600000000C00000E000006000006000007000EA
:1036100000700000700000600000600000E000002A
:10362000C00000C000008000018000030000060010
:1036300000000000508C040800000004006007FF38
:10364000F006006006006006006007FFE00600600C
:1036500006006006006007FFE00444400077101099
:10366000661C0866380C66300666600666C006662C
:103670008004670000660C7FFFFE00000000000071
:10368000188C04080000000000000000600FFFF02C
:1036900000000000000000000000000800001C7F87
:1036A000FFFE0018000018000219000398C003185C
:1036B000600618300618300C181818181C10180C52
:1036C00020180841F800007000002000FC8B04085E
:1036D000001000081C200E18380C18300C18301F71
:1036E000FFF00800300821000E39C00C318C0C337B
:1036F000FE7FFB0C0C32880C36E80C34C00FF0C097
:103700000C30E00C30A00C31B00C31B00FF3180CC1
:10371000361E080C080010007C8C04080000000312
:10372000000007C000003000001000000800001872
:1037300000001C00001C0000340000320000620089
:1037400000630000C10000C1800181800300C00649
:1037500000E00C006008007810003E2000184000D7
:1037600000000000148C040800060000074000065A
:103770002000063000062000060C7FFFFE00060039
:103780000006000006000066003FF300030300038C
:103790000300030300030300030184031D8403E00B
:1037A000C47F006438003420001E00000E000000BA
:1037B0004C8C0408080C000E06000C03000C0218C8
:1037C0000C7FFC0D90407FC8600C0CC00C08980C5E
:1037D000FFFC0D04000E07001C06007C0C0C2DFFE6
:1037E000FE0C18600C30600C60C00C1D800C07C013
:1037F0000C0CE07C383818E01C1300085C8C0408C2
:103800000000000000000000000000000800300F71
:10381000FFF80C00300C00300C00300C00300C00B5
:10382000300C00300C00300C00300C00300C00303C
:103830000C00300C00300FFFF00C00300C00300892
:103840000020000000000000048C040804020007AF
:10385000038006030006030806031C06BFFE7FC3A1
:1038600000060300060300068310073FF806103029
:103870001E10307610602608600608600604C00638
:1038800007800603800606C0060C787E183E0E20D0
:10389000180440008C8C0408001000001C00001864
:1038A000C000186000187000182000180C7FFFFE80
:1038B000007A00007A0000DA0000DB0001990001C4
:1038C00099800318C00618C00C18601818383018F2
:1038D0001E40180800180000180000180000100012
:1038E000848C0408040800070E00060C00260C0057
:1038F00036080036180C269FFE3FF36C26236C46D4
:10390000466C46866C0604CC06CCCC0F18CC7E19CF
:103910008C36310C266318068618060C1806181803
:103920000630380663F00680E0040040DC8B0408B3
:103930000000000028107FF41818C63018C32018A3
:10394000C24018C0881FDFFC18C18018C18018C190
:103950008018C1841FFFFE18C18018C34018F340AF
:103960001BC3407EC36030C62000C43000C81800AE
:10397000D00E00E0080080009C8C040800000020AD
:1039800000183FFFFC300018300018306098346099
:10399000D83268D831659831C59830C31831C3180A
:1039A0003163983166983324D83228D83408983057
:1039B00010183000183000183000183001F82000BE
:1039C00070000020D88B04080000000000000000F8
:1039D000183FFFFC00C18000C18000C18000C18091
:1039E00000C18000C18000C18C7FFFFE00C180004B
:1039F000C1800181800181800181800301800301F8
:103A0000800601800C0180180180200180400100A7
:103A1000208C040800020004038003030003030059
:103A200001030000330C7FFFFE0C06300C06300C47
:103A3000C4300FEA300CCA300CD3300CC3600CC158
:103A4000600CC1C018C0C018C1C010C36017C63018
:103A5000218C1821180E406008008000108C04088A
:103A60000000000000183FFFFC0018000018400C88
:103A700018700618E00318C0039980019900011A14
:103A80000000180C7FFFFE0018000018000018004E
:103A900000180000180000180000180000180000AE
:103AA0001800001800001000D48B0408002000004B
:103AB000380000700000E00000C000018100030039
:103AC000C00600700800383FFFFC1E000C00000814
:103AD00000000004006007FFF006006006006006BA
:103AE000006006006006006007FFE0060060060058
:103AF00060040040C08B04080000000000000000CB
:103B00000000800001C00001C00001C00001C00031
:103B100001C00001C00001C00001C00001C00001DF
:103B2000C00000800000800000000000800001C094
:103B30000001C00000800000000000000000000044
:103B40000000000000000000000000000000000075
:103B50000000000000000000000000000000000065
:103B60000000000000000000000000000000000055
:103B700000000000200018000C00040000000000FD
:103B80000000000000000000000000000000000035
:103B900000000000180024002400180000000000AD
:103BA0000000000000000000000000000000000015
:103BB0000180018000000000000000000000000003
:103BC0000000000000000FE0000000000000000006
:103BD00000000000000000000000000000000000E5
:103BE00000000820044002800100000000000000E6
:103BF00000000000000000000000000000000000C5
:103C00000000000000000C600C60000000000000DC
:103C100000000000000000000000000000000000A4
:103C2000000000000000000002400240024004804A
:103C300004800900000000000000000000000000F7
:103C4000000000000400040004200FF008201040D1
:103C500020800500020001000100000000000000BB
:103C600000000000000000000000000000007FFCD9
:103C70000000000000000000000000000000000044
:103C800000000000000000000000000000001C0414
:103C900023884070000000000000000000000000C9
:103CA0000000024002400240024002400240024046
:103CB0000240024002400240024002400240000036
:103CC00000000000000000000000000063186318FE
:103CD00000000000000000000000000000000000E4
:103CE000000000080010002000300030000000003C
:103CF00000000000000000000000000000000000C4
:103D0000000018001800080010002000000000004B
:103D100000000000000000000000000000000000A3
:103D20000000008801100220033003300000000072
:103D30000000000000000000000000000000000083
:103D40000000198019800880110022000000000086
:103D50000000000000000000000000000000000063
:103D6000000000080010002000200020002000209B
:103D7000002000200020002000200010000800008B
:103D800000002000100008000800080008000800DB
:103D900008000800080008000800100020000000CB
:103DA0000000000400080010002000400080010016
:103DB0000080004000200010000800040000000007
:103DC0000000200010000800040002000100008034
:103DD00001000200040008001000200000000000A4
:103DE00000100024004800900120024004800900D7
:103DF00004800240012000900048002400100000D0
:103E000008002400120009000480024001200090F4
:103E10000120024004800900120024000800000074
:103E20000000003C00200020002000200020002096
:103E30000020002000200020000000000000000002
:103E40000000000000000000040004000400040062
:103E50000400040004000400040004003C0000000E
:103E6000000000FC008400BC00A000A000A000A096
:103E700000A000A000A000E0000000000000000082
:103E8000000000000000000007000500050005001C
:103E900005000500050005003D0021003F00000071
:103EA000000001FC01080110011001200120012087
:103EB00001200120012001100110010801FC000077
:103EC00000003F8010800880088004800480048007
:103ED0000480048004800880088010803F800000F7
:103EE000000001FC01F801F001E001E001C001C0A7
:103EF00001C001C001E001E001F001F801FC000097
:103F000000003F801F800F800780078003800380B0
:103F100003800380078007800F801F803F800000A0
:103F20000000000001000100010001001FF001007D
:103F300001000100010000001FF00000000000006F
:103F40000000000000001010082004400280010062
:103F50000280044008201010000000000000000053
:103F600000000000000003000300000000003FF01C
:103F7000000000000300030000000000000000003B
:103F80000000000000000000060006000000000025
:103F90000000060006000000000000000000000015
:103FA000000001000100028002800440044008205B
:103FB0000820101010102008200840040000000005
:103FC00000000000400420082008101010100820F5
:103FD000082004400440028002800100010000002B
:103FE00000007FFC300418040C0006000300018070
:103FF0000100020004000800100420047FFC0000FF
:1040000000007FF818601860186018601860186069
:104010001860186018601860186018603CF00000A4
:104020000000200820082008200820082008200878
:1040300020082008200820081010082007C00000D1
:10404000000007C0082010102008200820082008C1
:104050002008200820082008200820082008000048
:10406000000001E0060008000800100010001FE03A
:1040700010001000100008000800060001E0000019
:1040800000000000000018301830000000000000A0
:104090000000000018301830000000000000000090
:1040A00000020002000400040008000800100010D4
:1040B0000020002004400A4012800100000000009F
:1040C00000000100010001000100010001000100E9
:1040D0000100010001000100010001003FF80000A3
:1040E000024002400240024002400240048004803C
:1040F0000480048004800900090009000900090007
:1041000000000004000800100020004000800100B2
:10411000020004000800100020007FFC00000000E6
:1041200000000000078018602010201040084008A0
:10413000000000000000000000000000000000007F
:10414000000000000780186020102010400843087D
:10415000430840082010201018600780000000006D
:10416000000000C001200100010001000100010069
:10417000010001000100010001000900060000002B
:1041800000C0012001000100010007C00920092032
:104190000920092007C001000100010009000600F4
:1041A000000000000000000000007FFC00007FFC19
:1041B00000007FFC00000000000000000000000084
:1041C00000000000187020884104410442042208C5
:1041D0001C3000007FFC00007FFC0000000000009D
:1041E000000000000000000000001C042388407054
:1041F0001C04238840700000000000000000000044
:1042000000000000000000003878408480828102B5
:104210008102820242043C380000000000000000DD
:1042200000000000000000003C7E42808100810010
:104230008100810042803C7E000000000000000000
:10424000000000200020004000407FFC0100010031
:1042500002007FFC040008000800100010000000AD
:104260000000010C013001C003000D003100C1004D
:1042700031000D00030001C00130010C00000000FE
:1042800000006100190007000180016001180106AB
:1042900001180160018007001900610000000000A2
:1042A000000C003000C003000C003000C0003000E3
:1042B000CC0033000CC0033000CC0030000C0000F8
:1042C0006000180006000180006000180006001859
:1042D0000066019806601980660018006000000002
:1042E00000000000000000003C784284810281024E
:1042F000810242843C7800000000000000000000C1
:1043000000000000000030303030000000000000ED
:104310000000000000000300030000000000000097
:104320000000000000000300030000000000000087
:1043300000000000000030303030000000000000BD
:104340000000010003800540092011100100010058
:104350000100010003800440044004400380000089
:104360000000038004400440044003800100010079
:104370003FF8010001000100010001000100000000
:1043800000001800240024001800000000000000B5
:10439000000000000000000000000000000000001D
:1043A00000000800080010001000200000000000BD
:1043B00000000000000000000000000000000000FD
:1043C0000000120012002400240048000000000039
:1043D00000000000000000000000000000000000DD
:1043E000600091F4960C6C04080418001800180082
:1043F00018001800180008000C04060801F000005E
:1044000001000FE0113031103100310019000F00B0
:1044100003C001700118011811180D3007E00100E8
:1044200000004002200417E80810100810081008C7
:10443000100810081008081017E8200440020000B7
:104440000010002007E818583048608061006100C3
:104450006200620064003808181017E02000400075
:1044600000E00110010001000200020002003FC054
:104470000400040008000800080010007FC00000CD
:1044800000083010482048404880490032000400AD
:104490000800130C2492449284920492030C0000AE
:1044A0000380044004400400020005000900088065
:1044B00008800480050002000100008008800700D9
:1044C00060802140310031003918292429242D240D
:1044D0002D2425242724272423182300A17E4100EE
:1044E000010001000280028002800440FC7E400442
:1044F00030180820082011901650183020080000AD
:104500000100010003800380038007C0FFFE7FFCE1
:104510003FF80FE00FE01FF01EF0183020080000F9
:10452000000007C01C7030183018600C600C600C64
:10453000600C600C301830181C7007C000000000C0
:10454000000007C01FF03FF83FF87FFC7FFC7FFCB6
:104550007FFC7FFC3FF83FF81FF007C00000000021
:10456000000007C0183023882448482450145014F1
:104570005014482424482388183007C00000000045
:10458000010002800440082010102008400480022E
:1045900040042008101008200440028001000000A0
:1045A0000100038007C00FE01FF03FF87FFCFFFE13
:1045B0007FFC3FF81FF00FE007C003800100000000
:1045C00000007FFC400440044004400440044004D8
:1045D000400440044004400440047FFC000000000C
:1045E00000007FFC7FFC7FFC7FFC7FFC7FFC7FFC6E
:1045F0007FFC7FFC7FFC7FFC7FFC7FFC00000000D9
:1046000000000100010002800280044004400820F4
:10461000082010101010200820087FFC0000000067
:104620000000010001000380038007C007C00FE005
:104630000FE01FF01FF03FF83FF87FFC0000000084
:104640000000430423081010082004400280610C7D
:10465000628C0440082010102308430480020000EC
:104660000000000000000000008000600038FFFE35
:104670000038006000800000000000000000000022
:10468000000000000000000002000C003800FFFEE7
:1046900038000C00020000000000000000000000D4
:1046A000010001000380038007C0054009200100CC
:1046B00001000100010001000100010001000100F2
:1046C00001000100010001000100010001000100E2
:1046D00001000920054007C003800380010001009C
:1046E0000000000000007FFC7FFC7FFC0000000059
:1046F00000007FFC7FFC7FFC000000000000000049
:10470000000001000000000001000300050001009E
:104710000100010001000100038000000000000012
:104720000000084000000000084018C00840084091
:1047300008400840084008401CE00000000000005D
:104740000000111000000000111033301110111082
:1047500011101110111011103BB8000000000000E2
:104760000000100000000000160C320812081110A2
:10477000111010A010A010403840000000000000F0
:10478000000000000000000018300820082004404D
:1047900004400280028001000100000000000000CF
:1047A0000000001000000000C190413041102210B4
:1047B0002210141014100810083800000000000027
:1047C0000000004400000000C64444CC444444447B
:1047D000284428442844104410EE00000000000043
:1047E0000000012400000000C524476C4524452436
:1047F000292429242924112413AE000000000000DC
:104800000000200000000000271C6208211020A0EA
:10481000204020A021102208771C0000000000008A
:1048200000000000000000001C700820044002800E
:1048300001000280044008201C70000000000000FD
:104840000000000000000000000000000000000068
:104850000000000000000000000000000000000058
:104860000000000000000000000000000000000048
:104870000000000000000000000000000000000038
:104880000000000000000000000000000000000028
:104890000000000000000000000000000000000018
:1048A0000000000000000000000000000000000008
:1048B00000000000000000000000000000000000F8
:1048C00000000000000000000000000000000000E8
:1048D00000000000000000000000000000000000D8
:1048E00000000000000000000000000000000000C8
:1048F00000000000000000000000000000000000B8
:104900000100030005000100010001000100010099
:104910000100010001180118000000000000000063
:104920000F00108000800080008001000200040061
:104930000800100010181F98000000000000000080
:104940001F8000800100020006000100008000803E
:104950000080008011180E18000000000000000008
:104960000200020004000400090009001100110007
:104970001FC0010001180118000000000000000025
:104980001F801000100010001E0001000080008039
:104990000080008011180E180000000000000000C8
:1049A00002000400080008001000170018801080A2
:1049B0001080108010980F18000000000000000008
:1049C0001FC00040008000800100010002000200C2
:1049D000020002000218021800000000000000009F
:1049E0000F00108010801080090006000900108060
:1049F0001080108010980F180000000000000000C8
:104A00000F00108010801080108011800E800080B8
:104A1000010001000218041800000000000000005E
:104A200023C06420A4202420242024202420242007
:104A300024202420242C23CC0000000000000000AF
:104A400020806180A28020802080208020802080A3
:104A500020802080208C208C0000000000000000BE
:104A600023C06420A020202020202040208021007E
:104A700022002400240C27EC0000000000000000AD
:104A800027E06020A040208021802040202020209E
:104A900020202020244C238C000000000000000077
:104AA00020806080A1002100224022402440244038
:104AB00027F02040204C204C0000000000000000A7
:104AC00027E06400A400240027802040202020202C
:104AD00020202020244C238C000000000000000037
:104AE00020806100A2002200240025C0262024206E
:104AF00024202420242C23CC0000000000000000EF
:104B000027F06010A020202020402040208020801E
:104B100020802080208C208C0000000000000000FD
:104B200023C06420A420242022402180224024206D
:104B300024202420242C23CC0000000000000000AE
:104B400023C06420A42024202420246023A020202B
:104B500020402040208C210C0000000000000000BC
:104B600038E045100510051005100910111021102E
:104B70002110411041167CE60000000000000000FA
:104B80001010200841044304850281028102810241
:104B90008102810281028102410441042008101037
:104BA000101020084784484480428042804280821E
:104BB000810282028402880248044FC42008101037
:104BC000101020084FC440448082810283028082FA
:104BD000804280428042804248844704200810106E
:104BE00010102008410441048202820284828482DF
:104BF000888288828FE2808240844084200810105E
:104C00001010200847E44404840284028782804212
:104C10008022802280228022444443842008101075
:104C200010102008410442048402840288028B820E
:104C30008C428842884288424844478420081010A9
:104C4000101020084FE440248042804280828082FD
:104C50008102810281028102410441042008101076
:104C60001010200847844844884288428482830286
:104C70008482884288428842484447842008101031
:104C80001010200843C44424842284228422846295
:104C900083A2802280428042408441042008101078
:104CA0001010200848E45914A91289128912891297
:104CB0008912891289128912491448E420081010B7
:104CC0001010200848245864A8A28822882288222C
:104CD000882288228822882248244824200810100C
:104CE0001010200848E45914A8128812881288224B
:104CF0008842888288828902490449F42008101079
:104D0000101020084BF45814A822884288C2882228
:104D100088128812881288124A2449C42008101068
:104D20001010200848445844A88288828922892289
:104D30008A228A228BFA88224824482420081010CC
:104D4000101020084BF45A04AA028A028BC288224F
:104D500088128812881288124A2449C42008101028
:104D60001010200848445884A90289028A028AE265
:104D70008B128A128A128A124A1449E420081010EF
:104D8000101020084BF45814A82288228842884228
:104D9000888288828882888248844884200810100B
:104DA0001010200849E45A14AA128A12892288C2D3
:104DB00089228A128A128A124A1449E420081010A1
:104DC0001010200849E45A14AA128A128A128A3250
:104DD00089D28812882288224844488420081010EA
:104DE000101020084C645294829282928292849293
:104DF000849288929092909250945E642008101051
:104E000007C0183020084104430485028102810252
:104E100081028102410441042008183007C00000CB
:104E200007C0183020084384444480428042808276
:104E300081028202440447C42008183007C00000E1
:104E400007C01830200847C4404480828102830292
:104E500080828042444443842008183007C0000008
:104E600007C01830200841044204820284828482F0
:104E700088828FE2408440842008183007C00000F8
:104E800007C01830200847C4440484028782804247
:104E900080428042488447042008183007C0000040
:104EA00007C018302008410442048202840285822F
:104EB00086428442444443842008183007C00000DE
:104EC00007C01830200847C4404480828082810295
:104ED00081028102410441042008183007C000000B
:104EE00007C01830200843844444844284428382AB
:104EF00084428442444443842008183007C00000A0
:104F000007C018302008438444448442844283C24A
:104F100080428082410442042008183007C000000B
:104F200007C01830200849C45A24AA228A228A229B
:104F30008A228A224A2449C42008183007C0000067
:104F400000000000000001C00630081008003FE02B
:104F50003FE0180008000C1003E000000000000013
:104F60000000000000000000000000000000000041
:104F70000000000000000000000000000000000031
:104F80001010200840044004800280028002BFFA12
:104F90008002800280028002400440042008101039
:104FA00010102008400440049FF28002800280021A
:104FB00080028002BFFA80024004400420081010E2
:104FC0001010200840045FF48002800280028FE20B
:104FD000800280028002BFFA4004400420081010C2
:104FE00010102008400440049FF2929292929292F4
:104FF0009472981290129FF25014400420081010DE
:105000001010200840044FE48102810281028FE2E7
:1050100082228222822282225FFC40042008101019
:10502000101020084004420481028002BFFA80026E
:1050300080028442842288125014400420081010F8
:10504000101020084204420482028202820283F28B
:10505000BE02820282228222422441E420081010F1
:105060001010200840844484848284828482844294
:1050700084428822882290124004400420081010A4
:10508000101020084204420482029FC282428242DF
:1050900082428442844A884A503C400420081010CE
:1050A0001010200841044104810281028102BFFAEC
:1050B0008102810281028102410440042008101013
:1050C00000000000000000000000000000000000E0
:1050D00000000000000000000000000000000000D0
:1050E00000000000000000000000000000000000C0
:1050F00000000000000000000000000000000000B0
:105100000000038001000100010001000100010016
:105110000100010001000100010001000380000006
:1051200000000EE0044004400440044004400440F9
:105130000440044004400440044004400EE00000E9
:1051400000003BB8111011101110111011101110A6
:105150001110111011101110111011103BB8000096
:105160000000771C2208220822082110211021109B
:10517000211020A020A020A020A0204070400000EE
:105180000000701C200810101010082008200820B3
:10519000044004400440028002800100010000003D
:1051A000000071DC2088208820881108110811086F
:1051B00011080A080A080A080A080408041C000062
:1051C0000000E3FE412441244124222422242224FD
:1051D000222414241424142414240824087E0000F7
:1051E0000000E3FE415441544154225422542254BD
:1051F00022541454145414541454085408FE000037
:105200000000771C22082110211020A020A020409F
:10521000204020A020A0211021102208771C00008F
:105220000000701C200810100820044002800100BB
:10523000028004400440082010102008701C000068
:105240000000E39C410822082208140814080808FA
:10525000080814081408220822084108E39C0000EA
:105260000000E3BE41142214221414141414081470
:10527000081414141414221422144114E3BE000060
:10528000000000000000000000000000000000001E
:10529000000000000000000000000000000000000E
:1052A00000000000000000000000000000000000FE
:1052B00000000000000000000000000000000000EE
:1052C000000010001000100010001000100010006E
:1052D000100010000000000010001000000000008E
:1052E00000000CC00CC00CC008800880000000004A
:1052F00000000000000000000000000000000000AE
:10530000000002200220022002203FFC0440044052
:10531000044004403FFC08800880088008800000AA
:10532000000000001010082004400280010001006D
:1053300001000FE001000100010001000100000078
:10534000000018042408241024202440248019007C
:10535000026004900890109020904090006000003F
:105360000000060009001080108009000A000400F7
:105370000A001270212020A0204011A00E10000071
:105380000000380038003800100010001000000045
:10539000000000000000000000000000000000000D
:1053A00000000008001000200020004000400040E5
:1053B00000400040004000200020001000080000D5
:1053C0000000200010000800080004000400040091
:1053D0000400040004000800080010002000000081
:1053E00000000000010001000100010031180D6003
:1053F000038002800440082010100000000000001C
:1054000000000000010001000100010001003FF860
:105410000100010001000100010000000000000087
:10542000000000000000000000000000000000007C
:1054300000000000000030003000100020000000DC
:1054400000000000000000000000000000001FF04D
:10545000000000000000000000000000000000004C
:10546000000000000000000000000000000000003C
:1054700000000000000000003000300000000000CC
:10548000000000020004000800100020004000801E
:10549000010002000400080010002000400000008D
:1054A00007C008201010101010101010101010104D
:1054B00010101010082007C00000000000000000BD
:1054C00001000300050001000100010001000100CE
:1054D00001000100010001000000000000000000C8
:1054E00007800840102000200020004000800100BC
:1054F0000200040008001FF000000000000000008F
:105500000FF000200040008001C0002000100010BB
:1055100000100010082007C000000000000000007C
:1055200002000200040004800880088010801080BF
:105530003FF00080008000800000000000000000BC
:105540001FC01000100010001F000080004000402D
:105550000040004010800F0000000000000000002C
:10556000008001000200040008000F80104010209D
:1055700010201020084007800000000000000000FC
:105580001FF00020004000800080010001000200A8
:105590000200020002000200000000000000000003
:1055A0000780084010201020084007800840102085
:1055B00010201020084007800000000000000000BC
:1055C00007800840102010201020082007C000404D
:1055D0000080010002000400000000000000000044
:1055E00000000000000000000000000000000000BB
:1055F00000003000300000003000300000000000EB
:10560000000000000000000000000000000000009A
:10561000300030000000300030001000200000009A
:105620000000000C003000C003000C003000C0007F
:1056300030000C00030000C00030000C000000002F
:105640000000000000000000000000003FF8000023
:1056500000003FF800000000000000000000000013
:1056600000006000180006000180006000180006BD
:1056700000180060018006001800600000000000B3
:1056800000000E00110021803180318003000600EF
:1056900006000600060000000600060000000000EC
:1056A00000001FE0201000080E8811882088208844
:1056B0002088208811900E6000000000000000008B
:1056C00000000100028002800440044008200FE036
:1056D000101010102008701C0000000000000000D6
:1056E00000001FE008100810081008200FC0082054
:1056F0000810081008101FE0000000000000000063
:10570000000007C00820101010001000100010004A
:1057100010001010082007C000000000000000006A
:1057200000003FC0102010101010101010101010AA
:105730001010101010203FC00000000000000000FA
:1057400000003FF010101010100010801F8010801B
:105750001000101010103FF00000000000000000CA
:1057600000003FF010101010100010401FC010403B
:1057700010001000100038000000000000000000C1
:10578000000007D008301010100010001000107832
:1057900010101010083007D00000000000000000BA
:1057A0000000387010201020102010201FE0102062
:1057B00010201020102038700000000000000000B1
:1057C0000000038001000100010001000100010050
:1057D0000100010001000380000000000000000043
:1057E0000000038001000100010001000100010030
:1057F0000100110011000E00000000000000000078
:1058000000001C700840088009000A000E00090012
:105810000880084008201C3800000000000000003C
:1058200000003800100010001000100010001000E0
:105830001000100010203FE00000000000000000F9
:10584000000030181830145014501290129011109B
:105850001110101010103838000000000000000077
:105860000000307018201420142012201120112064
:1058700010A010A010603820000000000000000000
:105880000000078008401020201020102010201059
:1058900020101020084007800000000000000000D9
:1058A00000003FC010201010101010201FC010006A
:1058B0001000100010003800000000000000000080
:1058C0000000078008401020201020102010201019
:1058D000201011A0084007A00018000000000000E0
:1058E00000003FC010201010101010201FC0120028
:1058F000110010801040383000000000000000004F
:10590000000007D0083010101000080007C0002069
:1059100000101010182017C0000000000000000048
:1059200000003FF8210821080100010001000100EA
:1059300001000100010003800000000000000000E1
:10594000000038701020102010201020102010208F
:105950001020102008400780000000000000000018
:105960000000701C200810101010082008200440AF
:1059700004400280028001000000000000000000DE
:105980000000739C2108210821082288129012909F
:1059900014501450082008200000000000000000EF
:1059A00000003838082004400440028001000280D2
:1059B00004400440082038380000000000000000C7
:1059C0000000383810100820044004400280010014
:1059D0000100010001000380000000000000000041
:1059E00000001FF010201040008000800100020025
:1059F0000200041008101FF000000000000000006A
:105A00000000001C0010001000100010001000101A
:105A1000001000100010001000100010001C00000A
:105A200000004000200010000800040002000100F7
:105A30000080004000200010000800040002000068
:105A400000003800080008000800080008000800EE
:105A500008000800080008000800080038000000DE
:105A60000000010002800440082000000000000047
:105A70000000000000000000000000000000000026
:105A80000000000000000000000000000000000016
:105A900000000000000000000000000000007FFC8B
:105AA000000000200020002000100010000800006E
:105AB00000000000000000000000000000000000E6
:105AC00000000000000000000F80104000400FC0E8
:105AD0001040104010400FA0000000000000000027
:105AE00008000800080008000B800C40082008206F
:105AF000082008200C400B8000000000000000007F
:105B0000000000000000000007C008201000100086
:105B100010001000082007C0000000000000000076
:105B2000002000200020002003A00460082008209E
:105B300008200820046003A000000000000000000E
:105B400000000000000000000380044008200FE077
:105B500008000800042003C000000000000000004E
:105B6000000000C0012001200100010007C0010069
:105B7000010001000100010001000100010000001E
:105B8000000000000000000003A0046008200820BE
:105B90000820046003A000200020084007800000C7
:105BA000080008000800080009C00A200C2008208E
:105BB0000820082008200820000000000000000045
:105BC00001000100000000000700010001000100C9
:105BD00001000100010001000000000000000000C1
:105BE00001000100000000000700010001000100A9
:105BF0000100010001000100010009000600000091
:105C000000000800080008000840088009000A0099
:105C10000D0008800840082000000000000000007F
:105C2000010001000100010001000100010001006C
:105C300001000100012000E0000000000000000061
:105C400000000000000000001AC00D2009200920FB
:105C500009200920092009200000000000000000A0
:105C600000000000000000000B000C80088008808D
:105C70000880088008800880000000000000000004
:105C800000000000000000000380044008200820FD
:105C900008200820044003800000000000000000ED
:105CA00000000000000000001B800C4008200820BD
:105CB000082008200C400B800800080008000000A5
:105CC000000000000000000003A00460082008207D
:105CD00008200820046003A00020002000300000FD
:105CE00000000000000000000580024002000200E9
:105CF000020002000200020000000000000000009C
:105D000000000000000000000780084008000600B6
:105D100001800040084007800000000000000000F3
:105D2000010001000100010007C0010001000100A5
:105D300001000100014000800000000000000000A0
:105D400000000000000000000C400440044004403B
:105D50000440044004C003400000000000000000B4
:105D6000000000000000000008200820044004405B
:105D7000028002800100010000000000000000001D
:105D80000000000000000000111011101110092087
:105D90000AA00AA004400440000000000000000027
:105DA0000000000000000000000008200440028005
:105DB00001000280044008200000000000000000F4
:105DC00000000000000000000820044004400280A1
:105DD000028001000100020002000400080000002F
:105DE00000000000000000000FC000400080010023
:105DF0000200040008000FC00000000000000000C6
:105E00000004000800080008000800080010002036
:105E10000010000800080008000800080004000046
:105E2000000001000100010001000100010001006B
:105E3000010001000100010001000100010000005B
:105E400020001000100010001000100008000400D6
:105E500008001000100010001000100020000000CA
:105E6000FFFE000000000000000000000000000035
:105E70000000000000000000000000000000000022
:105E80000000000000000400040005F03E00044093
:105E900007E00C901488230822082510182000C061
:105EA00004000400046007807C00044004401FF0EC
:105EB0002488448445044204260419080030000064
:105EC0000000000000000000000010000800082092
:105ED00008100808081809100A0006000000000051
:105EE0000000000000002000100010101028100416
:105EF000100220022106220414000C000000000001
:105F000000000800070000800100000011C00E2002
:105F10000020002000400040008003000C00000032
:105F20000800078000400180000021E01E100010E2
:105F3000001000100020002000C001000E00000032
:105F4000000000000400030000800100000003C006
:105F50001C800100030004800880104020380000ED
:105F60000800070000800100000003C03C80010021
:105F7000020003000480048008801040203C0000E0
:105F80000000000000000400040004083F040402B4
:105F900005E406100C0814083408153008C0000089
:105FA00000000400040807843C02040C040005F00F
:105FB00006081C042404640435180CE004000000E6
:105FC0000000020002000200021023881C44044268
:105FD000044204440840084010802480430000002C
:105FE00000080404041204080424471038880884B4
:105FF0000884088810901080210049008600000065
:1060000002000200026003801D0000E003801C40CB
:10601000004003E0002010001000080007C000004E
:106020000400040804C407123A0801C407003880B9
:10603000008007C000402000200010000F800000FA
:106040000000010000800080010002000400080040
:106050001000080004000200010000800080000021
:1060600000000108008400920108020404000800F6
:106070001000080004000200010000800080000001
:10608000000020801040104010402040207C47C07D
:10609000404040405040504060402080010000009F
:1060A000000820841052104810442040207C47C033
:1060B000404040405040504060402080010000007F
:1060C0000000000010000FE000800300040000004A
:1060D00020002000200010100FF800000000000039
:1060E0000000000810040FD2008803040400000020
:1060F00020002000200010100FF800000000000019
:1061000000000400023002C03F0001000080004097
:1061100001E00820100010001000080007E0000057
:1061200000000408020402D23F080104008000407D
:1061300001E00820100010001000080007E0000037
:1061400000002000100010001000100010001000CF
:1061500010001000101010201040098006000000F0
:10616000000020101008102410101008100010005B
:1061700010001000101010201040098006000000D0
:1061800000000300010041003FF801000700098002
:1061900009400940064000400080008001000600E0
:1061A00003080124011241083FF0010007000980A3
:1061B00009400940064000400080008001000600C0
:1061C000000000801040084008400BFC7C40084064
:1061D00008400A40094008800800080007F0000055
:1061E000000800841052084808440BF07C40084026
:1061F00008400A40094008800800080007F0000035
:10620000000011800E4000800100061018F87F0089
:106210000200040004000400020001F0000000007D
:10622000000811A40E5200880100061018F87F0023
:106230000200040004000400020001F0000000005D
:1062400000000400040047003C0009E0083008405A
:106250001000100012002200210840FC0000000085
:1062600000080404041247083C0409E00830084010
:106270001000100012002200210840FC0000000065
:10628000000004000400050007807C0008000BC02B
:106290000C201810101000100020002000C0030077
:1062A000000004080404051207887C0408000BC0E1
:1062B0000C201810101000100020002000C0030057
:1062C000000000000000000000000000000000C00E
:1062D0001F20081000100010002000400180000066
:1062E00000000000000001E0061078082008000807
:1062F000000800100010002000C00700000000008F
:1063000000080004001203C80C24F0104010001014
:10631000001000200020004001800E00000000005E
:10632000000000000000000800FC7FC02100020007
:1063300004000400040004000400020001F0000056
:10634000000000000000000800FC7FC021080204DB
:1063500004120408040404000400020001F0000018
:10636000000000000200010001000120013001C016
:1063700007000800100010001000080007F00000DF
:10638000000800040212010801040120013001C0CC
:1063900007000800100010001000080007F00000BF
:1063A000000004000410040807843C0404080820CA
:1063B00008201020104023E04450044803840000CB
:1063C00000002000100010F813082010200020000A
:1063D000400040004A005200510820FC200000000C
:1063E000000002000200110011F013081504190446
:1063F00011042A042A68449844944A623202000034
:10640000000008000800080008603E9009080A081B
:106410000C081808281048F04918292418C2000050
:1064200000000000000007C01930210842044204A7
:1064300042044404440828081010002000C0000052
:106440000000208010401040144023F820402040DD
:1064500040404840484053C0547064482384000082
:106460000008208410521048144423F0204020409B
:1064700040404840484053C0547064482384000062
:10648000000C20921052104C144023F02040204069
:1064900040404840484053C0547064482384000042
:1064A0000000000002003E200420083008281024CC
:1064B0001020202020402040204010800F000000AD
:1064C0000008000402123E080424083008281024A2
:1064D0001020202020402040204010800F0000008D
:1064E000000C001202123E0C042008300828102470
:1064F0001020202020402040204010800F0000006D
:1065000000000300008000C0010002000200010042
:1065100000E003980484448C588026800100000029
:1065200000080304009200C80104020002000100F8
:1065300000E003980484448C588026800100000009
:10654000000C0312009200CC0100020002000100C6
:1065500000E003980484448C5880268001000000E9
:1065600000000000000000000600098010406020CC
:1065700000180006000000000000000000000000FD
:106580000000000800040012060809841040602082
:1065900000180006000000000000000000000000DD
:1065A0000000001800240024061809801040602014
:1065B00000180006000000000000000000000000BD
:1065C0000000207013C010401040244023F82040E9
:1065D00040404840484053C0547064482384000001
:1065E0000008206413C210481044244023F82040BF
:1065F00040404840484053C05470644823840000E1
:106600000000206C13D21052104C244023F820407C
:1066100040404840484053C05470644823840000C0
:106620000000010021001FF00120010011000FE017
:106630000100010001001D0023C021301E080000E0
:106640000000000013000C80008000800100011099
:1066500001101A2027A044704848304400800100EF
:10666000000008000400048007C07C0804041C0229
:106670002606260816000C100810081807F000005F
:10668000000001002080108010801FC01120291000
:1066900045084208450848103010002000C000009E
:1066A000020002000200020023C01E0004100408C1
:1066B00044C83F08040804080408040803F0000064
:1066C000000000000000030000800080090024702A
:1066D0001F88020802100160010000800080004055
:1066E000000002000180004000400980103011C805
:1066F0007E04080408880470020002000100008083
:1067000000000000000001000080108011E01290E5
:106710002488248828882A88319010E0010002000B
:10672000000000801040104011F012482244244420
:106730002442244228422A44315810E000800300B9
:1067400000000000000002000100012001F0010033
:106750000100010001000FC0113011080E040000FB
:1067600000000200010001000110013801C0010019
:10677000010001001F0021C0413042083C0400001C
:1067800000001800040002000200040008001000CD
:1067900010E01310140818080008003000C00300AF
:1067A00000001000088009400A200A200A200C205E
:1067B0000C200820084000400080008001000200FA
:1067C0000000004007A0042000400080010002F00B
:1067D00007080804000401840244024801F0000094
:1067E00000000800080008C00EA079200A200C2034
:1067F0000840184028402842684218240818000021
:10680000000003C01C4000800100020004E00F10E3
:106810001808200800080010001000600180000027
:106820000000000008000400040007003CF0070816
:106830000C081408240834100C2004C000000000C8
:1068400000001000080008000F0078000BE00C1892
:106850000804180428044804680818100860000098
:1068600000000000078018800080008007E008908A
:1068700010882104410442642494188800700000A8
:1068800000000F800080010007E008101010039046
:1068900004A003C002000400183826442188000028
:1068A00000000200011011E00F00010801880250F1
:1068B0000450046008C001400240020001F80000DA
:1068C00000000300010001000100020002000200BC
:1068D000038006400440044008480870100000008F
:1068E00000000000000000000000000000000000A8
:1068F0000000000000000000000000000000000098
:106900000000000000000000000000000000000087
:106910000000000000000000000000000000000077
:106920000000000000000000000000000000000067
:106930000000000000000000000000000000000057
:106940000000000000000000000000000000000047
:106950000000000000000000000000000000000037
:106960000000000000000000000000000000000027
:106970000000000000000000000000000000000017
:106980000000000000000000000000000000000007
:1069900000000000000000000000000000000000F7
:1069A00000000000000000000000000000000000E7
:1069B00000000000000000000000000000000000D7
:1069C00000000000000000000000000000000000C7
:1069D00000000000000000000000000000000000B7
:1069E00000000000000000000000000000000000A7
:1069F0000000000000000000000000000000000097
:106A00000000000000000000000000000000000086
:106A10000000000000000000000000000000000076
:106A20000000000000000000000000000000000066
:106A30000000000000000000000000000000000056
:106A400000000000000000001FF000100260018044
:106A50000100010001000200020004000800000023
:106A6000000000003FF800080010002002C00100F4
:106A70000100010001000200020004000800000003
:106A80000000000000000040004000800100030002
:106A900005000900110001000100010001000000D3
:106AA000000000400040008000800100030005005D
:106AB0000900110021000100010001000100010096
:106AC000000000000100010011101FF8101010104C
:106AD0001020002000400040008003000C00000057
:106AE00000000100010021083FFC200820082010C0
:106AF0000010002000200040008003000C00000077
:106B000000000000000000201FF001000100010053
:106B1000010001103FF8000000000000000000002C
:106B200000000000000000103FF80100010001001B
:106B30000100010001087FFC0000000000000000CF
:106B4000000000000100010001103FF803000500F3
:106B500009001100210001000500020000000000F2
:106B6000000000800080008000887FFC00800180A1
:106B70000280048008801080208042800100000094
:106B8000000002000200020002203FF0022002206A
:106B900004200420082008201040214040800000EC
:106BA000000802040212020802243FF00220022020
:106BB00004200420082008201040214040800000CC
:106BC000000010001000080004E03F000200020076
:106BD00001703F8000800040004000200010000055
:106BE000000810041012080804E43F00020002002C
:106BF00001703F8000800040004000200010000035
:106C0000000002000200021003F804100420082013
:106C1000104020400080010002000C003000000005
:106C2000000804040412040807E408200840104087
:106C30002080408001000200040018006000000075
:106C400000000800080008100FF8104020404080A5
:106C50000080010001000200040008003000000074
:106C600000080804081208080FF410402040408073
:106C70000080010001000200040008003000000054
:106C800000000000000000101FF8001000100010AD
:106C9000002000201FF000000000000000000000A5
:106CA000000800040012000800243FF0002000202B
:106CB000002000403FE00000000000000000000055
:106CC0000000004004400440044004487FFC0440AD
:106CD00004400440044004800080010002000000E1
:106CE00000080004005204480444044004487FFCA7
:106CF000044004400440044004800080010002007D
:106D000000000000180004000200300808100420F1
:106D10000040008001000200240018000000000074
:106D200000080004001218080404020030080810CB
:106D30000420004000800100020024001800000030
:106D40000000000000003FE0002000400040008004
:106D500001000280044008201018200800000000F4
:106D600000080004001200083FE40020004000403A
:106D70000080010002800440082010182008000054
:106D80000000040004000400040007E07C2004402C
:106D90000480040004000400042003F0000000004C
:106DA0000008040404120408040407E07C200440E2
:106DB0000480040004000400042003F0000000002C
:106DC0000000000000200010101008100420062011
:106DD000024000400080010002000C003000000072
:106DE0000008000400120048002420201020084061
:106DF0000C400480008001000200040018006000C4
:106E000000000400042007F004200820084010407F
:106E1000248002800100028004401800600000000D
:106E20000008080408520FE8084410401080208031
:106E3000490005000200050008003000C000000005
:106E40000000002001F01F00010001087FFC01008C
:106E5000010002000200040004000800100000000D
:106E600000080004005203E83E0402000210FFF88C
:106E700002000200040004000800080010002000C6
:106E80000000000000000000040003102110181092
:106E900008200020004000800100060018000000CB
:106EA000000000000400021021101110082008202A
:106EB00000400080010002000400080030000000D3
:106EC0000008000408120428422422201040104028
:106ED00000800100020004000800100060000000B3
:106EE000000000201FF00000000000087FFC0100EF
:106EF000010002000200040004000800100020004D
:106F00000008000400523FE8000400000010FFF8F1
:106F10000200020004000400080008001000200025
:106F2000000004000400040004000600050004C082
:106F300004600420040004000400040004000000B5
:106F4000000804040412040804040600050004C038
:106F50000460042004000400040004000400000095
:106F6000000001000100010001087FFC0100010098
:106F700001000100020002000400040008000000FB
:106F8000000000000000000000201FF000000000D2
:106F9000000000087FFC000000000000000000006E
:106FA000000000101FF8001000200C2002400140DB
:106FB000008000C001300210040008003000000012
:106FC00002000180008000001FC00080010003005B
:106FD00005400930111021000100010001000000EE
:106FE0000000000000200020002000400040008041
:106FF00000800100010002000400080010000000F1
:1070000000000000000000000440022002100408FC
:1070100004080804100420044000000000000000E0
:1070200000080004001200080444022002100408B2
:1070300004080804100420044000000000000000C0
:107040000000000C00120012044C02200210040880
:1070500004080804100420044000000000000000A0
:1070600000000000080008000840086009800E00C9
:10707000080008000800082007F0000000000000D9
:1070800000080004001220082004210021802600AE
:10709000380020002000200020801FC000000000D9
:1070A0000000000C00122012200C2100218026007C
:1070B000380020002000200020801FC000000000B9
:1070C0000000000000207FF0002000400040008011
:1070D00000800100020004000800100020000000F1
:1070E00000080004001200487FE400400080008097
:1070F0000100010002000400080010002000000050
:107100000000000C001200527FEC00400080008064
:10711000010001000200040008001000200000002F
:1071200000000000000000000000180024004300E0
:1071300000C00030000E0000000000000000000051
:107140000008000400120008000418002400430096
:1071500000C00030000E0000000000000000000031
:107160000000000C00120012000C18002400430064
:1071700000C00030000E0000000000000000000011
:10718000000001000100010001087FFC0100010076
:107190000920091011082108010005000200000063
:1071A0000008010401120108010401007FFC010034
:1071B0000100112011102108410805000200000003
:1071C000000C01120112010C010001087FFC0100FA
:1071D00001001120111021084108050002000000E3
:1071E00000000000000000103FF800100020002008
:1071F00006400180008000400040000000000000C8
:10720000000000000E000180006000201C000380D0
:10721000008000001C00030000E0002000000000CF
:107220000000000000000100010001000200020057
:10723000040004400820081010F83F08100800005F
:107240000000000000400020002004200240014017
:1072500000800160022004000800100060000000AF
:107260000000004003E03E000200020803FC7E0034
:107270000200020002000200021001F800000000FB
:107280000000000000000000100008000800247842
:107290001F880210012001000080008000400000D3
:1072A0000000100010000800080044783F88021019
:1072B000022001000100008000800040002000004A
:1072C0000000000000000000000000200FF000207F
:1072D00000200020004000483FFC000000000000AB
:1072E0000000000000101FF8001000100010002027
:1072F000002000247FFE00000000000000000000CD
:107300000000000000000000000000101FF8001046
:1073100000101FF0001000101FF00010000000000F
:10732000000000103FF80010001000103FF00010A7
:10733000001000103FF000100000000000000000EE
:10734000000000400FE0000000103FF800100010A7
:10735000002000200040008001000600180000000E
:107360000000004004400440044004400440044045
:1073700004400440008000800100010002000C0075
:1073800000000000000000000480048004800480ED
:1073900004840888089010A020C0408000000000ED
:1073A000000000000000200010001010102010400D
:1073B00010801100120014001800100000000000DE
:1073C0000000000010201FF01020102010201020BE
:1073D000104010401FE010000000000000000000FE
:1073E0000000000010201FF010201020002000409E
:1073F00000400080010002000400000000000000C6
:107400000000000020103FF8201020100010002085
:107410000020004000400080010002000400000045
:1074200000000100010001401FE0090009000900FF
:1074300009087FFC010001000100010001000000BB
:107440000000000000001FE0004002800100010079
:10745000010001087FFC00000000000000000000A7
:107460000000000000101FF8001000103FFC00108A
:1074700000200020004000400080010006000000C5
:107480000000000010000804060802100020004060
:10749000008001000200240018000000000000002D
:1074A00000080204021222483FE42040204000402D
:1074B00000800080010001000200040008000000BC
:1074C000000000000100010001200FF00120022057
:1074D0000220022004400540088000000000000057
:1074E0000000000004000400044007E00880108051
:1074F000010001000200040008000000000000007C
:10750000000000000000000000000000000000007B
:10751000000000000000000000000000000000006B
:10752000000000000000000000000000000000005B
:10753000000000000000000000000000000000004B
:10754000000000000000000000000000000000003B
:10755000000000000000000000000000000000002B
:10756000000000000000000000000000000000001B
:10757000000000000000000000000000000000000B
:1075800000000000000000000000000000000000FB
:1075900000000000000000000000000000000000EB
:1075A00000000000000000000000000000000000DB
:1075B00000000000000000000000000000000000CB
:1075C00000000000000000000000000000000000BB
:1075D00000000000000000000000000000000000AB
:1075E000000000000000000000000000000000009B
:1075F000000000000000000000000000000000008B
:1076000000000100028002800440044008200FE0D6
:10761000101010102008701C000000000000000076
:1076200000001FE008100810081008200FC00820F4
:107630000810081008101FE0000000000000000003
:1076400000003FF01010101010001000100010008B
:1076500010001000100038000000000000000000C2
:10766000000001000280028004400440082008203D
:107670001010101020087FFC000000000000000027
:1076800000003FF010101010100010801F801080BC
:107690001000101010103FF000000000000000006B
:1076A00000001FF000200040008000800100020068
:1076B0000200040008001FF00000000000000000AD
:1076C0000000387010201020102010201FE0102023
:1076D0001020102010203870000000000000000072
:1076E000000003800C6010101010244827C82448A4
:1076F000101010100C60038000000000000000005B
:1077000000000380010001000100010001000100F0
:1077100001000100010003800000000000000000E3
:1077200000001C700840088009000A000E000900D3
:107730000880084008201C380000000000000000FD
:10774000000001000280028004400440082008205C
:10775000101010102008701C000000000000000035
:10776000000030181830145014501290129011105C
:107770001110101010103838000000000000000038
:107780000000307018201420142012201120112025
:1077900010A010A0106038200000000000000000C1
:1077A00000003FF020102010000008400FC00840EB
:1077B0000000201020103FF000000000000000003A
:1077C000000003800C601010101020082008200812
:1077D000101010100C60038000000000000000007A
:1077E00000003FF01020102010201020102010204A
:1077F0001020102010203870000000000000000051
:1078000000003FC010201010101010201FC01000EA
:107810001000100010003800000000000000000000
:1078200000003FF0101008100400020001000200E8
:107830000400081010103FF00000000000000000DD
:1078400000003FF8210821080100010001000100AB
:1078500001000100010003800000000000000000A2
:107860000000004006A00900010001000100010025
:107870000100010001000380000000000000000082
:107880000000038001000FE01110210821082108E9
:1078900011100FE001000380000000000000000054
:1078A00000003838082004400440028001000280B3
:1078B00004400440082038380000000000000000A8
:1078C00000004384210811101110111011100FE055
:1078D0000100010001000380000000000000000022
:1078E00000000780084010202010201020102010D9
:1078F0001020084024903CF0000000000000000030
:107900000000000000000000000000000000000077
:107910000000000000000000000000000000000067
:107920000000000000000000000000000000000057
:107930000000000000000000000000000000000047
:107940000000000000000000000000000000000037
:107950000000000000000000000000000000000027
:107960000000000000000000000000000000000017
:107970000000000000000000000000000000000007
:1079800000000000000000000000000000000000F7
:1079900000000000000000000000000000000000E7
:1079A00000000000000000000000000000000000D7
:1079B00000000000000000000000000000000000C7
:1079C00000000000000000000000000000000000B7
:1079D00000000000000000000000000000000000A7
:1079E0000000000000000000000000000000000097
:1079F0000000000000000000000000000000000087
:107A0000000000000000076008C010401040104057
:107A10001040104008C007300000000000000000C7
:107A2000000007800840084008800F0008C00820B8
:107A3000082008200C400B80080008000800000007
:107A40000000000000000C10122022200140014024
:107A5000018001000100010001000100010000009F
:107A6000000003800440020001000280044008205E
:107A700008200820044003800000000000000000EF
:107A800000000000000003800440040002000180A8
:107A90000200040004400380000000000000000019
:107AA000000002000400044003C0020004000800BB
:107AB00008000800040003C00020002003C00000EC
:107AC0000000000000000DC0162014200420042037
:107AD00004200420042004200020002000200000B6
:107AE0000000038004400820082008200FE0082040
:107AF000082008200440038000000000000000006F
:107B0000000000000000030001000100010001006E
:107B100001000100014001800000000000000000A1
:107B20000000000000001830084008800D000A0026
:107B30000900088008401C700000000000000000E0
:107B4000000004000A0001000100010001000280A1
:107B500002800440045008200000000000000000E3
:107B600000000000000008400840084008400840AD
:107B7000084008400CD00B20080008000800000056
:107B80000000000000001820081008200820044011
:107B9000044002800280010000000000000000009C
:107BA00000000400080007800800080007800400A7
:107BB00008000800080007C00020042003C00000DF
:107BC0000000000000000780084010201020102056
:107BD0001020102008400780000000000000000076
:107BE0000000000000001FF824400440044004404E
:107BF0000440044008501020000000000000000075
:107C00000000000000000780084010201020102015
:107C100010201820144013801000100010000000E5
:107C200000000000000007F808401020102010207D
:107C30001020102008400780000000000000000015
:107C400000000000000007C0090001000100010061
:107C50000100010001400080000000000000000061
:107C6000000000000000084014200420042004202C
:107C700004200420042003C00000000000000000D5
:107C800000000100010007C009201110111011109F
:107C900011101110092007C00100010001000000AF
:107CA00000000000000008101420042002400280A0
:107CB00001000100028004800840085010200000EC
:107CC000000001000100114029200920092009209D
:107CD00009200920092007C001000100010000005F
:107CE00000000000000004400820101011101110C6
:107CF000111011100AA00440000000000000000054
:107D000000000000000000300030001000200000E3
:107D10000000000000000000000000000000000063
:107D20000000000000000030004800480030000063
:107D30000000000000000000000000000000000043
:107D40000000000000400020003000100000000093
:107D50000000000000000000000000000000000023
:107D600000000000000000000030003000000000B3
:107D700000000030003000000000000000000000A3
:107D80000000000000000030003000000030003033
:107D900000100020000000000000000000000000B3
:107DA00000000000000000300030003000300030E3
:107DB0000030003000000000003000300000000003
:107DC0000000000000700088010C018C018C00187C
:107DD0000030003000300030000000300030000083
:107DE0000000000000000000000000000000000093
:107DF000000007C018302008400400000000000008
:107E000000000000000040042008183007C00000F7
:107E10000000000000000000000000000000000062
:107E20000000000000000000000000000000000052
:107E3000000000001FF020084004000000000000C7
:107E4000000000000000400420081FF000000000B7
:107E50000000000000000000000000000000000022
:107E60000000000000000000000000000000000012
:107E700000000000010006C01830600C0000000087
:107E800000000000600C183006C001000000000077
:107E900000000000000000000000000000000000E2
:107EA00000000000000000000000000000000100D1
:107EB00006C01830610C06C01830600C00000000CD
:107EC00000000000600C183006C0610C183006C0BD
:107ED00001000000000000000000000000000000A1
:107EE0000000000000000000000000000000000092
:107EF000000000007FFC00040004000400000000FB
:107F0000000000004000400040007FFC0000000036
:107F10000000000000000000000000000000000061
:107F20000000000000000000000000000000000051
:107F300000007FFC40047FF40014001C00000000DF
:107F400000000000700050005FFC40047FFC000057
:107F50000000000000000000000000000000000021
:107F60000000000000000000000000000000000011
:107F70007FFC400447C45834600C400400000000FB
:107F8000000000004004600C583447C440047FFCEB
:107F900000000000000000000000000000000000E1
:107FA00000000000000000000000000000000000D1
:107FB0007FFC7FFC7FFC783C600C400400000000EC
:107FC000000000004004600C783C7FFC7FFC7FFCDC
:107FD00000000000000000000000000000000000A1
:107FE0000000000000000000000000000000000091
:107FF0000000010002803C78400400000000000006
:1080000000000000000040043C78028001000000F5
:108010000000000000000000000000000000000060
:108020000100010001000100010001000100010048
:108030000100010001000100010001000100010038
:10804000000001000100010000000000010001002B
:10805000010000000000010001000100000000001C
:108060000000010001000100010001000100010009
:1080700001000100010001000100010001000000F9
:1080800001000200020001000100020002000100E4
:1080900001000200020001000100020002000100D4
:1080A00000000000000000000000000000000000D0
:1080B00000000000000000000000000000000000C0
:1080C00000000000000000000000000000000000B0
:1080D00000000000000000000000000000000000A0
:1080E0000000000000000000000000000000000090
:1080F0000000000000000000000000000000000080
:10810000000000000000000000000000000000006F
:10811000000000000000000000000000000000005F
:10812000000000000000000000000000000000004F
:10813000000000000000000000000000000000003F
:10814000000000000000000000000000000000002F
:10815000000000000000000000000000000000001F
:10816000000000000000000000000000000000000F
:1081700000000000000000000000000000000000FF
:1081800000000000000000000000000000000000EF
:1081900000000000000000000000000000000000DF
:1081A00000000000000000000000000000000000CF
:1081B00000000000000000000000000000000000BF
:1081C00000000100028002800440044008200FE00B
:1081D000101010102008701C0000000000000000AB
:1081E00000001FF008100810080008000FC0082049
:1081F0000810081008101FE0000000000000000038
:1082000000001FE008100810081008200FC0082008
:108210000810081008101FE0000000000000000017
:1082200000003FF01010101010001000100010009F
:1082300010001000100038000000000000000000D6
:1082400000000FF002200220022002200220042061
:108250000420082010201FF0200820080000000043
:1082600000003FF010101010100010801F801080D0
:108270001000101010103FF000000000000000007F
:10828000044000003FF01010100010401FC01040CC
:108290001000100010103FF000000000000000006F
:1082A000000023885114092009200540038005405F
:1082B000092011101110638C000000000000000064
:1082C00000000BC00C2008100010002001C000208E
:1082D00010101010082007C000000000000000006F
:1082E00000003830106010A010A0112011201220C2
:1082F000142014201820307000000000000000003E
:108300000440044073982030205020902110221007
:108310002410281030106038000000000000000019
:108320000000386010901100110012001E001100B2
:1083300010801040104038300000000000000000A5
:1083400000001FF00820082008200820082008202E
:108350000820082028201070000000000000000005
:108360000000301818301450145012901290111050
:10837000111010101010383800000000000000002C
:108380000000387010201020102010201FE0102056
:1083900010201020102038700000000000000000A5
:1083A000000007800840102020102010201020100E
:1083B000201010200840078000000000000000008E
:1083C00000003FF01020102010201020102010205E
:1083D0001020102010203870000000000000000065
:1083E00000003FC010201010101010201FC01000FF
:1083F0001000100010003800000000000000000015
:10840000000007D0083010101000100010001000FD
:1084100010081010082007C0000000000000000035
:1084200000003FF8210821080100010001000100BF
:1084300001000100010003800000000000000000B6
:1084400000001C70082008200440044002800280C4
:1084500001000200240018000000000000000000DD
:108460000000038001000FE01110210821082108FD
:1084700011100FE001000380000000000000000068
:1084800000003838082004400440028001000280C7
:1084900004400440082038380000000000000000BC
:1084A0000000387010201020102010201020102004
:1084B0001020102010203FF00008000800000000ED
:1084C000000038701020102010201020086007A035
:1084D00000200020002000700000000000000000CC
:1084E00000003BB8111011101110111011101110D3
:1084F0001110111011103FF80000000000000000E2
:1085000000003BB8111011101110111011101110B2
:108510001110111011103FF80004000400000000B9
:1085200000003E0024000400040007E004100408DA
:108530000408040804100FE0000000000000000020
:10854000000070702020202020203C2022202120AC
:108550002120212022207C7000000000000000006B
:1085600000001C000800080008000FC008200810C8
:108570000810081008201FC00000000000000000C4
:1085800000002F80304020200010001007F0001065
:108590000010202010400F800000000000000000AC
:1085A000000071C022202410241024103C1024103C
:1085B00024102410222071C00000000000000000E0
:1085C000000007F0082010201020082007E00120FC
:1085D000022004200820307000000000000000008D
:1085E000000000000000000000000000000000008B
:1085F000000000000000000000000000000000007B
:10860000000000000000000000000000000000006A
:10861000000000000000000000000000000000005A
:10862000000000000000000000000000000000004A
:10863000000000000000000000000000000000003A
:10864000000000000000000000000000000000002A
:10865000000000000000000000000000000000001A
:10866000000000000000000000000000000000000A
:1086700000000000000000000000000000000000FA
:1086800000000000000000000000000000000000EA
:1086900000000000000000000000000000000000DA
:1086A00000000000000000000000000000000000CA
:1086B00000000000000000000000000000000000BA
:1086C00000000000000000000000000000000000AA
:1086D000000000000000000000000000000000009A
:1086E000000000000000000000000000000000008A
:1086F000000000000000000000000000000000007A
:108700000000000000000000000000000000000069
:108710000000000000000000000000000000000059
:108720000000000000000000000000000000000049
:108730000000000000000000000000000000000039
:108740000000000000000000000000000000000029
:108750000000000000000000000000000000000019
:108760000000000000000000000000000000000009
:1087700000000000000000000000000000000000F9
:1087800000000000000000000000000000000000E9
:1087900000000000000000000000000000000000D9
:1087A00000000000000000000000000000000000C9
:1087B00000000000000000000000000000000000B9
:1087C0000000000000000780084000400F4010C07B
:1087D0001040104008D007200000000000000000FA
:1087E000002007C00800100017801840102010203B
:1087F000102010200840078000000000000000004A
:108800000000000000001F800840084008400F8062
:108810000840084008401F800000000000000000E1
:108820000000000000001FE0082008000800080009
:108830000800080008001C00000000000000000004
:1088400000000000000007F00220022002200220A9
:108850000420042008201FF0200820080000000049
:1088600000000000000007800840102010201FE0DA
:1088700010001000082007C00000000000000000E9
:1088800000000480000007800840102010201FE036
:1088900010001000082007C00000000000000000C9
:1088A000000000000000339809200920054007C09F
:1088B000092009201110238800000000000000009A
:1088C0000000000000000BC00C200820002001C0A8
:1088D00000200020082007C0000000000000000069
:1088E00000000000000038701020106010A011205F
:1088F000122014201820307000000000000000003A
:1089000000000480030038701020106010A01120B7
:108910001220142018203070000000000000000019
:108920000000000000001C600880088009000E00A4
:108930000A00090008801C60000000000000000020
:108940000000000000000FF00220022002200220A0
:10895000022002200A200470000000000000000035
:108960000000000000003838101018301450129029
:1089700012901110101038380000000000000000A4
:108980000000000000001C700820082008200FE0F4
:108990000820082008201C700000000000000000D3
:1089A0000000000000000380044008200820082088
:1089B00008200820044003800000000000000000A0
:1089C0000000000000001FF00820082008200820F8
:1089D0000820082008201C70000000000000000093
:1089E0000000000000000B801C4008200820082028
:1089F00008200C400B800800080008001C00000044
:108A00000000000000000780084010401000100027
:108A10001000102008400780000000000000000047
:108A20000000000000001FF0111001000100010013
:108A300001000100010003800000000000000000B0
:108A40000000000000001C700820082004400440C2
:108A500002800280010002002400180000000000D3
:108A600000000100010001000D60139011101110B1
:108A70001110111013900D6001000100038000001F
:108A80000000000000001C7008200440028001006B
:108A90000280044008201C7000000000000000005C
:108AA0000000000000001C7008200820082008209A
:108AB0000820082008201FF000080008000000001F
:108AC0000000000000001CE008400840084007C00B
:108AD00000400040004000E00000000000000000F6
:108AE0000000000000003BB811101110111011100F
:108AF0001110111011103FF80000000000000000DC
:108B00000000000000003BB81110111011101110EE
:108B10001110111011103FF80004000400000000B3
:108B20000000000000007C004800080008000FC0A2
:108B30000820082008201FC00000000000000000DE
:108B400000000000000038701020102010201E20AF
:108B50001120112011203E700000000000000000D4
:108B60000000000000001C000800080008000FC002
:108B70000820082008201FC000000000000000009E
:108B8000000000000000078008400020002003E0F3
:108B900000200020084007800000000000000000C6
:108BA00000000000000038C01120121012101E102A
:108BB00012101210112038C0000000000000000048
:108BC00000000000000003F004200420042003E063
:108BD000012002200A2004700000000000000000B4
:108BE0000000000000000000000000000000000085
:108BF0000000000000000000000000000000000075
:108C00000000000000000000000000000000000064
:108C10000000000000000000000000000000000054
:108C20000000000000000000000000000000000044
:108C30000000000000000000000000000000000034
:108C40000000000000000000000000000000000024
:108C50000000000000000000000000000000000014
:108C60000000000000000000000000000000000004
:108C700000000000000000000000000000000000F4
:108C800000000000000000000000000000000000E4
:108C900000000000000000000000000000000000D4
:108CA00000000000000000000000000000000000C4
:108CB00000000000000000000000000000000000B4
:108CC00000000000000000000000000000000000A4
:108CD0000000000000000000000000000000000094
:108CE0000000000000000000000000000000000084
:108CF0000000000000000000000000000000000074
:108D00000000000000000000000000000000000063
:108D10000000000000000000000000000000000053
:108D20000000000000000000000000000000000043
:108D30000000000000000000000000000000000033
:108D40000000000000000000000000000000000023
:108D50000000000000000000000000000000000013
:108D60000000000000000000000000000000000003
:108D700000000000000000000000000000000000F3
:108D800000000000FC000000000074008C00840063
:108D9000840084008C0076000000000000000000C9
:108DA0000800100020000000000074008C00840007
:108DB000840084008C0076000000000000000000A9
:108DC0004400280010000000000074008C008400A3
:108DD000840084008C007600000000000000000089
:108DE0004000200010000000000074008C0084008F
:108DF000840084008C007600000000000000000069
:108E000000000000FC000000000038004400820068
:108E1000FE00800042003C00000000000000000056
:108E2000080010002000000000003800440082000C
:108E3000FE00800042003C00000000000000000036
:108E400044002800100000000000380044008200A8
:108E5000FE00800042003C00000000000000000016
:108E60004000200010000000000038004400820094
:108E7000FE00800042003C000000000000000000F6
:108E8000000000003800000000001000100010007A
:108E90001000100010001000000000000000000092
:108EA000080010002000000000001000100010005A
:108EB0001000100010001000000000000000000072
:108EC00044002800100000000000100010001000F6
:108ED0001000100010001000000000000000000052
:108EE000200010000800000000001000100010001A
:108EF0001000100010001000000000000000000032
:108F000000000000FC000000000038004400820067
:108F100082008200440038000000000000000000D1
:108F2000080010002000000000003800440082000B
:108F300082008200440038000000000000000000B1
:108F400044002800100000000000380044008200A7
:108F50008200820044003800000000000000000091
:108F600020001000080000000000380044008200CB
:108F70008200820044003800000000000000000071
:108F800000000000FC000000000084008400840059
:108F9000840084008C0076000000000000000000C7
:108FA00008001000200000000000840084008400FD
:108FB000840084008C0076000000000000000000A7
:108FC0004400280010000000000084008400840099
:108FD000840084008C007600000000000000000087
:108FE00020001000080000000000840084008400BD
:108FF000840084008C007600000000000000000067
:1090000000000000FC000000480000008400840014
:10901000840084008C007600000000000000000046
:109020001000200040000000480000008400840080
:10903000840084008C007600000000000000000026
:1090400088005000200000004800000084008400D8
:10905000840084008C007600000000000000000006
:109060004000200010000000480000008400840040
:10907000840084008C0076000000000000000000E6
:109080000000000000000000480000008400840090
:10909000840084008C0076000000000000000000C6
:1090A0001000280044000000000038004400820046
:1090B000FE00800042003C000000000000000000B4
:1090C0000000000000000000000074008C0084001C
:1090D000840084008C007600000000000000000086
:1090E00008001000200000000000AC00D200920038
:1090F0009200920092009200000000000000000028
:1091000008001000200000000000B800C400840027
:10911000840084008400840000000000000000003F
:1091200044002800100000000000B800C4008400C3
:10913000840084008400840000000000000000001F
:10914000000000000000100010000800080074007B
:1091500042004200420042004200E70000000000DE
:10916000000000000000000000003A00440044003D
:109170003800400040007C00820082007C0000003B
:1091800000000000000000000000000000000000DF
:1091900000000000000000000000000000000000CF
:1091A00000000000000000000000000000000000BF
:1091B00000000000000000000000000000000000AF
:1091C000000000000000000000000000000000009F
:1091D000000000000000000000000000000000008F
:1091E000000000000000000000000000000000007F
:1091F000000000000000000000000000000000006F
:1092000000000800080010003FF8000800080008EF
:1092100000080008000800080010011000A000402D
:1092200000000400040008001FF8000800080010F7
:10923000011000A0004000A003100C10300000003E
:1092400000000000000000003FF82008200820086F
:10925000200820082008200800000000000000006E
:10926000000000003FF81000100010001000100077
:10927000100010001000100010000FFC0000000093
:1092800000000400040008001FF80108010801089C
:1092900001080208020804080810111020A000406C
:1092A000000001000100010001007FFC010001003D
:1092B00002000200040008201FF000080000000067
:1092C000000000003FC000400080010003F80008DB
:1092D00000080008000800080010011000A000406D
:1092E0000000010009000900110011003FF8010809
:1092F0000108020802080408040808101050202081
:109300000000000002200220044004400880088081
:109310001100088008800440044002200220000060
:10932000000000007FFC04000400040008000FF0AF
:1093300000100010001000100010002000A00040DD
:10934000000000003FFC1000100010001000100092
:1093500010001000100020002000400080000000DD
:109360000000002004200420042004200420042005
:10937000086009A00E20002000200020002000200E
:109380000000008000800080010001000200040055
:109390000200010001000080008000400040000049
:1093A000000000007FFC010001000100010001003D
:1093B00001000100010001000100010001000000A6
:1093C00000000100010011101110111011101110F6
:1093D00011101FF00100010001007FFC00000000DF
:1093E00000000040008001000200044008801100DD
:1093F0000300050009001100010001000100010047
:10940000000000001FF80008000800081FF8100006
:10941000100010001000100020002000400080000C
:10942000000000000FE00820082008200A20092082
:1094300008A008200820082008200FE000000000F5
:10944000000000003FF00410041004100410041089
:109450000410052004C004000400040004000400FB
:1094600000000200020002007FFC0400040004006F
:109470000FF00010001000200020004000800100CC
:1094800000000100010001000100020002000200D2
:1094900004000400084010203FF00010000000000D
:1094A00000001008081004200240008001000100A4
:1094B00001000100010001000100010001000100A4
:1094C000000000007FFC0100010001000F001000FF
:1094D000200020002000200810100FE000000000F5
:1094E00000000100010001007FFC010001000F00ED
:1094F0001000200020002000200810100FE00000C5
:10950000000000000840084008407FFC0840084078
:109510000840088008800900080007F000000000EB
:10952000000000007FFC0900090011001FF801087D
:1095300001080108020802080410081010200000A9
:10954000000000001C0004000400040002000200EF
:10955000020001000100008000400020001800000F
:1095600000000200020004200420084008401F8080
:1095700001000200044008201FF00010000000005D
:109580000000000000001FF0001000200420024036
:10959000014000800080014002200400080000001B
:1095A00000003FE0082008200840084010401FF855
:1095B0000008000800080010001000200040000013
:1095C000000008000800080008000800080010005B
:1095D0001FF800080008000800100010002000001C
:1095E000000002000200020002007FFC02800280F4
:1095F000028004800480048008801080607C000069
:10960000000000000100010001000200020004004F
:1096100004000800100020003FF8000000000000D7
:109620000000000004800480048004800480048022
:10963000048004800480088008841084607C00001A
:109640000000010001000100010001000100010013
:109650000100010001000100010001000100010002
:1096600000000010001000100820042002400140FB
:1096700000800080014002200410180060000000FB
:109680000000000000000008100810081008100872
:109690001008100820F83F08000800000000000033
:1096A00000000000000000000000000000000000BA
:1096B00000000000000000000000000000000000AA
:1096C000000000000000000000000000000000009A
:1096D000000000000000000000000000000000008A
:1099A0000000000000000000000000000000FFFEBA
:1099B00000000000000000000000000000000000A7
:1099C0000000000000000000000000000000FFFE9A
:1099D000FFFE00000000000000000000000000008A
:1099E000010001000100010001000100010001006F
:1099F000010001000100010001000100010001005F
:109A0000018001800180018001800180018001804E
:109A1000018001800180018001800180018001803E
:109A200000000000000000000000000000003BB843
:109A30000000000000000000000000000000000026
:109A400000000000000000000000000000003BB823
:109A50003BB8000000000000000000000000000013
:109A600000000000010001000100000001000100F1
:109A700001000000010001000100000000000000E2
:109A80000000000001800180018000000180018051
:109A900001800000018001800180000000000000C2
:109AA0000000000000000000000000000000EEEEDA
:109AB00000000000000000000000000000000000A6
:109AC0000000000000000000000000000000EEEEBA
:109AD000EEEE0000000000000000000000000000AA
:109AE0000100010001000000010001000100000070
:109AF0000100010001000000010001000100000060
:109B0000018001800180000001800180018000004F
:109B1000018001800180000001800180018000003F
:109B2000000000000000000000000000000001FE36
:109B3000010001000100010001000100010001001D
:109B4000000000000000000000000000000001FE16
:109B500001FE0100010001000100010001000100FF
:109B6000000000000000000000000000000001FEF6
:109B700001800180018001800180018001800180DD
:109B8000000000000000000000000000000001FED6
:109B900001FE01800180018001800180018001803F
:109BA0000000000000000000000000000000FF00B6
:109BB000010001000100010001000100010001009D
:109BC0000000000000000000000000000000FF0096
:109BD000FF0001000100010001000100010001007F
:109BE0000000000000000000000000000000FF80F6
:109BF000018001800180018001800180018001805D
:109C00000000000000000000000000000000FF80D5
:109C1000FF8001800180018001800180018001803E
:109C2000010001000100010001000100010001FE2E
:109C30000000000000000000000000000000000024
:109C4000010001000100010001000100010001FE0E
:109C500001FE000000000000000000000000000005
:109C6000018001800180018001800180018001FE6E
:109C700000000000000000000000000000000000E4
:109C8000018001800180018001800180018001FE4E
:109C900001FE0000000000000000000000000000C5
:109CA0000100010001000100010001000100FF00AE
:109CB00000000000000000000000000000000000A4
:109CC0000100010001000100010001000100FF008E
:109CD000FF00000000000000000000000000000085
:109CE0000180018001800180018001800180FF806E
:109CF0000000000000000000000000000000000064
:109D00000180018001800180018001800180FF804D
:109D1000FF800000000000000000000000000000C4
:109D2000010001000100010001000100010001FE2D
:109D3000010001000100010001000100010001001B
:109D4000010001000100010001000100010001FE0D
:109D500001FE0100010001000100010001000100FD
:109D6000018001800180018001800180018001FE6D
:109D700001000100010001000100010001000100DB
:109D8000010001000100010001000100010001FECD
:109D900001800180018001800180018001800180BB
:109DA000018001800180018001800180018001FE2D
:109DB000018001800180018001800180018001809B
:109DC000018001800180018001800180018001FE0D
:109DD00001FE01000100010001000100010001007D
:109DE000010001000100010001000100010001FE6D
:109DF00001FE0180018001800180018001800180DD
:109E0000018001800180018001800180018001FECC
:109E100001FE0180018001800180018001800180BC
:109E20000100010001000100010001000100FF002C
:109E3000010001000100010001000100010001001A
:109E40000100010001000100010001000100FF000C
:109E5000FF000100010001000100010001000100FC
:109E60000180018001800180018001800180FF80EC
:109E700001000100010001000100010001000100DA
:109E80000100010001000100010001000100FF804C
:109E900001800180018001800180018001800180BA
:109EA0000180018001800180018001800180FF80AC
:109EB000018001800180018001800180018001809A
:109EC0000180018001800180018001800180FF808C
:109ED000FF0001000100010001000100010001007C
:109EE0000100010001000100010001000100FF80EC
:109EF000FF8001800180018001800180018001805C
:109F00000180018001800180018001800180FF804B
:109F1000FF8001800180018001800180018001803B
:109F20000000000000000000000000000000FFFE34
:109F30000100010001000100010001000100010019
:109F40000000000000000000000000000000FFFE14
:109F5000FF000100010001000100010001000100FB
:109F60000000000000000000000000000000FFFEF4
:109F700001FE0100010001000100010001000100DB
:109F80000000000000000000000000000000FFFED4
:109F9000FFFE0100010001000100010001000100BD
:109FA0000000000000000000000000000000FFFEB4
:109FB0000180018001800180018001800180018099
:109FC0000000000000000000000000000000FFFE94
:109FD000FF8001800180018001800180018001807B
:109FE0000000000000000000000000000000FFFE74
:109FF00001FE0180018001800180018001800180DB
:10A000000000000000000000000000000000FFFE53
:10A01000FFFE0180018001800180018001800180BC
:10A020000100010001000100010001000100FFFE2C
:10A030000000000000000000000000000000000020
:10A040000100010001000100010001000100FFFE0C
:10A05000FF00000000000000000000000000000001
:10A060000100010001000100010001000100FFFEEC
:10A0700001FE0000000000000000000000000000E1
:10A080000100010001000100010001000100FFFECC
:10A09000FFFE0000000000000000000000000000C3
:10A0A0000180018001800180018001800180FFFE2C
:10A0B00000000000000000000000000000000000A0
:10A0C0000180018001800180018001800180FFFE0C
:10A0D000FF80000000000000000000000000000001
:10A0E0000180018001800180018001800180FFFEEC
:10A0F00001FE000000000000000000000000000061
:10A100000180018001800180018001800180FFFECB
:10A11000FFFE000000000000000000000000000042
:10A120000100010001000100010001000100FFFE2B
:10A130000100010001000100010001000100010017
:10A140000100010001000100010001000100FFFE0B
:10A15000FF000100010001000100010001000100F9
:10A160000100010001000100010001000100FFFEEB
:10A1700001FE0100010001000100010001000100D9
:10A180000100010001000100010001000100FFFECB
:10A19000FFFE0100010001000100010001000100BB
:10A1A0000180018001800180018001800180FFFE2B
:10A1B0000100010001000100010001000100010097
:10A1C0000100010001000100010001000100FFFE8B
:10A1D0000180018001800180018001800180018077
:10A1E0000180018001800180018001800180FFFEEB
:10A1F0000180018001800180018001800180018057
:10A200000180018001800180018001800180FFFECA
:10A21000FF00010001000100010001000100010038
:10A220000180018001800180018001800180FFFEAA
:10A2300001FE010001000100010001000100010018
:10A240000100010001000100010001000100FFFE0A
:10A25000FF800180018001800180018001800180F8
:10A260000100010001000100010001000100FFFEEA
:10A2700001FE018001800180018001800180018058
:10A280000180018001800180018001800180FFFE4A
:10A29000FFFE0100010001000100010001000100BA
:10A2A0000100010001000100010001000100FFFEAA
:10A2B000FFFE01800180018001800180018001801A
:10A2C0000180018001800180018001800180FFFE0A
:10A2D000FF80018001800180018001800180018078
:10A2E0000180018001800180018001800180FFFEEA
:10A2F00001FE0180018001800180018001800180D8
:10A300000180018001800180018001800180FFFEC9
:10A31000FFFE0180018001800180018001800180B9
:10A32000000000000000000000000000000000002D
:10A33000000000000000000000000000000000001D
:10A34000000000000000000000000000000000000D
:10A3500000000000000000000000000000000000FD
:10A56000000000004000400040004000400040006B
:10A5700040004000400040004000400040004000DB
:10A5800000000000000000000000000007F807F8CD
:10A5900007F807F807F807F807F807F800000000C1
:10A5A000000000007FFF7FFF7FFF7FF37FF37FE3EB
:10A5B0007FC773CF618F781F7C3F7E3F7F7F7FFF98
:10A5C0000000000000000000000079E0861080100C
:10A5D00080104020606030C019800600000000003C
:10A5E0000000000000000000000079E0FDF0FEF037
:10A5F000FEF07BE07FE03FC01F800600000000000F
:10A60000000000000000000000000000000000004A
:10A61000000000000000000000000000000000003A
:10A62000000000000000000000000000000000002A
:10A63000000000000000000000000000000000001A
:10A64000000000000000000000000000000000000A
:10A6500000000000000000000000000000000000FA
:10A6600000000000000000000000000000000000EA
:10A6700000000000000000000000000000000000DA
:10A6800000000000000000000000000000000000CA
:10A6900000000000000000000000000000000000BA
:10A6A00000000000000000000000000000000000AA
:10A6B00084004C00BC00D4004800300000000000C2
:10A6C000000000000000000000000000000000008A
:10A6D000030006000C000C00060003000000000050
:10A6E000000000000000000000000000000000006A
:10A6F0000C0006000300030006000C000000000030
:10A700000000000000000000000000000000000049
:10A710000000000000000000000000000000000039
:10A720000000000000000000000000000000000029
:10A730000000000000000000000000000000000019
:10AF00000000101020902494391C21107F3221520F
:10AF100021123C2C242027FE1C2010201020000091
:10AF2000000010001110211025104BEC791811D8D9
:10AF300021585B3463340552315041100110000038
:10AF4000000000000490389621F8201020027FFCB9
:10AF5000240820F0204821F01850604003FE000033
:10AF600000000000112010A010A03C2210FE1822AA
:10AF7000104270645094108411041204341C0000B8
:10AF8000000002000510392020FE23503E242BF83B
:10AF90006A902A902AAC2A98129804A404220840A5
:10AFA000000000007DFC110411FC111011503954F7
:10AFB0001154117C111016923A924492086E0000BE
:10AFC000000000407C2011FC1204120413F83A0027
:10AFD00011FC1354135417FC3D544554090C100430
:10AFE00000000100211E23E4226422643FFC22644D
:10AFF00023E4223C22A4126463E4022400440000FF
:10B000000000000C047079801110112011207DFEC9
:10B01000102010A811A415267A22442200600000F6
:10B020000000180011FE100014123BFC12541E54B4
:10B0300036DC32D45254925412541254105C100024
:10B0400000000420042004263FF8080837F00240DE
:10B05000124C1FF8124815A814881908122800105D
:10B060000000186011442EB843080FF001003EF8AC
:10B070000FF00910091009100A900470080C7004F0
:10B080000000009004903BFC1090100013FC70A096
:10B0900013FC12A412D412AC3F244204020C000090
:10B0A0000000008000400FBC0840284C29B0082058
:10B0B00018266FD8122812081208220843F8000038
:10B0C0000000002000203C2644F8442045FC442099
:10B0D0007C2047FC442444247C24003C00200020A5
:10B0E0000000000005FC3804100410FC100438FCBB
:10B0F0001010101613F81890609000100030000027
:10B1000000000000010C7DF84528454845483D48B1
:10B1100045484550456044627CA2412202120C0C15
:10B12000000010041102112425244724792411243D
:10B13000212421247D24012406247A0444000800CB
:10B140000000010000843FFE2110222427F8220085
:10B1500025082924308028844FF848884086BF7805
:10B1600000000040444028B0114C2A704DA008480F
:10B170001BB82A682A484A480A400AB0390C160403
:10B180000000026002243FD8049804E00F82707C23
:10B190001FF00C1008240FDC00281FD800780010C6
:10B1A0000000100410F82480388020807C8210FC7D
:10B1B00010887E881108110815081A081208040062
:10B1C000000008000A0613F81220122432785220D8
:10B1D00013FE1220122014FC14201420182201DC6B
:10B1E00000000080210421043FFC042008203EFCD4
:10B1F00008300E70196829A8292449200820002049
:10B20000000000003C8604F8048424C458A8409838
:10B2100040887E9804A404C404C0048019FE000081
:10B2200000000000143E14247FA414A814A87F2852
:10B2300054247FE414A414A424BC242044208000BB
:10B2400000000040468034FC098819906A500820AC
:10B250001458158E26304410040008603810000081
:10B260000000000002607C602890288867041AF8BB
:10B270001800190829F849080908090819F80000F0
:10B2800000000000100410F814401440084251FC63
:10B29000506010A010A01D2017242222441E000080
:10B2A000000004000C1C09E008401040104C33F072
:10B2B0005040104617F8104010441042107E000015
:10B2C000000000201020102001FC0020102031FC84
:10B2D0001000102010A414C21A821A8800FC00006A
:10B2E00000001020106014602890210C7E0C10705B
:10B2F00010407FFC1040114414C818C001FE00002B
:10B300000000001008200B263C381A6828A44920A9
:10B310000820082009223E3C1A6828A4492200007F
:10B320000000000047FE39441040288449F80920F5
:10B33000192018F82820C82209FC0820382000000D
:10B340000000000044C8388411042A50485008887E
:10B3500019061A0829F8C9080908090838F8000068
:10B360000000100011FC110455047D0454F85440F1
:10B3700054447CFC504414841A8461040218040070
:10B380000000003001C00E0800701F84003803C0A8
:10B390001C000BF008100FF008100FF0081237EC2B
:10B3A000000000001080208C26903CA040C09080BF
:10B3B00011FC10C010A01290149818AE10C4008098
:10B3C000000000480148394A13FC114811387D003B
:10B3D00011FC104013FE14D0394842460C400000C6
:10B3E0000000000810FC10400040004013FC3060DA
:10B3F00010D010D011481E4C1C46184000400000D0
:10B4000000001020106010602C9020903D08510624
:10B4100016087FF0102010201420182011FE0000C4
:10B42000000020101070119C0094009073FE109486
:10B43000109410F41398149818A810C601820000F4
:10B440000000081013101D1011106F1247746B9834
:10B450005B1053105B106710437242927E1E000017
:10B46000000000000102791E53945114515849986C
:10B47000491449127F924112021E02100410080062
:10B4800000000000100411FC0124052469FC29249B
:10B49000092411FC1124302020202020202000200D
:10B4A00000001000103811C011007D0011F81110BB
:10B4B000111011101FFE6100018803040404000034
:10B4C00000001080129022923AAC42A04ED83284F2
:10B4D00014007C0013F812A816A81AA807FE000092
:10B4E0000000000018900888010445062A100D1875
:10B4F0000910109010A0306010601090130E0C0016
:10B500000000000031FC20A05FFC42A47AA4A35CF0
:10B5100022487950206223DC2950124C0446004016
:10B520000000000021FC103016240BFC0BFC0A2448
:10B5300013FC1244304411BC1084308401280618D6
:10B5400000000400090C1E0809101E207F86410817
:10B550003F1021203F4221043F082110236000803A
:10B56000000000101FF800600180410841084108F8
:10B570004108410841084108430840083FF80008D5
:10B5800000000000227E3E442248225022502A4CD5
:10B590002A422242224223CA434482400040000001
:10B5A0000000000033FE1020002000207020102238
:10B5B00011FC1020102014201820102000E00000A2
:10B5C0000000000400047E441044104410447E44F3
:10B5D0001044105C106412043C0440040004000099
:10B5E000000008000844087C7F48085009607F5824
:10B5F0004944494249424942094C084008400840F0
:10B60000000008000846087C7FC8085008500B4816
:10B61000364622421C420C4216462240414000005F
:10B620000000080008401040102610E831D051609A
:10B6300091501250124814441443184010C0000096
:10B640000000010000843F78201021E02F0021003D
:10B65000210C27F0590041084108810880F80000BA
:10B6600000000000100211FC0080488028FC1084BB
:10B670001084108810882108220822382010000029
:10B68000000010001004107810201420522051FEE9
:10B6900050201020102010201020102010601000CA
:10B6A0000000000010201820010401FE13083000E3
:10B6B00010001000100014001400180201FC00001B
:10B6C000000000087C7C4BA04A20522052244BF8FA
:10B6D0004A2046204E207A504292410A000600003D
:10B6E000000000000848104410447E4413F8124043
:10B6F00024402420242028201C12120A2006400066
:10B700000000000002FE3C081010102010201C2039
:10B7100011FC1020102012201C206020006000006E
:10B720000000000011FE12001204128816483A3080
:10B7300012101228124412841A00620201FC000046
:10B7400000000040104020A0209021082E067580A7
:10B750002118212020C021001908E10400FC00006C
:10B760000000100009FE208420942FE42BF428B45C
:10B7700029E42AA42A142DF42C1433F4200C0004F8
:10B780000000022004443FF804000D0009000FF8F7
:10B790001100210001043FF8010001000100000038
:10B7A0000000022004443FF81080088009003FFC9C
:10B7B000010401080288024804480808307000307B
:10B7C00000001000100411F86C9020902890509008
:10B7D0003C90109014907892091209120E1E0000ED
:10B7E00000000000008049987A0648004818491077
:10B7F000491048A078A0404040A001180E04000065
:10B8000000000000110221FC21202520A522A53CDA
:10B81000A524A524A524AE2476440284050C0000AA
:10B820000000180010221FBE212425247D28252871
:10B83000252439222122232220AE20641FA00020AB
:10B840000000000013FC084000400440284419F8A0
:10B85000086010A010A070A011241222141C08006F
:10B86000000000401040104403F800402FF828402A
:10B87000084417FC104470442044204820400040F5
:10B88000000000201020084001F8404024440BB87C
:10B89000088010881078301010A020601010000070
:10B8A0000000000011FC11080128414821482948E6
:10B8B00011481148114030602098210626020000EE
:10B8C0000000004020901088108800701180704C9B
:10B8D00017F010481050142018601194160C000036
:10B8E000000008000800297E2944294829481F50E3
:10B8F0000A48294449444944495C3748004000000B
:10B90000000010201040104617F82C4025FC244061
:10B9100024404BFE484230441C44204440408000B8
:10B92000000000000822123E12242728382812287E
:10B93000122412A43F241222123C22204220002072
:10B94000000000407C20042227DC25082488488849
:10B950007E9002500260FC20045004881F06000004
:10B96000000000401040104021FC26484A40706012
:10B97000106020A078A000A005203922021E04003B
:10B98000000000407E40044024FC24482448244811
:10B990003E4A03F406607A500488048C09060200CB
:10B9A0000000000004FC390411241124152439245A
:10B9B000112411241024142038584086030200005A
:10B9C0000000011001107D1011101110111015B0A0
:10B9D00039701128112812281E44648409020200BB
:10B9E000000000001222123E12A41F241228122866
:10B9F0007FE41224112221A220BE40A000200020BA
:10BA00000000042004247FF8042000101FF0101010
:10BA1000101010100FF000400630080C30044000E9
:10BA200000001000101C11E07F202120292051FC73
:10BA30003F10111017107910092A094609820000D9
:10BA4000000000401040104822483C4440587DE02F
:10BA5000904012207C2010201210141A180E0002A0
:10BA60000000000011FC1004101454E4540455E4C8
:10BA70005524552455245CC464040004000C0008BB
:10BA8000000004001804187C1F4428482848095066
:10BA900016481444144414C4155C2240204000008D
:10BAA000000008800860084013FE1090309052900B
:10BAB000939414961492191211101210123014004B
:10BAC000000008000BFE0A401040108431F851209D
:10BAD000912010F81020102011FC102010201000D0
:10BAE0000000080009240BC8149014883244512423
:10BAF00090001020124412441244124413FC10000F
:10BB00000000004004400C201018200E40081FF0D8
:10BB100008200FE008200FE0082477F8002000003C
:10BB2000000000207E2042FC46205A245A784A26F3
:10BB30005BFA56246624453E80A28062001E000007
:10BB40000000000021FC1108010801F8010871083B
:10BB500011F81144115813201510196811860000AE
:10BB6000000000007F26015C3F44014801503F482F
:10BB7000014802C43F441244024C02400640000007
:10BB8000000000203C444A444A4451FC500049FC17
:10BB90004408440845F049004100410441860078CA
:10BBA000000000803C404BFE491050A0506048E02F
:10BBB000451E4710451079104110421046100810DC
:10BBC00000001000100411F810402C4024C024D0B4
:10BBD00045484A442C4018401440204043FE000091
:10BBE0000000181010201020105C2E50245024FC4F
:10BBF00025944A94289418941494201C4010001002
:10BC000000001020102C102410222DFC25202524AB
:10BC10004524492829281952159A212C40C6030089
:10BC2000000010401020112025FE3F0424002406AF
:10BC300028F84820482030201C20202040E0804068
:10BC4000000000007C040BF82840284028C0495020
:10BC50004848344404407C4004400440380601F81D
:10BC6000000000201C20042425FC2524252425FC7C
:10BC70003F24032403FE7B04030405040D1C010080
:10BC8000000000001DFE05022502254A257A254AEE
:10BC90003F4A034A037A7B02030205020D0E0000AD
:10BCA00000001000110212FC2604464C7A74125453
:10BCB00022542E54727402440E047204020C0004C6
:10BCC00000000C0009003E3E09241E247F44088821
:10BCD0000B0002007FFC0420044003E003183C003A
:10BCE0000000000004483888108611F810801C8479
:10BCF00031FC1148114812301C206858108E070082
:10BD000000000020044038461078114411BC1D0486
:10BD1000310411FC110011001E0062000400080033
:10BD20000000000004403880110C13F410001C9037
:10BD30003090109213FC11101910621004100810AA
:10BD4000000010201140114012487FF014401844A8
:10BD50001BB871205120112211221222341E2800FA
:10BD600000000080108811F811501630387010AEA5
:10BD7000133011FC11201D2463FE00200020002040
:10BD80000000042004447FFE0420080428F8200852
:10BD900027C824482448278820082008201800089D
:10BDA0000000042004447FFE042000003FFE0944FC
:10BDB00009481F50094C1F44095C114023400200F0
:10BDC000000008201040104012443DF810401C4074
:10BDD00035FE3040508091101108120413F8000015
:10BDE0000000000000DE3F22202427E420282068F5
:10BDF0003FA42A622BA22922292E4AA444600020B3
:10BE00000000000000063DF81104114411282D180F
:10BE100025086518252425442540390001FE000029
:10BE200000000000082008207F202B7E1A221CA280
:10BE30007FE20A221924184428444884891C0000FF
:10BE4000000000003DFC4504452445447D44454434
:10BE500045447D70446044607CA40124021E0C00B3
:10BE600000000000110811083FF8009000AC1F50BE
:10BE700010481E481250225022202454418E0000A7
:10BE80000000000010501050515057FC55545554AC
:10BE9000555455FC555455544D54715401A8000047
:10BEA0000000102010202420382421F87C201020AD
:10BEB00010267FF8105010501488190C1206040038
:10BEC00000001020102024263BF820207CFC1020AD
:10BED00010227FFE102210221422182410200000AD
:10BEE0000000108010842488389020E07C80108628
:10BEF00011F87EA010A01090148818F61080000091
:10BF00000000002002203C2410F8102020243EF8DD
:10BF100064206420A42624F8242018200020002077
:10BF200000000060104024603890410846063880C8
:10BF3000109814A038C010801488188810F80000D9
:10BF40000000004010581048284449F81148114892
:10BF5000714812A8123012301230144C14840900A7
:10BF6000000000003C0C24F0240024003C0624F8CF
:10BF700024203CA824AC2524462446244860000004
:10BF8000000000007E24421846485A4C5A5249622A
:10BF90005B4456C4676C451280828062001E0000BC
:10BFA00000000000110211FE1322152249FE512249
:10BFB000112210FE192215221322222242260000ED
:10BFC00000000020105810400E420BBC6A202A24AA
:10BFD00013A412A8122822102238246E20860300EF
:10BFE00000000020402024242458005020A03EA41B
:10BFF0002478242024FE24203C20362029FE000022
:10C000000000105010901096119C2F9024B024D254
:10C010002492482C482039FE142020204020002063
:10C0200000000000190211FC2324252459FC2924B6
:10C0300011242134394C014C01847D0401F80000A5
:10C040000000002004A03CA024FC29202820282255
:10C050004FDC345004907C90049009121E1E0000A6
:10C060000000000013BC109021104D104A1471F80C
:10C07000209020907310013C09807260041C000025
:10C0800000001000108E217021104A10723413D855
:10C0900020D041507550037E110062C0043C000066
:10C0A0000000000000247C24122213FC12207FE6F2
:10C0B0001254125412581E986598042A0846100209
:10C0C0000000002000407C4411FC114411FC154488
:10C0D000394411BC102410281C3061D2420E0002D9
:10C0E0000000001009101E103F1009FE3612211228
:10C0F0003E222A222A222A240E441144218C00089E
:10C100000000000004F8389010901110150E7A20ED
:10C11000104411F810E01CD0614C064608000000E5
:10C1200000001090109013FE109014A03BFE1248D7
:10C13000104011FC144868884088010802300C0047
:10C140000000042004247FF805A00380066008187E
:10C1500037E400081FF001000D30110C2704010026
:10C1600000000000042004241BF8018001083EF0B8
:10C17000003007E0000008100FF008100FE000008A
:10C180000000182010201020142638F8192814A8B0
:10C19000353033FE506050501098110C12061400C8
:10C1A0000000080211FC11207F2010DC12847E9414
:10C1B00042942494149408901428202440C201022C
:10C1C00000001020102421247EA820A850B053FE87
:10C1D0007C90109012903C9050901112121E000012
:10C1E00000000080110811080FF002001FFC0E3043
:10C1F000120E6FF009000FF001047FF8010000003B
:10C200000000100010402448384820447FF8106097
:10C2100010507CD010C81144164618401040000041
:10C220000000102010202426383821207DDC110445
:10C2300011047DF81300110015001A00120004000B
:10C240000000102010202420392421FC7D2411FC22
:10C2500011247D2413FC112014201820102000200C
:10C260000000100011FE2444384420447C84109CBB
:10C2700013107CFC110411041504190411FC0000B6
:10C280000000100010FC248838E820A87CAA11FEC9
:10C2900011487D281108110A15FC180810380010E3
:10C2A000000008000850385028502F565958885020
:10C2B00088500DDC78904890089209120A1E0400FC
:10C2C00000000908089010A0122413DC324453FC2B
:10C2D000124413FC1040104213FC104010400000A8
:10C2E0000000081008103E10221022503E54225424
:10C2F0003E9222921E920B121210221046700020C3
:10C3000000000800087E0E44114822485C5048484E
:10C310003FC4084209423642225E22441C4000408B
:10C32000000004083C98247024583C8427202420D2
:10C3300024263CF8247024A844A445228E20000022
:10C3400000000020102021FE20205F2445FC19243D
:10C35000112411F8107010A8172C1A261420002090
:10C36000000044102420282017FE382010227DFCD5
:10C37000112411247D2411241024202040200000A9
:10C3800000004440244008400A8634F810883F48A2
:10C39000115012507C301020103010C82106460079
:10C3A0000000000408FC08040AFC2C0429FC6810A6
:10C3B00008120BFC08901490101020102030401030
:10C3C000000000101110092009203FFE4004000465
:10C3D0003FF808001FF82810481008100FE0000070
:10C3E000000000407C844B0C4A045244538C4A04A5
:10C3F00049FC446048A040A040A04114421C0000F9
:10C40000000000400C207A044BFC5210500849F008
:10C410004840454846707A40434044C0487C10003C
:10C420000000000011FC100010007FFC250825080A
:10C43000250825F8490838881650129023FE400038
:10C44000000010201020102410F82F2424A82532DA
:10C4500026EC486068B018A8152C222644208020BD
:10C46000000010201060205020887D04260A4870AB
:10C47000482049FE482030A81D24222244E08000A4
:10C48000000000201020106010502E88250626F88D
:10C4900024004544492838A814B02010401600E86C
:10C4A0000000000410FC105010302FFE252425241D
:10C4B00025FC4524492439FC15242324410C000083
:10C4C000000000203C20045024482486250A243003
:10C4D00026201BFC04207CAC052206221C600000E8
:10C4E000000010081070103824C04440784611B87D
:10C4F000212021FC7F2405240D24702C0020002005
:10C50000000000200810102211DE27043C040878E7
:10C51000100223FC3C50005004503892030F0400DA
:10C520000000002004203CFC2508250825F82508EB
:10C5300027081BF00D2C7530051005681D860000BE
:10C5400000000C0008041E3C0A241C4409443EACB4
:10C550000B1800061FF804080BF83808080807F045
:10C560000000002004203B241138112015203ADC63
:10C57000102011A011240E2C7458002000C00700B8
:10C5800000000060006004A03890110C121C1060C4
:10C59000382411F81020113815246A2404E0000012
:10C5A0000000008008481050101211EC3D2411FCCE
:10C5B000112410FC102014213BFE0020002000005C
:10C5C0000000000411FC22A82118219C7A24244098
:10C5D00027FC24A423281918629004A808C6000088
:10C5E0000000002004463FF805C00FF002C00C20F8
:10C5F00000061FF80F90109010900F900070000030
:10C600000000000004443FF80100010811F01E1072
:10C6100010101FF01FF001047FF80100010000005E
:10C620000000022004443FF824403FFE6400041050
:10C630000FF0110001043FF81108111011101EE055
:10C640000000000004403FFC04401FF810081FF8E1
:10C650001080188828882FF0288448884F700000A0
:10C660000000001000103E10211020162038391054
:10C6700069106928A924294029803A80247E000075
:10C680000000000401F87C4049FC4A484A487BF815
:10C690004A484BF4494048C0704040A0011E0E007B
:10C6A00000000040002005FC7D08450845F84508CD
:10C6B0007D0845F44548453045107D6801860000F9
:10C6C00000000800107C102010A47EDC528452A4CC
:10C6D00052A47EA452A452A052387E444082030247
:10C6E000000010201020104250FC7C805490551007
:10C6F00055FE54107CD8149617127A100070000062
:10C700000000100010EE52227C2254BA54AA7C225F
:10C71000542254EE6F2A4532442244224C660000D3
:10C72000000010201020242438F820207C2011FE46
:10C7300010207C20102411F81420182011FE000075
:10C740000000109011102510391423F87D101110DD
:10C7500011107D1013FE10901588190416020800A0
:10C760000000100010102510391021FE7C101390CD
:10C7700011187D241124114015801980127E0000AB
:10C780000000104010403FBC25104430082008260F
:10C790003FF8082008200FE0082008200FC0000004
:10C7A0000000080011FC2900690C2588194829306F
:10C7B0000D1035284D4C1544258005001D0602F846
:10C7C000000000882448385028AE282438A429784E
:10C7D000292039FE2862286248AA49245E20882040
:10C7E0000000080037E642BC4AA475A820B03FA864
:10C7F00024A424A228A228A22B2E10A4202040206A
:10C80000000010201020102614F8184450F8504250
:10C8100010FC108A11FC1D48260820084018000052
:10C8200000000000120205FE040A44F22C422C42D1
:10C8300014721452144A344A25B2240227FE00000E
:10C840000000100808F040403D8408FC09A4324470
:10C8500015C4163800041FF801080FF03FFE000051
:10C86000000010201020102C18F0142257DC508CDF
:10C870001142128811F8125014201070108E1700F7
:10C880000000000017FC00A000A007FC14A434A4C2
:10C8900014A413581040184417F8104007FE000065
:10C8A00000000010102C002403FE0210121433F4B8
:10C8B000131413F415581D4815D814260846008083
:10C8C0000000000011F8010801F80108110831F01A
:10C8D000100213FC11441A78134014C0083E0000E3
:10C8E0000000004010C4034C0244035C1244324474
:10C8F00013FC104813B8191010A010E0031E0C0010
:10C90000000000000C407BFC4A48524855F04FFEA6
:10C91000480847F846484A48424840B8410C06048F
:10C9200000001020102410F810246C7825FE24003C
:10C9300025FC492449243924154820484086030011
:10C94000000000201020106610B82CA8252C2626E8
:10C95000246048FC2904190415FC210441FC010051
:10C9600000001020102011FE202044FC782209DC59
:10C97000100425FC38FC010405FC7904011C0008A6
:10C98000000000507C50085029DE285028504852A2
:10C9900048DC345004507FDC045004503850000010
:10C9A000000000807C80090229FE2A8229F22A44A4
:10C9B0002C4C17F4054C7D54055408A4181C000891
:10C9C000000000401020102621D845FC79041104F5
:10C9D000110421F8792000AC0926722204E00040FD
:10C9E00000000040104013FE210845F8790811F8B6
:10C9F000100C21F8782003FE0C40704001C000406C
:10CA0000000000007CFC080828F82808280A48F4E0
:10CA1000492036B604B87CA805A4052638E00000F5
:10CA20000000000007E03A7E1254125413D47E54E2
:10CA3000125413D8124816687BD4025400620000C6
:10CA40000000004004403BF8104017FE10247CA07A
:10CA500010A01120112016FC7840007801840600F7
:10CA60000000000007FE3A0412F4122412FC7E3487
:10CA7000126C126C12A416247A24020401F800002D
:10CA80000000000804783BC0104013FC11487D48AA
:10CA900017FE11481148154A7AF4004001FC0000C5
:10CAA0000000000805F03820102211FC10A83926DB
:10CAB000124811B8102010223FFC402000E0004036
:10CAC0000000004004203BFE10A01120115C7D649A
:10CAD000135815C811281530791001280146008017
:10CAE0000000021009103118205823A42A2673C20E
:10CAF0002290228824802C807490088C11040000DD
:10CB00000000100C11F0102015FC3B28112811F02A
:10CB10001C2273FE1224122C12D4120432040204BA
:10CB200000001020114810D0104417F83948114661
:10CB3000124010801FFC111060A0007800840700D4
:10CB4000000010201010110211FC150439F811001A
:10CB5000118211FE13B21DFE62AA02AA04A20000F5
:10CB600000001000104013FE144039FC104A1BFC5A
:10CB7000344853F05140933C134014C0187E1006C3
:10CB800000001004103813E016203A7C12201ADC42
:10CB90003284529452A492A414A0144C188410000D
:10CBA000000008000E200BDC7CA408943F94498808
:10CBB00049807F7E49027FFA490249020B0E00003C
:10CBC000000000803F26013C3F2421281F304028E0
:10CBD0007FE452A254A25FA248AE48A441A04020E4
:10CBE000000010001060139E6D042144298451043C
:10CBF0007FFC115012503C5048500894091E02000E
:10CC000000000800081028302C4828447F8208249F
:10CC10000828494859485548654861885F88200078
:10CC20000000000009827A1C4A044A147A644A44CB
:10CC30004A544A647A444A4C4BB47A04020C0004C5
:10CC40000000000048827E9E4B044A047AFC4A940D
:10CC50004A944AF47A944AF44A847A04420C0004CE
:10CC6000000000003CFC448844E844A838AA11FEB7
:10CC700031485D285108510A4FFC700800380010F7
:10CC80000000080008FC4A204AA44ADC34847EA440
:10CC900002A402A43EA420A023382C463082030024
:10CCA00000001020104024443BF820487CF0104441
:10CCB00011B8790811F8169014601870118E0600DA
:10CCC00000000100110021103D104390491031FC7B
:10CCD00023502D503510291029101112016C01001C
:10CCE0000000102010582448384421B87E241164D4
:10CCF0001078785010C813481446184010C000002F
:10CD00000000100011FC1508290820F03C0051FC1F
:10CD100011047FFC110411FC11041D04111C0008F6
:10CD200000001040102025203BDE23607C40104690
:10CD300010F878A010A010A015481A841CFC000060
:10CD40000000000014FC182059A45ADC1C8418A40C
:10CD50001EA479A458A429A02A3824444082830020
:10CD6000000000003D022AFC2A242A2C3A742A24BE
:10CD70002A743AAC2AA44A244A044A0499F80000C6
:10CD8000000000403C20242424D824883C50245017
:10CD900025AC3C0024F82488248844884CF000000A
:10CDA00000001002107C1E2024227FDC20842E94A0
:10CDB000329432943294309053284C4400820300D1
:10CDC0000000002010201C3028507E482A862B4866
:10CDD0003E482A482A48364802483C880108020052
:10CDE0000000240418F8284834F0444018BC01001E
:10CDF0000FF009100820080407FC7FE40028001049
:10CE0000000000604460389008883BF748000BE25F
:10CE10001A5419D42A54CA540BD40A543ACC004494
:10CE200000000100008010842F78242025242A5C33
:10CE30002950261025302628442845440286000023
:10CE40000000100008FC08042FF422842FF42A9418
:10CE50002A942DE4211427E4211426E4201C000840
:10CE60000000000008C8105013FC1524492451FC90
:10CE7000112411FC10201C2613F820202020400033
:10CE800000000080108008F80920022425DC080436
:10CE900008FC100411F830281104151214F80000D1
:10CEA0000000100011FC112411242DFC252424DC89
:10CEB00024004BFE492439281510212841C60000C2
:10CEC000000001801102213C22107EFC2E944E7C39
:10CED0004A944A9452F832501A202230424E8080AE
:10CEE000000000207C2208FC28242878482648F8E6
:10CEF0004E2235DC0C8075FC0684288418FC00006A
:10CF0000000000007CFC048824F8288828F0280011
:10CF100047FE3C200CA474B805A026601A3E04000D
:10CF2000000000007BDE0842318C529452945294EF
:10CF30005294294A08427BDE0842084239CE1084C6
:10CF40000000000004803FFE110811F016203DFE95
:10CF50001A0813F812081BF862080208021C0008DD
:10CF600000000040002007FC3888109013FE1A24AF
:10CF7000304411FC11481548394841480040000030
:10CF80000000004000207E2413DC1090110C7A5425
:10CF90001448104611F814A07890410806060000C5
:10CFA000000000101FE001007FFC02400C383244FA
:10CFB000028C1EF002881EF002863E7802400000BD
:10CFC00000001040102011FC1508389010A21F5CC2
:10CFD0001420302251FC50F011A812261420100009
:10CFE000000000207E20282029FEFF24AC60AC50E9
:10CFF000ACD4C5988488FC88848484A678C000005A
:10D0000000000010042038A410B820A2275C3C04C3
:10D0100065FC6504A5FC25043DFC2104211C0000E1
:10D020000000008802483C5011AE112415242DFC4C
:10D03000652464F8A42024221FFC20200020000086
:10D040000000001004903890239E24903C9024947B
:10D05000649858900890139C1090209043FC000016
:10D0600000000908108814902BFE205029544DFC14
:10D070003994099C0D04790449FC090409FC000059
:10D0800000000800107C10202C2020FC286048A004
:10D090003F6008200DFC787048A8092C0E20002065
:10D0A0000000040014BE152404647BA841283F2816
:10D0B00021241F22042204A21F2C04203B20002034
:10D0C0000000000007FC00A070A452A452A851B0B8
:10D0D00050A253DC7044462A060A060801F80000F4
:10D0E0000000000003F87A0849F84A084A087BF86B
:10D0F00048004C044FF87CA804A804A807FE0000D0
:10D10000000008100FF008100FF01FE8091005309C
:10D110001AC0020C1DF0063009401080637C1C0010
:10D12000000000203C20442445F8442438A410A8E2
:10D130005020582651F85050545038884106060067
:10D1400000001004107813907E20563856E656A83A
:10D1500056F4569456885AF013501552164A1884AD
:10D1600000001008108812882DFC20883E78508816
:10D1700010887EF810881374144818840102020085
:10D1800000000000117222DE3E5242524FDE325247
:10D1900012521DDE325212521A52126215EE000065
:10D1A00000001040102017FE290821F87D0810F813
:10D1B00010083CF8102011FE1420182010E0000088
:10D1C0000000200822102910317E45507B5021504C
:10D1D000226C7A6426A8229822983924024700807B
:10D1E0000000104010402C4028BC2A84FF542ABC68
:10D1F0003E942A942A94367400043C04401C000097
:10D200000000102010102C2229DC73005E405244D4
:10D210007E4C525052602E4000443C44403C000042
:10D2200000000000394C2948295028EC38D0294CFE
:10D230002A4638402BFE291048D0483858C40700E9
:10D2400000001000080409FC22042DC42A442DC447
:10D250002244212427C4256429243104201C0008E9
:10D26000000010101090109614F814905B6E52206D
:10D27000104011FE10601CB0252822264C200020F2
:10D2800000000020182400F8042038F8082617DCD5
:10D2900019247924152413241148104811860200FA
:10D2A000000000023EFC122013203EDC12847E941B
:10D2B000109432942E94621022281E2600C201007F
:10D2C0000000000005FE3910292029DC298429FCF2
:10D2D0002984167C0E10765C0A760A921D70002056
:10D2E0000000000404FC392428A82830284829F02C
:10D2F000284815FC0C24744608F80890190C060000
:10D3000000000020102011FE122016783A2A127C0C
:10D310001228123016F61A6862A8052404E00000EC
:10D320000000000011FC114C114C14DC3B2010607B
:10D33000109811261E4011906064019800600380CF
:10D3400000000820112010A814B03B4E12081DF850
:10D350003508310850F8506010A010A21112060CC8
:10D360000000002043207CDC52A452945E885E982A
:10D37000489076EE54024DFC4A0472047F0C000083
:10D38000000000200C2033FE2050208839462AB8A7
:10D390006910A830A8D22B2E30E42008003001C03C
:10D3A0000000005006903AA422B822C83C8428808D
:10D3B000297C6928A9482950306220A20112060C54
:10D3C0000000004007DC3A54225421D83C0028F8E1
:10D3D000280269FCA884287C30042008003800005A
:10D3E000000004600444154826F0244025C27A3E1B
:10D3F000022005C01B3829100FF008001FFE000096
:10D40000000000001FF010101FF00FF0182008207F
:10D41000134C3CF00A2011481FF424882244400099
:10D42000000010103090289637F840607860209007
:10D43000211E76E2200821F82908310801F80000B1
:10D4400000001020104025FC390821F87D08110843
:10D4500012F07EE411D8115015481A4614C000404D
:10D460000000100010BC2508390A22747D20133CEE
:10D4700011507D9013FC11181528192411420080B9
:10D480000000106011462EB8450406200FF0010080
:10D490001EF8044009BC72401D80063009C01E0001
:10D4A00000000C080A4811282108DE683F4A1A3C8F
:10D4B00029084908090801081FF001003FFE000083
:10D4C000000000287D28495048E8484679B84906B8
:10D4D0004FF879284948494849484848888607020A
:10D4E000000010802080399C52907E925AFC5AD4C1
:10D4F0007AD45AD45AD422D40510791002100400D8
:10D500000000100010502C5028522BD4FEC82A5076
:10D510003E582AD62B52365000523C92010E020041
:10D520000000102010202C5C28902AD2FFAC2AA4E6
:10D530003EBC2AA42AA436A400A03D22013E02003B
:10D540000000102010102CA228DE2B24FE202A42DE
:10D550003E7C2A482A88367000183C2600C2030008
:10D5600000002A20112472221DFC6A2811C4208286
:10D5700001000EF0092009200FFC00241FC800182C
:10D5800000002028102C13F07E2421FC21243DFCD7
:10D59000252425FC250A24FC4448484898380000E6
:10D5A0000000204010C021301E1E0DE0121832086D
:10D5B0001BF808207FFC08200FE008200FE008007F
:10D5C0000000080004043BF83E7822883C7822885A
:10D5D0003F88030001023FFC02A00C983084000049
:10D5E00000000000104017F8024003FC724813F8D6
:10D5F0001248104813F61C82156E150A0DFA000029
:10D6000000000000182011FE2604440448F8792484
:10D6100011F8212879F8012801D8788C0102060236
:10D620000000000400F87C2213FC11AC1020142030
:10D6300039FC100213FC1084187C600800380010BC
:10D640000000002820A820A827FC78A868A869FE68
:10D650006A24782461FC29242D24542C00200020E5
:10D6600000000080010421081EF0082008487748C7
:10D670003FFE22503E502A5029904892091E000039
:10D680000000001010D010903D2822444488B8F8C3
:10D69000104414CC3954115411CC1E7411DC000008
:10D6A0000000100010403C8828F05310FDEE552477
:10D6B0003D2454FC5430285000523C92411E02003C
:10D6C0000000100010401C4428F82B507E302A28FF
:10D6D0003EE42B102BFE3620006C1CA22120000003
:10D6E0000000040237FC154804D04CAE34D034E8B6
:10D6F00016C816C825982498291829242A461000E7
:10D70000000001003FFE444C3FF024403FF8091068
:10D710003EFE09200960080417FC7FE40038000081
:10D720000000004010200FFE00903CAC0BD40A44D7
:10D730001A7C365452B4129412F41204121C1000C3
:10D740000000000013FC12940294016C129032004D
:10D7500011F8110811FA10A419981EAC10C4008019
:10D76000000010001088213421F23EB02AFC2D5810
:10D77000489849244A4230801894225A42408000F6
:10D780000000002078A448A849FE487048AC4B200F
:10D790007C8009DE19786B68089E0908120804006D
:10D7A0000000004804923BEC1084117C1184390481
:10D7B00011F810FE11221F3261CA011A00FC00008C
:10D7C0000000000007FE3A98132813DC11983AF67F
:10D7D0001020110C11F8190861F8010801F8010076
:10D7E000000000000D7E3344244C24F42C4C35FC06
:10D7F000256C254C24F42ACC734C0204020C000046
:10D800000000000003FC39FC1208127812127E7C22
:10D810001220122212441E4865BC04880898018018
:10D820000000004007FC3A6413BC121211DE38906D
:10D83000109011FC10901890616C00C40302040059
:10D840000000042004463FF80C4408B83AC42CBC3D
:10D850002A841DB42AA42BA44CB4084C3082430261
:10D860000000090012E40F3C01243F2821281F304A
:10D870003FE852A43FA23FA2113E0F2408A030204F
:10D8800000001000104422283112202C50665498B9
:10D890007B30125C122A3E4851B016A0107E000068
:10D8A00000000820082028FC2C2028587E88100220
:10D8B0004BFC52785A986698627842085E082008B5
:10D8C00000000820084428842C8428842BC4148455
:10D8D000488452F85A505A50665262524E8E710025
:10D8E00000000108010878505790526C53F47054AE
:10D8F00053945298539872884388029402A200402D
:10D90000000001102122217C22547A886EB66AC25E
:10D910006ABC6AA432BC32A42ABC7224022C020063
:10D9200000001040102411DC55047DFC550055FE0C
:10D9300055247DBC59A416EC3B344224046C0000F1
:10D9400000001000109213EC5680577E560C547451
:10D9500055E854CC57705CB86758009403700020A9
:10D96000000000002088212E23CA690A6EFC6DC8C1
:10D970006F4C6D4C6D545DD405540462046200001C
:10D9800000001088108827DE388821DC7C8813DEB0
:10D9900010A87D0012FC100414FC180413FC0000F5
:10D9A00000001090109025FC389020967F6811247C
:10D9B00011FC7DFC1124112415D8198412020400D5
:10D9C0000000001031102B70375041AC7BF42574EF
:10D9D00025D47DD8274827482D58155404E2040043
:10D9E0000000184011422FBC44103FFC08100FF0FB
:10D9F000081007E03818224827F8210820380000CE
:10DA0000000000001020200227FC3D04497411543E
:10DA1000112411DC10A4108814F8188011FE0000E5
:10DA2000000010400AB814401AB812702A484F84F7
:10DA30000870095009200FFC00281FD8003800008A
:10DA400000002000211023FC1030284C68F067FEF5
:10DA500020C8231C22E823B422A422A422A6015811
:10DA600000000000102021FE209044927B6C10FCEE
:10DA7000210829F8110001201882628200F80000B4
:10DA8000000000000888312E23CA210A26FC7DC828
:10DA9000274C254C255425D43D5444620462000093
:10DAA0000000000003FC3EA422A4235C21042AFA07
:10DAB000325227F4225421F4285453AC001C0000A5
:10DAC00000001020102027FE382421D844FC3908FB
:10DAD00010F81448385011AC15541908110800F00A
:10DAE0000000100010FE25AC396C2154452438FC90
:10DAF000102414F8382010DC14941A5A124A00002A
:10DB00000000100011FC252438A820324FFC30A85A
:10DB100011261F0431FC112415FC192411DC00000E
:10DB20000000102010AC24B039FC20704CAE33281B
:10DB300011881DDE3358116814BC1908120804003E
:10DB400000001088109024263BF821644D54319C2D
:10DB500011041DFC3108100A17FC180810380000C9
:10DB600000000000304C2B3031164028782227D49A
:10DB700022287E58222E224A2B88131004FE0000F1
:10DB80000000100410F8242039FE20644CA03360FB
:10DB900011BE1D4C31D4117415541924110C0004FC
:10DBA000000000101E202A7C1AA405943E842B88B5
:10DBB0002A807F7E2A022A0A3E722A02341C000032
:10DBC000000010001C8424A428DC36AC7DEC35ACAD
:10DBD0003DAC34EC354C2DAC02847C84008C0000D0
:10DBE0000000102014202DFE282073265FFC536CAB
:10DBF0007FB453FC53702E7000A83F2602200020F3
:10DC00000000102014602DAC292473A45F2452FC62
:10DC10007E20522453DC2E4800303C70008E0300DE
:10DC20000000100425783D9049147F1855E655945E
:10DC30007DFC55967DA855B856A897280F4A000434
:10DC4000000000003FF83E8022A43E7822323E527F
:10DC500027CE084011887F7811880E783FFE00009B
:10DC60000000000411F8122027FE4A20782010201E
:10DC7000200248FC71FE0554195461540114000C33
:10DC80000000000010F8102027FC49FC31AC11B452
:10DC900021FC482431F800261FD86072025200008F
:10DCA0000000010801140FF8311010F011121EFCD1
:10DCB000314816B6184015F83940414C06C40040AA
:10DCC000000001081E3011CC1F3028C631782E38D4
:10DCD0001FD0109008A077DC05200918310600003D
:10DCE0000000002004463FB802201C2024D824A8AD
:10DCF0003C887E8C66825E7E520A52744604400CDA
:10DD0000000001002110239C2422784469B8691086
:10DD10006A1073FC20902F102D3C510006F600086D
:10DD2000000000203E202CFC3CA42CA453FC42A468
:10DD30003EFC22383E38225C3E5A22920F1E0000E2
:10DD40000000086011462EB8411001100EE002409C
:10DD50003FFC0FF011101FF00FF001180FE83FFC0F
:10DD6000000010000800347E142409A4366C4964B5
:10DD70004A247E2C3EF40A243C240B243C640000FC
:10DD8000000022001200147E6B244BA45D6C4964D9
:10DD90003724022C3EF422243E2422243E64000038
:10DDA00000001050105211FC21FC3F54255424AAAD
:10DDB000475648FC490839F8150821F840F8800012
:10DDC0000000000411FC1174272424F8782C08F2B8
:10DDD000110C21563E42002005FC782001FE000077
:10DDE0000000000404047FD40C5414842D4455D442
:10DDF0007554554627FC0504088408841004600403
:10DE0000000010401390109E7BEA11CA12D23CEE23
:10DE1000306050B8532614F8107013AC10E00000B6
:10DE20000000000010F8102213FC7C20582058201D
:10DE3000580459FC792419FC15247D2401DC0000C8
:10DE400000002A803BBE2AA42AA43BA82AA81428A2
:10DE500014A42F245FA424241FBC24203B200000F2
:10DE6000000010101C2225FC28247E58B4FC3484A9
:10DE70003CFC3448345228AC02FC7C8400FC00009A
:10DE80000000100808343FD4247819B019C82104C0
:10DE9000410402800C7E73801FF805203FFE0000C5
:10DEA0000000000010F8104217FC19D8104051C0B3
:10DEB000112412F816242BF8262423F8422601D820
:10DEC00000000040102411D822644A6479B81094EC
:10DED00021F841FC789201EC0CA8739804E600004C
:10DEE0000000024002583FAA26CC26E822A82BEECA
:10DEF00034AA28D0232C211810B06060039C04049D
:10DF0000000008481088308A3FFC30BC4FAA0A083D
:10DF100052025A7C5AA0469C42A03F60011E00005B
:10DF200000000090009079FC48A44BBC4AA479986A
:10DF3000492049FC4B244DF8712441F801FE0000B2
:10DF40000000000003FC7A644BFC4A644A6449B850
:10DF5000792C49F04F2C4DF049FC712001FC000058
:10DF60000000000003FC7A644BFC4A647A6449B800
:10DF7000492C79F04F2C4DF049FC712001FC000038
:10DF800000000800100010FC13241524492451241B
:10DF900011D811001900150013022082407C0000E6
:10DFA000000000200020012449A878B0482048DC67
:10DFB0004804480449FC78044004400401FC000083
:10DFC00000000000003C49C07840484048404BFCFD
:10DFD00048604860789040904108030C04060800AF
:10DFE0000000008000801F785000300831F0108061
:10DFF000310053FC10081008101020104070000071
:10E0000000001020102010401BFE1AC454A0512400
:10E0100011AC1310151019101108114410821000C2
:10E020000000100013FE220222464F665A9A728A9E
:10E0300022CA2356736602220E02720202060000F2
:10E040000000000010881090101411F878901296BB
:10E0500012941198119819906090409007FE00005A
:10E06000000000401040104011BC10A07CA011FE28
:10E0700011241324152415243924402400200020C1
:10E0800000000000080409F81640124814782F48D0
:10E09000496808487F480848089408B408CE00003A
:10E0A00000001000105010501450785210D418482E
:10E0B00034503050505051D211521052104C100068
:10E0C000000008201020102417F8382010201DF818
:10E0D00014203020502053FC10201020102000204D
:10E0E0000000008000401FB85080304017BC10A0D6
:10E0F00072A854A415241920212022104460000085
:10E100000000002001207F4041447F7C3F9809109F
:10E1100009302B302C3028300E4810442086430024
:10E1200000001000190409F801080108710811F82D
:10E1300011081108110811F02900460001FC000027
:10E14000000000880450385620A821FC24203FDC21
:10E150006710252024DC25183F1021280146018066
:10E1600000000000484078404BFC48407948492472
:10E170004AAC7AD04C60485078904088030604003E
:10E1800000000040108010842178460048A078A448
:10E1900010FC21A478A400AC0482388240FE000068
:10E1A000000000001124112421D846A048D079FE97
:10E1B000112023267DF8012405F8392041DC0100D7
:10E1C000000004101E903090109411943F9810900D
:10E1D0001C90379C5290909010921112121E0400C5
:10E1E000000000007E0E08307FD2144C2B844810B3
:10E1F000166E2542EA421C623A424942087E0000FD
:10E200000000001010A010A41BFC56A456A451FC42
:10E2100012A412A412A411581088110412020400AE
:10E220000000088008900888108810863FF850A4E5
:10E2300090AC10A811301122126212A2143E1800E4
:10E240000000102010602450388841147EE011E452
:10E25000125479D41254125419C4114411CC000030
:10E2600000001020082002243C38242014200BDC5D
:10E27000348802887E50425042203E50058E06006F
:10E280000000142024103EEC248425FC1A843E78DF
:10E290004A003E7C4A104AFC3410121062700000A2
:10E2A0000000100430F82488388840887CF8908872
:10E2B00014887C8810F810881488188A117400005B
:10E2C00000000000180408FC2004218422442C7C57
:10E2D0003184202427C4244423C42004201C0008A3
:10E2E00000000000000C00087F7000200000000CFF
:10E2F00000087F7000200000000C00087F700020E4
:10E30000000000000000000000007FFC400C580CE2
:10E31000580C580C580C580C400C7FFC00000000A6
:10E3200000000000000000003FD800003FC00000D7
:10E330000000000000003FD800003FC000000000C7
:10E340000000000000C000600FF01FF030603000DF
:10E3500030003060183807FC06380C600CC006002E
:10E3600000000000000003E007E0060006000600D1
:10E370000380018000C000C00000000001C00080D8
:10E3800000000000000055500010000000100000C8
:10E3900001C403FC063C061C063C020051800080C0
:10E3A0000000000000000000000007C00FE01FF0A8
:10E3B0001FF01FF01FF01FE00FC0038000000000DF
:10E3C00000000000000007800C4008200820082002
:10E3D0001FF01FF01FF01FF01FF01FF01FF00000D4
:10E3E000000000000EC00860082008200020002067
:10E3F0001FF01FF01FF01FF01FF01FF01FF00000B4
:10E400000000000003C00C30100820044E644FF2DE
:10E410004FF24FF247E243C221842008181807E068
:10E4200000000000000000000170067C0C780872FB
:10E430001061104110011001100108020C06060CB9
:10E4400000000000000000000000004000E001F0BB
:10E4500001F001F003F003F803F807FC000000E00E
:10E4600000000000000000001000084004E001F07F
:10E4700001F001F003F003F803F807FC000000E2EC
:10E4800000000000000000000000000000C000C00C
:10E4900000C000C002C803D801F000E00040000046
:10E4A00000000000000003800380038003800380DD
:10E4B00013901BB01FF00FE007C0038001000000A5
:10E4C000000000000000000000000000004000E02C
:10E4D00001F003D802C800C000C000C000C00000A6
:10E4E000000000000000000000000000000000002C
:10E4F000000000000000000000000000000000001C
:10E500000000000000000000FFFEFFFEFFFEFFFE17
:10E51000FFFEFFFEFFFEFFFEFFFEFFFE00F00070AD
:10E520000000000000000000000003FC31FC780C3B
:10E53000FC0C300C300C301E301C3F883FC00000FB
:10E540000000000000C001C001E001200330FE1FF8
:10E550006001300318060C0C0C080C0C0C0C09ECB8
:10E5600000000000001800180038007000E003E010
:10E5700007FFE7FFE7FFE7FEE7FEE7FEE7FCE7FC54
:10E58000000000000000000000000000BFF1BFF329
:10E59000BFF73FF73FF73FF33FF13FF000000000C8
:10E5A0000000000000000000FFFE7FFC3FF88FF23B
:10E5B000C7C6F38EF83EFC7EFFFEFFFEFFFE0000A6
:10E5C0000000000000000000000000000000FE004D
:10E5D000FE00FE00FE00FE000C0004000000000033
:10E5E00000000000000000000000000000001E000D
:10E5F0006E00420047007A000000000000000000AA
:10E6000000000000000000000000000018001800DA
:10E61000E7004200240024003C000000000000004D
:10E6200000000000000000000000000002000600E2
:10E630000C00DF80DF80DF00DF00DE000000000074
:10E6400000000000000000000000000000000000CA
:10E65000FD80FF807D800080000000000000000041
:10E660000000000000000000000000000000FF00AB
:10E670003E009D80E380F780FF80000000000000E6
:10E6800000000000000000000000000003F8020885
:10E69000020802080208020803F800000000000057
:10E6A00000000000000000000000000003F803F874
:10E6B00003F803F803F803F803F800000000000073
:10E6C00000000000000000400842040003F803F8C6
:10E6D00003F81BFB03F803F803F8040008420040AA
:10E6E00000000000000000000000000000007FE0CB
:10E6F0004020402040205FA05FA07FE0000000009D
:10E7000000000000000000000000000000007FE0AA
:10E710004020402040207FE07FE07FE000000000BC
:10E720000000000000000000000000007000700009
:10E7300070006FE0682048204FE071000380000007
:10E7400000000000000000000000000000003E008B
:10E75000200020003FE03C207C2007E0000000007B
:10E7600000000000000000000000000000000200A7
:10E77000038003C0038003000000000000000000CD
:10E78000000000000000000000000000000006C0C3
:10E7900006C006C006C006C006C00000000000009B
:10E7A0000000000000000000000000000000000069
:10E7B0000000000000000000000000000000000059
:10E7C0000000000000010000000000000000000048
:10E7D0000000000000000000000000000000000039
:10E7E0000000000000000000000000000000000029
:10E7F0000000000000000000000000000000000019
:10E80000000000003FF07FFCFFFEFFFEFFFFFFFF68
:10E81000FFFFFFFFFFFFFFFFFFFFFFFEFFFE7FFC8D
:10E8200000000000000000000000000000000000E8
:10E8300000000000000000000000000000000000D8
:10E8400000000000000001000FE01FF03FF87FF81B
:10E850007FFC7FFC7FFC7FF83FF83FF01FE007C0A4
:10E8600000000000000000000000000000000000A8
:10E870000000000000000000000000000000000098
:10E8800000000000000000000000000008600CE034
:10E8900006C00380038006C00C6008200000000052
:10E8A0000000000000000000000000000000000068
:10E8B0000000000000000000000000000000000058
:10E8C000000000000000000000000000000007C081
:10E8D00003C007400740074003C0000000000000DD
:10E8E00000000000000000000000000000803D006B
:10E8F00023F035900A0801301F00000000000000DE
:10E90000000000000000000000000000000000FC0B
:10E910001C8400E80490078000FC00000000000058
:10E920000000000000000000000000000000046083
:10E9300002C00180038006400000000000000000CB
:10E94000000000000000000000000000000007E0E0
:10E95000042007E007E0042005200000000000007C
:10E9600000000000000000000000000000000300A4
:10E9700006000FE007E00300018000000000000037
:10E980000000000000000000040006000A000A0069
:10E9900071E02040118010802680398020400000E6
:10E9A0000000000000000000000000000FF8080850
:10E9B0000808080008100F7E007E007C003C00184C
:10E9C0000000000000000000000000000000000047
:10E9D0000000000000000000000000000000000037
:10E9E0000000000000000000000000000000000027
:10E9F0000000000000000000000000000000000017
:10EA00000000000000000000000000000000000006
:10EA100000000000A0004000000000000000000016
:10EA200000000000000000000000554000004D40C4
:10EA30000E0040401E001F004040554000000000F6
:10EA400000000000000000000000654000005D4084
:10EA50001E0040401B001B004040654000000000BD
:10EA600000000000000000000000654000005D4064
:10EA70001E0040401A001B0040406540000000009E
:10EA800000000000000000000000654000004A4057
:10EA90000A00444017001B00404065400000000091
:10EAA0000000000000000000000057C017005E409A
:10EAB0001700584053404B40584057C000000000DA
:10EAC0000000000000000000000057C03F0055405B
:10EAD0003D00584053404B40584057C00000000094
:10EAE0000000000000000000000057C01B005B4059
:10EAF000130040405B405A405B4057C0000000009C
:10EB00000000000000000000000000000000000005
:10EB100000000000000000000000000000000000F5
:10EB200000000000000000000000000000000000E5
:10EB300000000000000000000000000000000000D5
:10EB400000000000000000000000000000000000C5
:10EB500000000000000000000000000000000000B5
:10EB600000000000000000000000000000000000A5
:10EB70000000000000000000000000000000000095
:10EB800000000EFCEA08AA08AAE8AAA8ACA8AAA84D
:10EB9000AAA8AAA8EAE8AAA80C0808080828081041
:10EBA00000007DFE4408480849E8512849284928C2
:10EBB0004528452845E86928500840084028401065
:10EBC000204020802110220827FCF904210023F88E
:10EBD0002440204027FE3840E0A0411002080C06E7
:10EBE0002040208021102208F7FC2104210023F876
:10EBF0003440E0402FFE204020A02110A2084C0607
:10EC0000011001107BFC4910491048004A084A08CD
:10EC10004910491078A0484000A0011002080C06D5
:10EC200000400080F110920897FC9104910093F845
:10EC3000944090409FFEF04090A0011002080C0606
:10EC400002000100FFFE000000001FF01010101075
:10EC50001FF0028004440C283410C5080606040086
:10EC60001020112421247D2445FC440045FC44044B
:10EC70007C0445FC4500450045027D0244FE000041
:10EC8000008000401FFE100093F8520853F8100057
:10EC900037BC54A497BC10402444244447FC80044F
:10ECA0000820FFFE082043F8220823F80208E3F8B2
:10ECB000210023FC244422A42A0433F42014000855
:10ECC000201C21E03C20502093FE10A81124FE427D
:10ECD000104013FE1088290824D044304048818415
:10ECE00004400440FFFE04400020082008200440A7
:10ECF0000440028001000280044008203018C00651
:10ED0000000001F8FD0811F8110821F83C0065FC2D
:10ED10006410A7FE241025103C90241020500020E1
:10ED2000000801FC7E10221011207FFE42028204A6
:10ED30007FF8040007F00A10112020C043301C0E99
:10ED4000020879084910480057FC50006110520829
:10ED50004C044BF84AA86AA852A842A84FFE4000AB
:10ED600028402820FC202BFE3A0214447C4057FE09
:10ED700054887C881108FCD010201050108813048F
:10ED800020003FFC40009FF000007FF004107FD087
:10ED900040500810FFD01112320A0C0A1B06608284
:10EDA000020001003FFC2004420802000200FFFEB6
:10EDB0000420082018400640018002600C107008F2
:10EDC000084008800BFC11101248344633F85248B2
:10EDD000924813F81248124813F810421042103E9D
:10EDE00010401020102013FEFA02144410401BFEA5
:10EDF0003088D088110810D010201050508823047B
:10EE0000008000407BFC4800490848904FFE780095
:10EE100049F84908490849F87908490801F80108FA
:10EE20000100210821083FF800003FFC20002FF8D6
:10EE3000208020803FFE20804080408080800080B5
:10EE40000040782048204BFE4A027C4448404BFE5C
:10EE500048887888490848D04820485048889B040A
:10EE600001007FFC40040400FFFE08201E4003C098
:10EE70003C380100FFFE054009203118C1060100A1
:10EE800000403C20240025FC24003C0024F0249079
:10EE900024903C902490249224924512550E8A008E
:10EEA0003FF820083FF820083FF800000C0070FCF5
:10EEB0004084408440844C8470944088008000806A
:10EEC000010001001FF011101110FFFE02800C6004
:10EED0003018C0063FF8244824482448FFFE0000AC
:10EEE00000007C7C444444444444444444444444FA
:10EEF000444447C440044004400440047FFC4004B0
:10EF00000820082008207F3E08443E440844FFA40F
:10EF100010281E281210121022282A484484810228
:10EF2000082008207F20087E7E4408A4FF281010B7
:10EF30001E282244468280002488224442448004C1
:10EF4000100021DC7C4444447D5444CC7C44104477
:10EF5000FE4C28D4556492447C44104411541088CB
:10EF60002008103C01E0FC200820102011FE342075
:10EF70005820945014501050108810881104120218
:10EF8000121012101FD022202FBE6244BFA42424CE
:10EF9000242427A824A8249024A829A8284430821F
:10EFA000020004003FF82008292825482FE82548BA
:10EFB000292820080100FFFE02800C603018C006DE
:10EFC0002080210027FC24443554AC44A7FCA4E451
:10EFD000A554240420402FFE20A0211022082C0636
:10EFE0000080210017FC14448554444447FC14E479
:10EFF00015542404E0402FFE20A0211022080C0606
:10F0000008200820FFFE082000003FF82108210802
:10F0100021083FF820002002200220021FFE0000ED
:10F02000200427C424442454FC5427D422142A1432
:10F0300037D4E2542254225424442444A9545088FE
:10F040001000102011201120FD201120112015206A
:10F0500019203110D210121012081408540428027A
:10F0600000000020792049204920492049204920DA
:10F070004920491079104A100208040808041002B7
:10F08000000003F87A484A484A484A484A484BF838
:10F090004A084A007A004A020202020201FE000007
:10F0A000104010403F7E2890450880003FF821081E
:10F0B000210821083FF820002002200220021FFE24
:10F0C0000000004004400440044004400440042088
:10F0D0000820082008101010100820082004400202
:10F0E000008000401FFE1000900053F85248124864
:10F0F0003248524893F812002202220241FE800058
:10F1000000003FF8210821082108210821083FF8C4
:10F110002008200020002002200220021FFE000004
:10F120001050104810481040FBFE1080148018FC4E
:10F130003144D1441128112812101228544421823C
:10F1400000507C484448444047FE7C80108010FCBE
:10F150005D445144512851285E10E2280444018244
:10F16000280029FCFD242924392411247D2455FC60
:10F1700055047D001100FD001102110210FE100067
:10F18000100011FC11241124FD241124112415FC5C
:10F1900019043100D10011001102110250FE2000AB
:10F1A0001000100011FCFD24112479241124FD24E9
:10F1B00011FC3900350055009102110210FE1000BB
:10F1C000100011FC110411041124FD241124112438
:10F1D0001124112411241C50E0484084010206022D
:10F1E0003FF801007FFE41029D7422007F7C224493
:10F1F0003E44087C7F4449447F7C0844FF5408888F
:10F2000000007FFC444444447FFC010001003FF8BF
:10F2100001000100FFFE0400082010103FF8100854
:10F22000044008201850248803000CC03030C00E61
:10F230001FF0111011101FF01010100410040FFC1B
:10F240000100020004003FF82008200820082008E0
:10F250003FF8200820082008200820083FF8200850
:10F2600010201020104011FCFD0411043104390459
:10F2700055FC5504910411041104110411FC1104EE
:10F280000000FFFE0100020004003FF820082008F3
:10F2900020083FF820082008200820083FF8200810
:10F2A000100013FE12521252FBFE1020142019FC03
:10F2B0003020D02017FE10401088110453FE210288
:10F2C00008000BFE08201020104031FC31045104CE
:10F2D000910411FC110411041104110411FC110416
:10F2E00000407C404440548054FE55085688548861
:10F2F00054885450545010202850248845048202C9
:10F3000004001EFCF020102010FCFE20102010FC39
:10F310001020FE2011FE10202020202040208020E0
:10F3200008401C80F1FC11241124FDFC11243944F7
:10F3300035FC5490511093FE101010101010101046
:10F3400000000200F93E21082FC820882488FA888E
:10F3500022BE210821083A88E2884448087E00003D
:10F3600000800080F8BE2288228822882288FABE87
:10F370002288248820883908E108423E04000800D9
:10F380002100223C27A424A4F6A425A424C22F8073
:10F3900034BCE4A426A425A424942488A49449A2DB
:10F3A0001008101C11E01100FD0011FC114415445F
:10F3B00019443128D12811101110122852442482E6
:10F3C000080010783E48224832482A862A00FEFC6F
:10F3D000224432442A282A28221042284A4485827C
:10F3E000000029FE2820244045FC450481247D247A
:10F3F00025242524252425442450448855048A02A4
:10F400001008101C11E01100FD0011FC31443944BA
:10F4100055445528912811101110122812441482B5
:10F420000808481C49E0490049007DFC414441442A
:10F43000794449284928491049104A284A448C826D
:10F440001010109010901088FD081104120415FA85
:10F4500018883088D0881088110811085228241084
:10F4600010201020112410A4FCA8102011FC14203E
:10F4700018203020D3FE10201020102050202020F3
:10F4800008400A4409481150104037FC30405040B1
:10F4900090401FFE1040104010401040104010409F
:10F4A000409021C82708FD3E058055542548FD7E23
:10F4B00025482548755C25282508494849A89128EC
:10F4C0000100210811080910092001003FF801007E
:10F4D00001000100FFFE0100010001000100010028
:10F4E00002000200020002007FF002100210121857
:10F4F00012142412441208100810101020A04040CA
:10F5000010201020212424A444A8F82011FC20203D
:10F510004020FC2043FE00201C20E0204020002052
:10F520000800087C0844FF48084808507E480848FE
:10F530000844FF4408441068105020404040804078
:10F540000800087CFF4808507E480844FF541048D3
:10F5500020404100BFF82108210821282110010086
:10F560002100211E21122FD2F114211427D8711449
:10F570006912AFD2A112211A2214221024102810CD
:10F580001040102013FC1108FC9013FE32023C4482
:10F59000542053FC908010F8108811081128121084
:10F5A000004078204BFC490848907BFE4A024C44BE
:10F5B00048207BFC488048F84888490849289A1028
:10F5C0002100211E211247D25114F11427D82114F1
:10F5D0004112F7D24112011A3114C2100210041064
:10F5E0001020102013FE1020FDFC104033FE388840
:10F5F0005524522290F8102013FE102010201020C5
:10F6000000400020FBFC2108209043FE7A024C447D
:10F61000C8204BFC488048F8788849080128021027
:10F620001020102010207DFC54205420542055FC24
:10F630007C205020102017FE1C20E42040200020B9
:10F64000204020203BFC210840907BFEA202244465
:10F65000F82023FC208020F8288831082128021077
:10F660001080104017FC2208211067FE6402A88455
:10F67000204027FC210021F82108220822282410FC
:10F680000040202013FC1108009003FEF2021444F5
:10F69000102013FC108010F814881908112802108B
:10F6A00004400440FFFE044008001FF020105F905B
:10F6B000109010901F901050102410040FFC0000A8
:10F6C0000080788049FC49044A047DF449144914B7
:10F6D000491479F4490449284912490248FE98001E
:10F6E000080008001FF0101020105F9090901090FC
:10F6F00010901F9010501020100410040FFC0000F8
:10F700000100FFFE08000BF8120833F8504097FE86
:10F7100011501248030004880C503530C60E040006
:10F7200000047E0402043E240224FFA408240924C9
:10F7300049242A241C242A24C90409042814100852
:10F740000820FFFE0820004827FC104013F88248DC
:10F7500043F84A480BF81248F01027FC22102130D9
:10F760003FF801007FFE41029D7401001D700800FA
:10F770001FF020105F9010901FD0102010040FFC7D
:10F7800008000BF80A081208120833F830405040FD
:10F7900097FC10E0115012481444184210401040D9
:10F7A00008000BF8120833F8504097FC115012482B
:10F7B0001446114001003FF801000100FFFE000067
:10F7C0002080208021FC39044A0455F4811421143E
:10F7D000211421F4210421282912310220FE0000E5
:10F7E000020001007FFE4002800400007FFC010057
:10F7F000010001003FF8010001200110FFFE0000A0
:10F800001080108011FC1104FA0415F4111419145D
:10F810003114D1F4110411281112110250FE2000EC
:10F82000100011FC11041104FD141108110015FC45
:10F8300019443144D1281128111011285144218232
:10F840001FF010101FF010101FF008207FFC082080
:10F85000FFFE08203118C92605400920151022088E
:10F860000C403040C28014FC49043204C804150422
:10F870002484CC4414442404C40404042828101010
:10F88000204020407CFC448489047EF454945494A9
:10F890007CF4548454947C8800821C82E07E400076
:10F8A00011FC110411FC150459FC508853FE90887A
:10F8B00017FE108811242AAA247040A841248060D1
:10F8C0001000100013FE1020FC201040384034D0EF
:10F8D0005148524494441040104010401040104091
:10F8E00000400080FDFC1124112421FC3D246544CE
:10F8F00065FCA490251027FE3C1024102010001059
:10F90000044004407C7C044004403C7804400440B3
:10F910007C7C0440010008844892481287F0000073
:10F92000020004003FF8210821083FF822082208BD
:10F930003FF808801080FFFE00800080008000807B
:10F94000044004400440044404487C5004600440E3
:10F9500004400440044004421C42E442443E04008B
:10F9600004407C7C04403C7804407C7C06400200DF
:10F970003FF8050009001FF00100FFFE0100010033
:10F98000048004987CE004841C84E47C40001FF024
:10F9900010101FF010101FF0101010101050102039
:10F9A00000001FF010101010101011101110111085
:10F9B00011101110121002800440082010102008AD
:10F9C000100011FC3D0421044124BD241124112404
:10F9D000FD24112411241050144818841102060229
:10F9E000088008400BFC100012083108311057FE47
:10F9F0009000100013FC12041204120413FC1204F1
:10FA0000000045FC290411042924492489240924DF
:10FA100019242924492488500848088451022602C0
:10FA2000040004000FF01820644003801C70E00EF6
:10FA30001FF0111011101FF0111011101FF01010F5
:10FA400008000FF010202C4003801C70E00E1FF007
:10FA500011101FF011101FF001004884481287F2A6
:10FA60001040102011FC100055085890500093FED3
:10FA70001000100011FC29042504450441FC8104F8
:10FA8000201010100010F9FE09121114151039FC85
:10FA9000554491441128112811101228124414823F
:10FAA000020002007FFC044009203118CFE601006B
:10FAB000092008207FFC082008201020102020208A
:10FAC00008200820FFFE0820010001007FFC0380C1
:10FAD0000540092011102FE8C106010001000100B6
:10FAE00001000100010001007FFC0380054005408A
:10FAF0000920111021084FE48102010001000100DA
:10FB0000104010403F7E4890850801007FFC038034
:10FB10000540092011102FE8C10601000100010075
:10FB20000100210821083FF800003E7C22442244C5
:10FB30003E7C224422443E7C224422444A9485084E
:10FB4000200027BC24A444A454A4F7BC24A424A4C7
:10FB500044A4F7BC44A404A434A4C4A40AA4114C2F
:10FB60007FFC01000770190CE10200003FF821083A
:10FB700021083FF8210821083FF841084128811059
:10FB80000000FFFE040008001FF02810C8100FF04E
:10FB9000010001047D88095011202118C5060200CA
:10FBA00000207A224A224BFE48007BDE125212527B
:10FBB00053DE5E52525253DE5A52E252055A08A4A4
:10FBC00002082110100017FC01100110F11017FE9F
:10FBD00011101110121012101410280047FE00000E
:10FBE000000027FC100013F8020803F8F00017FCCF
:10FBF000144417FC144417FC1404280047FE0000AA
:10FC000002001FF010101FF010101FF000003FF84E
:10FC100021083FF821083FF80000FFFE08201020CF
:10FC20000080208020802084208820903EA020C05A
:10FC3000208020802080208226823882207E000042
:10FC40001F00113E11221F2404247FE804243FA436
:10FC500020A22EA22AA22EB420A83FA020A00020DD
:10FC6000104010403F7E4890850800F83F0001009A
:10FC700001F83F00010001FC7F020102010200FEC9
:10FC800008200820102023FE4A220A24122033FCD8
:10FC90005284928812481250122014501488190667
:10FCA0000020FE4010FC7C8410FC1E84F0FC000050
:10FCB0007FFC040008003FF0C81008100FF0081087
:10FCC0000820FFFE082002003FF82448238824482B
:10FCD0003FF8000020843E9820E020842684387C71
:10FCE00004400440FFFE0440082049202A3E7F448F
:10FCF00049A449245D286B28491041284544428283
:10FD00002080208820B03EC0208020842684387C3B
:10FD100021000100FFFE01000100010001000100BF
:10FD2000410041187DE041044D0470FC0000FFFEDD
:10FD3000108010883E9042E0148008843084C07C9B
:10FD40002080208820B03EC0208020842684387CFB
:10FD50000100009048A4484289820E101810E7F074
:10FD6000000801FC7F00010001003FF82108210884
:10FD7000210821082108212821100100010001008B
:10FD8000010000803FFE2000242024202424242879
:10FD9000273024202420242245224622841E0000CD
:10FDA000008000401FFE100093F8524853F812489C
:10FDB00033F850009FFE11102110211042108410C2
:10FDC000200017FC0004408440845FF44084418498
:10FDD000428444844884508442844104401440084E
:10FDE0000810491029102A20083E7F44492449243C
:10FDF0005D246B28492849104928412845444282FE
:10FE0000082049202A3E7F4849485DA86B104928B0
:10FE1000434608200820FFFE082010202020402014
:10FE20000000040002100110012008202848284486
:10FE3000288449024A028C120810181027F040004A
:10FE400000407C20442045FC44007C88405041FE1A
:10FE50007C206420A5FCA42024203C202420002019
:10FE600000407C2045FC44887C5043FE7C20A5FC5F
:10FE700024203D2001003FF801000100FFFE0000AA
:10FE80003E1022FE3E4420287EFEA2103EFC2210A0
:10FE900000001FF010101FF010101FF01010103095
:10FEA0000010478824BE248004A20794E43E28085A
:10FEB0002F8834BE24882788248850008FFE0000B5
:10FEC00002207A244A2853B05220622252A24B1EAA
:10FED000484048406BFC50404040404047FE400096
:10FEE000288028FEFE90297C395413547D7C55547B
:10FEF00055547D7C1190FF5011201130114811860E
:10FF000000402040104013FC00440044F0441084A2
:10FF100010841104110412281410280047FE000058
:10FF20001080104023FC22044A04FBFC1200220033
:10FF300043FCFB54435405FC1D54E5544944010C57
:10FF400000087C3C45C044005420541055FC540427
:10FF5000540854105420104028802540423E800010
:10FF6000020001003FFC200420043FFC2000200090
:10FF70002FFC292429242FFC492449248924080CF6
:10FF8000100017FE104027FC2444644467FCA4447E
:10FF9000244427FC224021402080214022302C0E86
:10FFA00002000100FFFE04401450244844440000B5
:10FFB0003FF0082004400280010006C01830E00E27
:10FFC0000200010001000000FFFE020002000240EA
:10FFD00002200210021002000200020002000200D1
:10FFE0002010108810887CBE00802A941288FEBEE3
:10FFF000128810887C9C11081108220824084008E7
:020000040801F1
:100000002010120811087D3E00002B141108FD3E3F
:10001000110811087D1C114811882108200840088A
:100020002010108810887D3E01402BD41088FCBE23
:10003000110813C87C1C100810C8230820084008A9
:100040000080204013FC1204020403FCF20013FCA5
:100050001354155415FC19541144110C280047FE73
:10006000100011FC10001000FC0013FE302038209E
:1000700055285524922412221422102010A010403A
:100080000400078404043FC8245027243C842388A8
:1000900020102F24290429084912512290FE200003
:1000A00000007BFE485049FC4954795449FC480003
:1000B00049FC78004BFE482048A849244AA29840B1
:1000C000010001007FFC010001003FF80100010078
:1000D000FFFE0500088818502820C9180A060C00E1
:1000E00049202A3E7F4849485DA86B1049284FC6E1
:1000F00010403FF051101FF011101FF00000FFFEE4
:10010000082049202A3E7F4449A45D286B284910D5
:1001100049284346010008844892481287F00000AD
:1001200000047F044104412441247F24102410242E
:10013000FF24112411241124210421044A148408C9
:1001400000803FFE210027F8A40867F8240827F85C
:100150006408A7F8212026183A664388420881F8E7
:100160001082108210841088FBD01082308239C433
:1001700055A852909282148210841088109010A07A
:100180000010201411D20012FC100BFE0810489031
:10019000289012D012902A902A8A4AEA87060202F0
:1001A0004200227E2A108BA04A7C4A441FD420544D
:1001B00022544AD4CAD44B54512042284444188271
:1001C0000080204017FE1402881443E04A000A0011
:1001D00013FC1210E2102FFE20002110220804044C
:1001E000020001007FFE400280741F80100010009A
:1001F0001FF810801080FFFE000008401020201023
:100200001040102013FE1202FC1411E01100150022
:1002100019FC3110D11017FE100010905108220463
:10022000002000F01F00100010001FF81080108048
:1002300010801080FFFE00000840102020104008B1
:100240000040404020402044006807701160115079
:100250002150E24822482444284220402140008086
:10026000100013FE10201020FC2013FE32223A2230
:100270005652524A928A130212021202120A1204AF
:100280000000FFFE0100010001007FFC4104410469
:10029000428442444424482440044004401440081A
:1002A00000F83F0001007FFC01003FF80108FFFE5D
:1002B00001083FF80380054009203118C1060100FC
:1002C00021042084208838004BFE508880882088B4
:1002D000208827FE20882088290831082208040861
:1002E000100013FE10201420582053FE5222922298
:1002F0001252124A128A2B0226024202420A820437
:10030000008000401FFE1000900057FC504010403D
:1003100037FC544494A4151426142404441484086B
:1003200010100810082000007FFC0820082008207A
:100330000820FFFE08200820102010202020402048
:1003400000200020F82023FE222222242220FBFC71
:100350002284228822483A50E22044500488090628
:1003600004400440FFFE04402020102013FC82249F
:1003700042204BF80A881288E25024202450298C0D
:10038000207827C022482150FBFC215022482C060F
:1003900033F8E248224823F822482248A3F84208CA
:1003A0001040104812441240FBFE1080148018FCCC
:1003B0003144D14411481250122014505888230659
:1003C000102010203C20202041FEBC7010A810A856
:1003D000FD241124122210F81420182010200020CF
:1003E00000202020102013FE822242244A200BFCF1
:1003F00012841288E24822502220245024880906C0
:10040000205020482FFE204027FCFC4427FC244499
:1004100027FC244420082FFE220821082128201030
:10042000082008207F20082008FC7F244124822403
:100430003C24042408240F447844088429281210FA
:100440001028102413FE1020FDFC112411FC15248B
:1004500019FC3124D00813FE108810485048201889
:10046000102010203C4021FC4104BD041104110463
:10047000FDFC1104110411041504190411FC0104FC
:10048000104010403F7E48908528104009FC4904E8
:100490002104250405FC09047104110411FC110454
:1004A00008400840088013FC12043204320452044D
:1004B00093FC1204120412041204120413FC12041A
:1004C000010002001FF010101FF010101FF00100BB
:1004D00001003FF821082108212821100100010016
:1004E000081010103E2022FC32842A842A84FE84C4
:1004F00022FC32842A842A84228442844AFC848412
:10050000002078204BFE482048207BFE4A024C0405
:1005100049F8781048204BFE4820482048A09840D1
:10052000002878244BFE482049FC792449FC4924C2
:1005300049FC792448084BFE4888484848489818A0
:10054000021082105FD00210823E5FD25052209281
:100550002F124112C21243925E2242224A4A04845E
:1005600000402040108013FC820442044A040A0424
:1005700013FC1204E20422042204220423FC0204D9
:100580000008F888085048204850488849007C08EE
:10059000048804881C50E450442004502888130622
:1005A0001048104417FE1040FC4013FC124416443F
:1005B0001BFC3244D24413FC12441244525422080D
:1005C000020002000200020002000280024002203B
:1005D00002100210020002000200020002000200EB
:1005E00000480044F7FE9040904093FC92449244AF
:1005F00093FC9244F24493FC0244024402540208E5
:100600001040084000407E400240046008501A48F4
:100610002C444A440A40084008400840084008402A
:100620001020104011FC110411FCFD0011FC1104FC
:1006300011FC10201C20E3FE4020002000200020A0
:1006400000007FFC008000800100010003400520C5
:10065000091011082104410481000100010001007A
:10066000020002000200FFFE0400090011003FF832
:1006700051089108110811081128111001000100FA
:100680000100010011F8110011001100FFFE01002E
:10069000010011081110212040C003001C00E000DF
:1006A00020403F7E4890854827FC104013F8824840
:1006B00043F84A480BF81248F01027FC221021306A
:1006C0001000083E7FA2002421241228FFE4002409
:1006D00000223F222122213421283F2021200020F6
:1006E00010401040104013FE188054A0512051FCBF
:1006F00093241524112411241134112810201020C2
:100700002080204027FE2402FA2423BC24A42AA807
:100710003510E2E824042BFA20402248A44440C0CB
:10072000002044202BFE102029FC48208BFE0800CE
:1007300019FC290449FC890409FC09045114210805
:10074000084008487F4408440840FFFE1040084421
:10075000FF4410442928662AA212292A3046208202
:100760000808080808080808FEFE080818181C18D9
:100770002A282A28484888880808080808280810CD
:100780000080008000800080FFFE018002800280E7
:100790000480048008801080208040800280010056
:1007A00000107C104410541055FE54105430543036
:1007B000545054505490111028102410445080204C
:1007C0000008003C7BC048444A247928490048205E
:1007D0007BFE487048A848A879244A2204200020BB
:1007E00000087C3C45C0444445247CA8108010206F
:1007F0005DFE507050A850A85D24E2220420002025
:10080000001000F83F00020011100910082001003C
:100810007FFC03800540092011102108C10601005A
:1008200001000784780408884490252220020404EB
:100830007F880C101622150224844408841004605A
:1008400008200820FFFE0820001000F83F001110CB
:10085000082001007FFC054009203118C106010075
:100860000440FFFE044010801EF8228854502820C7
:1008700017D82006DFF001001110210845040200FE
:1008800008000F7828087F28A11017283AC4CD60E7
:100890003FF8C8260FE008200FE808D00A300C08FF
:1008A0000200044008201FF002007FFC0820109086
:1008B0002308CC4601800610182000C007007800ED
:1008C00000003FF801000200FFFE0440082031183C
:1008D000DFF6111011101FF0110001087FFC200439
:1008E00000500048FC40205C21E03C40445E47E072
:1008F00064449448083008221052208A430680023B
:1009000021002102211C2FD03210AA10A51EA7D42D
:10091000A114211421D42F1425142124212421448D
:1009200020802090210833FCA840A7FEA110A248F7
:100930002C862310202020C42308203020C027002C
:1009400010201020102010205524592451249124C7
:100950001124112411242924252445FC400480005D
:1009600008200820FFFE08200920028004400820FB
:100970003018CFE60820082008A80848080807F81B
:10098000102020207C504450648855045602FCF806
:100990004488648854A8549044824482547E8800D9
:1009A000010001000280044008203018C0060FE05A
:1009B0000820082008A008440804080407FC0000D8
:1009C0000040404020A02110020884044BF2421055
:1009D00012102210E25022202204220421FC0000E6
:1009E0000440FFFE044800241FFE502057A0752439
:1009F00017A4F4A857A85510951227AA204640829C
:100A000023F82208220823F8F80027BC24A42CA4E9
:100A100037BCE0402FFE216022502448B8464040B9
:100A2000101010509650557C58901010FCFE33005A
:100A3000397C55445544917C1144110012FE140038
:100A40001090109017FE1090FBFC129433FC3A9417
:100A500057FC500091F8110811F8110811F811080D
:100A600004400440FFFE04403FF824483FF8244877
:100A70003FF800001FF010101FF010101FF01010B2
:100A800004400440FFFE044000001FF010101FF05F
:100A900010101FF00100FFFE010001000100010025
:100AA00000003FFE20002F8428A428A42AA42AA402
:100AB0002AA42AA42AA42224250444844894900821
:100AC000104010403F7E489085080100FFFE010065
:100AD0003FF821082388255809201110610C0100D6
:100AE000100417C414442454255465546554A55463
:100AF00025542554255421042284224424142808F2
:100B000000001E7812481248124812481248FFFE90
:100B100012481248124812481248128826A841105A
:100B2000000427C4144414548554455445541554A2
:100B300015542554E5542104228422442414080821
:100B400000003FFC200420043FFC200020002FFC7C
:100B5000200020003FFE2100221044084FFC8404A6
:100B60000104788848004BFE4A227AAA12721222A7
:100B700053FE5C0051FC510459FCE10401FC0104EA
:100B80002008203C27C02040F8402FFE204029406C
:100B9000365CE4442444275C24442444A7FC4404F5
:100BA00000003FF01010121011200920082004400E
:100BB0000440028001000280044008203018C00672
:100BC00008200820FFFE0A2002000400FFFE0800A3
:100BD0001040304053FC90401040104017FE100071
:100BE00008200820FFFE0820092002800440092078
:100BF0003118DFF60100092011102108050002005C
:100C0000010001007FFC054009203118C1061FF0DA
:100C100010101FF010101FF010100000FFFE000059
:100C200000200020FBFE207020A841247A2249FCED
:100C3000C90449FC490449FC7904480003FE00004A
:100C40001088108813FE1088FCA8105010881524F6
:100C50001A2231FCD02010A81124122250A02040CA
:100C600001007FFE400290841EF822885450282004
:100C700017D82006DFF001001110210845040200FA
:100C80000440082010102FE8C4260420082010A0DB
:100C90006040010001002108210821083FF80008F8
:100CA000082004407FFC010001003FF80200020020
:100CB000FFFE0400080017F82080408080801FFCA1
:100CC00000402020102013FE02020404F03813C05C
:100CD00010401040107E17C0144018421042003ED1
:100CE0001008101C11E01100FD00110011FE15107C
:100CF00019103130D1181114111212105210241081
:100D00000880088828902EA028C028842E84F07C93
:100D100001000100FFFE054009203118C106010055
:100D20000C103010C210141049FE3010C8301430AE
:100D30002450CC5014902510C410041028501020BA
:100D4000210021F022102420FBFC224422442BFC11
:100D500030A0E122261E20C020302180A06040105B
:100D600010801090110813FCFC4017FE111012485F
:100D70001C863310D02010C41308103050C0270038
:100D80001104108810507DFC5524552455FC552421
:100D90007D2451FC102014201DFEE4204020002062
:100DA000210021F022103C204BFC5244824423FCC1
:100DB00020A02122261E20C0283031802060001073
:100DC000010021F01210142003FC0244F24413FC31
:100DD00010A01122161E10C01430198010600010CF
:100DE0002040202027FE440055FCF524252425FC26
:100DF0004524F52445FC042035FCC820082013FEBA
:100E0000204020203BFC200041087890A3FE2200D7
:100E1000FA002200220022002A00340024000800E8
:100E2000020001007FFC00000820042004403FFE77
:100E30002000200020002000200040004000800012
:100E4000200017FC0004444442844FE449244FE44A
:100E500049244FE441045FF4410441044014400834
:100E60000800FF7E0010FF20817CBD44A554FF5484
:100E700000547E5442547E5442207E280044FE8218
:100E80001FF0101010101FF0101010101FF00000B5
:100E90003FF8200820083FF8200820083FF82008E5
:100EA00001F84508290811F82908490889F80800B7
:100EB0001BFC2A044A048BFC0A040A0453FC220487
:100EC000200023F0202020402080F90023FC212452
:100ED0002124212422243A44E44448840128021095
:100EE00001001110092001007FFE400280041FF064
:100EF000000000007FFC0400082010103FF81008DC
:100F00000100111009207FFE40029FF410101FF015
:100F100001003FF8210821082128211001000100CB
:100F20000800081008200840088009000800FFFE9B
:100F30000A0009000880084009200A180C06080069
:100F400008400A480950104017FE3402380451F096
:100F50009000100017FC10801110120817FC1204EA
:100F600000003DF82410242024403C8025FE2492DB
:100F700024923C9225122522262244425494890828
:100F800000003FFE20002000200020002000200064
:100F900020002000200020002000400040008000B1
:100FA0000820492029202A3E08447F44414441A486
:100FB0005D285528551055105D284128454442822A
:100FC000100011F810107C20544054807DFC5454C3
:100FD000545454947D245424104410841128101027
:100FE00001F80108790849F84908490849F8480012
:100FF0004BFC4A047A044BFC0204020403FC020486
:1010000009F80908090811F81108310831F85000E9
:1010100093FC1204120413FC1204120413FC1204B5
:10102000080009FC08447E4408440894FF0808FCB2
:10103000288428842E8428FC280058004FFE800035
:1010400010201020102010A8FCA410A2112215209E
:101050001A243024D02810081010102050C023006B
:10106000102010203C2020A840A4BCA21122112056
:10107000FE241024102810081410182010C003009B
:101080000800083EFFA208227F22413E7F22412223
:101090007F22493E0822FFA208420842088A09042A
:1010A0000200023CEFA4A224A224AFBCA8A4AFA4D7
:1010B000A8A4AFBCE224A2241FA4024402540288C4
:1010C0000100411E27D22112011287DE445257D25D
:1010D000145227DEE11221122FD22122212A0144AB
:1010E000088811102220111008883FF821083FF8C5
:1010F00021083FF80100FFFE054009203118C10614
:10110000004000407840494849444A424A424C48DD
:1011100048484848781048100020004001800600E8
:1011200010201020102010A854A458A25122912061
:1011300012241024102828082410442040C08300C2
:101140000200020002007FFC0400090011002100DF
:101150003FF801000100FFFE010001000100010055
:101160001020102010201120FD201120113C1520EE
:1011700019203120D12011201120112057FE2000EC
:101180002208210827C82210F49E2FD42064279417
:101190003494E7942494278824882494A4A445C2F2
:1011A00024043FA44424FFA404243F8424942588D9
:1011B00000201FC001003FF801007FFC0100030078
:1011C0001000120022FC42249224122423A46E2434
:1011D000A224222422A4232422442044209421084F
:1011E0000208210817C81210849E4FD44064179437
:1011F00014942794E49427882488249424A405C272
:101200001100111E111211127BD411141118331474
:101210003B9255525512991A1114111011101110B8
:1012200000003FFC2100210021003FF82008200899
:10123000200820083FF82100210021003FFC000089
:1012400000003FFC200020002FF8200020003FFC81
:101250002480248824502420441045088606040055
:1012600001000100092009101108210441040000B7
:10127000010001003FF8010001000100FFFE000035
:101280001FF010101FF010101FF000003FFC200096
:101290002FF820003FFE2908289048604A188C0645
:1012A00010401040104013FC1A4454485040504025
:1012B00090A010A010A0112011221222141E1800BC
:1012C0000000200013FE12028404400041F01110BF
:1012D00011102110E110211222122212240E0800F6
:1012E00000407840484057FE5080612051204A20FD
:1012F0004BFC4820692851244222442240A040400F
:101300000820082008507E5008880924FE420890D2
:10131000282028442E882810282058404FFE80007E
:10132000201010100010FC1009FE101010103410C6
:10133000591094901490101010101010105010208C
:10134000112410A813FE1202FCF8108810F8140CD7
:1013500019F03020D1FC102013FE102050A02040A6
:1013600008801C80F08010FE1102FD041220302045
:1013700038A854A4512491221222102010A0104009
:1013800020282024202027FE2420FC20242427A4F9
:1013900024A424A824A83C90E692492A0846108256
:1013A000102017A410A81292F914120835F438026C
:1013B00057F85208920813F8120811101FFE100077
:1013C0000050004800403FFE2040204020443E4462
:1013D00022442228222822122A32444A40868102AC
:1013E00000001FF01010101010101FF0000000007F
:1013F0007FFC010001003FF801000100FFFE00003A
:1014000000F83F0001007FFC01000924F93809229F
:101410003922CB9E054009203118C1060100010088
:1014200008001DFCF10411041104FDFC1000300043
:1014300039FE5420542091FC1020102013FE10007F
:10144000100023FE40208920113C312051209120A2
:1014500017FE1000010008844892481287F000002F
:10146000002027A410A812928114420855F41802F3
:1014700013F82208E20823F8220821102FFE0000AA
:1014800000284024202027FE04200420E42427A450
:1014900024A424A824A82C903692292A0846108235
:1014A0001FE000400080010479280FF0092011108E
:1014B00017D0210821084FE4810201000500020035
:1014C00003F822081208120803F80000F7FC104085
:1014D000104013F81040104017FC280047FE000091
:1014E0000020F82009FC492449FC492449FC7C00DF
:1014F00007FE04801D00E5FC4404040428281010A5
:1015000008001DFCF02010201124FCA410A830209D
:101510003BFE54205420902010201020102010203A
:1015200000800080790049FE4A004C0049F84808D4
:1015300048104860788049000202020201FE000063
:10154000008000401FFE1200920053BC5524192455
:1015500031245FE49124112422A422BC4424880075
:1015600010201020102011FCFC20102013FE100869
:10157000180833FED0081088104810085028201092
:1015800000003E4022403E4422483E500060FF4062
:10159000084408442F44283C280058004FFE80008F
:1015A0000040204012401258826842C853481E48EA
:1015B00012482248E25822422202220221FE000062
:1015C000000021F811081108010801F8F1081120A4
:1015D00011101208120414041000280047FE000025
:1015E0000020F82008200920092C7934416443A404
:1015F00041247934092809220922090250FE2000D9
:101600000020F82008204920492C493449647FA44F
:10161000052405341D28E5224522050228FE100078
:101620000010FF10241024903C902490249E3C90A5
:10163000249024902E90F4904490049005FE040091
:101640000100010011F8110011001100FFFE00005F
:101650002108210822882448282820083FF800086B
:101660001080108011F82210252060C06090A32007
:101670002C7C2084210826902060204021802E0090
:1016800000001FF810081008100810081FF810803C
:10169000108010801040104020202010400880064C
:1016A0000100010001003FF801000100FFFE0440BD
:1016B0000440244824444442884208401140208089
:1016C000100011DC1044FE44115410CCFC4444CCF6
:1016D00045542844284411541888240043FE8000AF
:1016E000001000F81F001000100010001FFE104036
:1016F000104011C0106010502048204040408040F1
:101700001000100011FC11045504590451049104F7
:1017100011FC110410002890248845044202840220
:1017200002000100FFFE04000400082010103FF832
:101730000448044004400440084408441044603C09
:10174000004040402040204007FC0444144414441E
:101750002444E44427FC244420402040204000400E
:101760000100010001003FF821082108210821089B
:101770003FF8210801000110010801FC7E0400006F
:101780000100210821083FF8020001007FFE40020D
:101790009FF400007FFC01001110210845040200A5
:1017A000020001007FFE4002842404100410FFFEAA
:1017B00004800888089010A010C220824182867E92
:1017C0001020102010201020FDFC112411241524BD
:1017D000192431FCD12411241124112451FC210499
:1017E0000004FE4428542854FE54AA54AADCAB74C6
:1017F000AE54C2548254FE5482548254FE848304F4
:1018000000200020FBFEA820A9FCA840FBFEA84861
:10181000A888A8FEA908F9488A280408002800100A
:1018200000207C2047FE442045FC7C4013FE1048ED
:101830005C8850FE510851485E28E40800280010DA
:1018400008001DFCF12411241174FD2411FC310445
:101850003974555455549174110412041214140817
:101860000E207820082408A4FEA819202C504A50E5
:10187000888809040A020100288828A4482407E06F
:1018800020403F7E4890850801007FFC02003FF821
:101890000400FFFE08201FFC2420422080A00040FE
:1018A000090009000900110017F031103110511022
:1018B000911011101110121212121412180E1000A1
:1018C000100013FE222222224AFAFA22122223FEBA
:1018D0004202FAFA428A028A1AFAE202420A04042C
:1018E000008801C8F7089108912AF12A97AC91481D
:1018F000F308938895549514F91491240124014216
:1019000000003FF0021002100210021002103FF01F
:10191000041004100410041004100410FFFE000052
:10192000020004003FF820083FF820083FF8200894
:101930003FF801200110FFFE028004401830E00E45
:101940002000100001FCFC440844104410443444BE
:101950005844944414441084108411041228141020
:101960000100010021082108210821083FF8010891
:101970000100010041044104410441047FFC0004D2
:10198000200027FE24002404F7E4240425DE754407
:101990006D44A5D4A40C2544248424E42B142008ED
:1019A00000003FFE20083F8820082F08297E2908D4
:1019B00029082F4820282908260843885C288810F1
:1019C000008878884BFE48A8482279FA102410280D
:1019D00053FE5C4050FC51845AFCE48400FC0084BB
:1019E000200820083BC82248425E7A4AA3CA224AFD
:1019F000FA4A23CA224A224A2A6A33D226120026E7
:101A0000205020483E8042FE85900A90FEFC0290C5
:101A100002907EFC029002900290FEFE0280008006
:101A200040102F1029288A284A444CBA0A1029103D
:101A300029FE4910CD584A5448924912485008206E
:101A40000040784048A05110520865F65040484088
:101A50004FFC48406A50524844444844414040800A
:101A6000082008207EFC08201C702AA8C82400003A
:101A70007FFC0104110011F81100290047FE8000CD
:101A800000200020FD241124112421243DFC642089
:101A90006420A524252425243D24252421FC00049C
:101AA0001020102018FA2424242861FE6020BC4055
:101AB00024FC25442644247C25442644247C2044BC
:101AC00001003FF801000FE00820092009207FFCF9
:101AD00008207EFC08203EF822882AA82AA8FFFEBB
:101AE0002080204027FC2080F90823F020602984F2
:101AF00037FEE00227FC244427FC2444A7FC4404CE
:101B000020202020782049FC91247D245524552430
:101B10007DFC552454207C28542457FE45028C001B
:101B20001040104010401E40126022502248524483
:101B300094441440084008401440230040FE8000B4
:101B40002040244424442444F7FC20002FFE20405D
:101B50003080E7FC24A424A424A424A4A4A4440C3A
:101B60001004108410841084108410841084108455
:101B70001084108410841084208420844004800405
:101B8000020001007FFE4822901400003FFC00404C
:101B9000104020403FFE0140064018406140008058
:101BA000210021F8220823F0F81027FE208071443C
:101BB0006E68A0B0A128266820A4212226A020407B
:101BC00008400840084013F81040308037FE50802D
:101BD000910013F81008111010A0104010201020D0
:101BE000080010783E48224832482A482A8EFF00D2
:101BF000220032FC2A842A84228442844AFC84847F
:101C000000400444F444944497FC90009FFE9040AC
:101C1000908097FCF4A494A404A404A404A4040C49
:101C2000010001003FF8210821083FF801000100F0
:101C30007FFC410441047FFC4104010001000100DC
:101C4000008000401FFE104090A051105208140662
:101C50003BF052109210125022202204420481FCC8
:101C6000020001007FFE4822921404003FF822087F
:101C700023C824482A882108228824083FF82008FD
:101C8000102011FC10887C5057FE540055FC552440
:101C900055FC552455FC5C2011FC102013FE10004F
:101CA000010000803FFE2000208020802FFC20804B
:101CB00021C022A022A024904888508680800080E5
:101CC000200013FC100440045F844084488448844E
:101CD0004FE4402440245FA4402441444094400801
:101CE0000804080414041224212440A4BE2422243D
:101CF000222422242A242424208420841F940008BF
:101D000000800080788048FC490449084A404C40E3
:101D1000484048A078A049100110020804040802B5
:101D2000104010401040127C52845488592090205A
:101D300010201050285028502488448841048202E2
:101D40001010107813C01040F84017FC12481A48C1
:101D500037FED248124817FC1040104057FC2000B4
:101D60002008203C39E0202040207BFEA1242124B3
:101D7000FBFE2124212423FE2820302023FE000006
:101D8000001000F83F00010001007FFC092009203D
:101D9000FFFE092009207FFC010001003FF8000040
:101DA000010001007FFC01003FF80200FFFE082057
:101DB00010102FE8C82608200FE0082008200FE0A8
:101DC0001020102013FE1020FDFC104033FE388838
:101DD000550452FA9088108810F81088108810F86E
:101DE0000020FE1028FE2800FE7CAA44AA7CAA003F
:101DF000AE7CC2088210FEFE82108210FE5082204D
:101E000000003FFC20002FF820003FFE24882450D3
:101E10002530260E20002FF8480848088FF80808BB
:101E20000080204017FC100083F842084BF808009F
:101E300013F81010E02027FC2040204021400080B3
:101E400010401040204023FC4840FA4812482248E5
:101E50004248FBF8404800401842E042403E000043
:101E600001007FFC01003FF80200FFFE08203FF860
:101E7000C8260FE010207CF854A87CF81224FEFC41
:101E80000020EE282224AA246620AA3E01E0242471
:101E90007F24C8287E2848107E32484A7F86410227
:101EA00010401040207E20404BFCFA0413FC22041A
:101EB00043FCFA44404007FE1840E04040400040E8
:101EC000008000401FFE1000911051105512151493
:101ED00035D8551095101510251225D25E12880E92
:101EE00008200820FFFE08204080208020FC0904F4
:101EF000124814402040E0A020A0211022082C0607
:101F000001080088F09027FE210841087210D29441
:101F100054A4573851085210721054A407BC0084BE
:101F200014501448148054FE55905E9054FC549004
:101F3000549054FC549054905D9076FEC480008080
:101F400008401C20702011FC1000FC88105011FE6D
:101F50007C20442045FC442044207C204420002058
:101F600008200440FFFE10201020244878F01020A4
:101F700024487EFC02040100288828A4482407E0A5
:101F80000100410021FC0A441448E0A02110260C65
:101F900000007FFC08000FE0092010A41624181C84
:101FA000000023FC1004100407F40004F00413E400
:101FB00012241224122413E4140418041014000828
:101FC0000440044004402444244827502460244012
:101FD00024402440244024422F42F042403E00004E
:101FE00008040804FF84082408247F244924492481
:101FF0004D244A241C242A244904888408140808EF
:1020000000007CFC4484548454FC5484548454FC68
:10201000544054FE552A124A28922522444A80846C
:1020200000804080208020FC010409080A40144000
:102030001040E0A020A02110211022082404080252
:102040000088FC48485049FC79044904490479FC5B
:10205000482048104C547942C942094A0A380800BD
:1020600004400440FFFE044008001FF82A4844488A
:102070000A88110822A8041001004884481287F237
:10208000040008007FFC4204420447F44814522430
:102090004144408441444624580440047FFC4004A9
:1020A0000800080008001FFC1244224442449C44DB
:1020B0000644098410C42124421404040828101082
:1020C00008200820082008200820082008200820D0
:1020D00008501450125012882088210442048402AF
:1020E0000820082008200820082008200820145074
:1020F000125022882088410482020000FFFE000066
:102100000040404027FC204003F8008017FC1110DD
:102110002208E5F6204023F8204020A021100608E0
:10212000100011F895085508590811F8FD083108F4
:10213000390855F8550891081108110817FE1000C4
:102140000048FE48284829FEFE48AA48ABFEAA00DF
:10215000AEFCC2848284FEFC82848284FEFC828483
:1021600020403F7E4890850820401040FEFE212000
:1021700020403CFC2520242025FE4450548889061C
:1021800008000BF80A0812081208320833F8504009
:1021900090401240127C12401240154018FE100070
:1021A000004078204BFE4A8A49247A2211FC1124EF
:1021B00051FC5C2053FE52225BFEE22200200020F4
:1021C00020403F7E48909FF810101FF010101FF025
:1021D00010101FF002007FFC04401A30E44E0FE0A4
:1021E000020001007FFE4822911401003FF82108FF
:1021F0003FF801007FFC41047FFC41040100010025
:102200001020122213FE1090FC8811FE13101510DE
:1022100019FE3110D11011FE1110111051FE2100C4
:10222000010041047FFC090008801FFC1080308001
:102230005FF8908010801FF8108010801FFC100045
:1022400008200A220BFE1090108831FE3310551022
:1022500091FE1110111011FE1110111011FE11003C
:1022600000403C4024FC250426083DFE2500257C3A
:1022700025443D442554254825424542553E8A0083
:10228000008000401FFE1000904057FC51101110BC
:1022900032A8544490401FFE2040204040408040DF
:1022A0001040102095FE540058881088FD543222AA
:1022B0003800542055FE90201020102010201020AF
:1022C0000080204017FC10008110411042A81444E7
:1022D00010002040E7FE20402040204020400040E9
:1022E00000007EFC224412241A3462C4020401005D
:1022F0007FFC0820145022880100FFFE010001002D
:102300001010101010101010FDFE101030103810AA
:102310005510549090901010101010101050102064
:1023200004000400FFFE0800080013F8101030201D
:10233000504097FE10401040104010401140108057
:102340000040004000400040FFFE004000400040D0
:10235000104008400840004000400040014000801C
:1023600000840044FC4811FE102020FC3C2065FE47
:102370006440A48024FE25103E10241021FE00009D
:10238000200023F8220823F8FA0823F820002FFE63
:102390003480E7BC2494279424D42F88A09440A2AE
:1023A00011081088109013FCFC4011F8104017FE23
:1023B00018803100D1FC12201420182053FE200078
:1023C00010881088108813FEF888108817FE1800EF
:1023D00031FCD104110411FC1104110451FC21043D
:1023E0002040204022482248F248255428E220403C
:1023F0003040E7FC2040204020402040AFFE40001D
:1024000021102110391027FC41107910AFFE200057
:10241000FBF82208220823F82A08320823F80208C9
:102420002110211027FC2110F84020A021102A089B
:1024300035F6E000200023F822082208A3F842081D
:10244000004020401040104007FE0040F04010A027
:1024500010901108120414041000280047FE000018
:10246000104010403F7E2890450882800C60301854
:10247000CFE600001FF01010101010101FF0101009
:10248000008000401FFE1110911057FC515010A009
:10249000311052E89C0613F82208220843F88208FB
:1024A0001000100013FE1020FC201020102014201B
:1024B00018203020D02010201020102050A02040C4
:1024C00001000100010001000100FFFE0100010008
:1024D0000280028004400440082010102008C0063A
:1024E00000001FF01010101010101FF0010001006C
:1024F0007FFC03800540092011102108C10601005E
:102500000000FFFE02000200040007F80808101097
:102510002410422001400080010002000C007000E5
:10252000084008400FFC104013F8308037FC511071
:102530009248144612481150124814441140108019
:1025400008207F280824FFFE00207F2049247F24C4
:1025500049247F2822287F102212FFAA2246418286
:10256000092009207FFC0920092000007FFE41028C
:1025700081041FF0111011101150112001000100F1
:102580000020FC202020204020483C8445FE44823E
:10259000640094FC088408841084208440FC8084B7
:1025A000089008880888108010BE37C030805040DE
:1025B00090401040102010221012100A1006100235
:1025C00008901088307ED7C01022101A00061FF025
:1025D0001010111011101110121004C018306008E2
:1025E00008A0109030BE57C0904010241014120C58
:1025F0000100FFFE05000C883450C530060E0400B3
:1026000008400840104023FC4840084017FE3010A6
:10261000501097FE101012101110111010501020B1
:102620000040204013F8104807FE0048F3F8144417
:1026300012481150124814441140288047FE0000EF
:1026400002000400082010103FF800081FF01010CE
:1026500010101FF0010008844892481287F0000013
:102660000040FC4048404BFC7A444C48484078408D
:1026700048A048A04CA07920C9220A220C1E0800BC
:102680001000100011FC1104FD04110411FC1504CC
:1026900019043104D1FC11041000100053FE200075
:1026A00000001FF010101010121011101110101057
:1026B000FFFE10101010101020102010405080202D
:1026C0001010082004403FF8210821083FF8210895
:1026D00021083FF801000100FFFE01000100010098
:1026E0004100223E14227F24492449287F24492482
:1026F00049227F2208220834FFA808200820082049
:1027000011041088105011FCFD24112411FC152413
:10271000192431FCD020102013FE1020502020203E
:1027200000003C0024FC248424843C8424FC248475
:1027300024843C8424FC24842400440055FE880026
:1027400000001FF010101010101010101FF01010CB
:102750001010101010101FF000000000FFFE00000D
:1027600020003FFC40009FF000007FF00410249008
:102770000B10109060500412248A0B0A10866042DD
:10278000080008000BFC12041204320433FC52044B
:102790009204120413FC12041000100017FE100023
:1027A00011041088105011FC1924552451FC512497
:1027B000912411FC1020102013FE10201020102056
:1027C000004022441244144880A04110460810449E
:1027D00010402248E248245020A0211022080C0674
:1027E0000008401C2F70211002100450EF5C215093
:1027F0002950295025502A7C33002480087E10005F
:102800000104F888085009FC0924792441FC41247A
:10281000412479FC082008200BFE082050202020AD
:102820007FFC0104110011F81100290047FE81000E
:102830001FF0111011101FF0110001087FFC20047F
:102840000100210811080910092001007FF8000883
:10285000000800083FF80008000800087FF800089A
:102860001040124411441144FD48104017FC10045C
:1028700018043004D3FC10041004100457FC200486
