:020000040800F2
:10000000400500209D0100080D1000089104000823
:100010000910000891020008D1110008000000003A
:100020000000000000000000000000005110000867
:1000300095020008000000000F100008B50100083C
:10004000B7010008B7010008B7010008B7010008B0
:10005000B7010008B7010008B7010008B7010008A0
:10006000B7010008B7010008B7010008B701000890
:10007000B7010008B7010008B7010008B701000880
:10008000B7010008B7010008B7010008B701000870
:10009000B7010008B7010008B7010008B701000860
:1000A000B7010008B7010008B7010008B701000850
:1000B000B7010008B7010008B7010008B701000840
:1000C000B7010008B7010008B7010008B701000830
:1000D000B7010008B7010008B7010008B701000820
:1000E000B7010008B7010008B7010008B701000810
:1000F000B7010008B7010008B7010008B701000800
:10010000B7010008B7010008B7010008B7010008EF
:10011000B7010008B7010008B7010008B7010008DF
:10012000B7010008B7010008B7010008B7010008CF
:10013000B7010008B7010008B7010008B7010008BF
:10014000B7010008B7010008B7010008B7010008AF
:10015000B7010008B7010008B7010008B70100089F
:10016000B7010008B7010008B7010008B70100088F
:10017000B7010008B7010008B7010008B70100087F
:10018000B7010008B7010008DFF80CD000F018F83C
:1001900000480047D5150008400500200648804764
:1001A00006480047FEE7FEE7FEE7FEE7FEE7FEE75C
:1001B000FEE7FEE7FEE7FEE7691100088901000897
:1001C000064C074D06E0E06840F0010394E80700A4
:1001D00098471034AC42F6D3FFF7DAFF8C9C040842
:1001E000AC9C040870B58C1810F8015B15F007037F
:1001F00001D110F8013B2A1106D110F8012B03E0C0
:1002000010F8016B01F8016B5B1EF9D12B0705D4C7
:100210000023521E0DD401F8013BFAE710F8013B10
:10022000CB1A921C03E013F8015B01F8015B521E2C
:10023000F9D5A142D8D3002070BD00001CB5012023
:100240008DF8040000208DF8060002208DF80500CE
:1002500001208DF807000121082000F0D9FE0420BC
:1002600000906946014800F0A4F81CBD000C024053
:1002700010B5044624B10421044800F007F903E056
:100280000421024800F000F910BD0000000C0240FB
:1002900000BFFEE77047000051B18200A2F1C042EA
:1002A000126842F001038200A2F1C042136009E02B
:1002B0008200A2F1C0421268034B1A408300A3F1EE
:1002C000C0431A6070470000FEFF0F00D0E9011222
:1002D0001143C268114302691143426911438269A3
:1002E0001143C2691143026A1143426A1143826A8F
:1002F0001143C26A1143026B114302689200A2F1DA
:10030000C0421160816808290BD101688900A1F100
:10031000C041096841F0400201688900A1F1C04173
:100320000A60416B0968426B526841EA0211426BF4
:10033000926841EA0221426B928941EA0241426B92
:10034000128A41EA0251426B127D41EA0261426B1C
:10035000926911430268521C9200A2F1C0421160DE
:10036000C16AB1F5804F1BD1816B0968826B5268FD
:1003700041EA0211826B926841EA0221826B128A81
:1003800041EA0251826B127D41EA0261826B9269FD
:10039000114302689200A2F1C042C2F8041107E0C2
:1003A0006FF0704201688900A1F1C041C1F80421D9
:1003B0007047F0B50A4600210023002400BF3DE04D
:1003C000012505FA01F3156805EA03049C4234D1BE
:1003D00005684F000326BE40B543056015794E0001
:1003E000B5400668354305601579012D02D01579B1
:1003F000022D16D185684F000326BE40B5438560A7
:1004000055794E00B54086683543856045680126BC
:100410008E40B5434560456896798E40B6B2354307
:100420004560C5684F000326BE40B543C560D57919
:100430004E00B540C6683543C560491C1029BFD37E
:10044000F0BDF0B5002300244D07ED0E02FA05F3D0
:10045000CE1000F1200555F826504E07F70E0F2656
:10046000BE40B543CF1000F1200646F82750CE100D
:1004700000F1200555F8265045EA0304CE1000F19E
:10048000200545F82640F0BD418370470183704741
:1004900000BFFEE72DE9F0410120FFF7E9FE002053
:1004A00000F016FBFE4908600846006898B9D320A2
:1004B00000F0A0FD00F088FD054600F085FD064631
:1004C00000F082FD024600F07FFD044644EA02206F
:1004D000F349086000BFF248006872287ED12C20E2
:1004E000F049087002211A2000F0FCFA88211B2034
:1004F00000F0F8FA0021232000F0F4FA5F21242014
:1005000000F0F0FA1521252000F0ECFA03212D204F
:1005100000F0E8FA0421182000F0E4FA0121192083
:1005200000F0E0FA0021012000F0DCFA052117209C
:1005300000F0D8FA1321362000F0D4FA0021402030
:1005400000F0D0FA4521412000F0CCFA45214220AC
:1005500000F0C8FA0421432000F0C4FA002144202E
:1005600000F0C0FA0821452000F0BCFA2321462003
:1005700000F0B8FA2321472000F0B4FA7721482090
:1005800000F0B0FA4021492000F0ACFA04214A20E2
:1005900000F0A8FA00214B2000F0A4FA88214C209A
:1005A00000F0A0FA88214D2000F09CFA88214E200E
:1005B00000F098FAD0211F2000F094FA3F21282063
:1005C00000F090FA0021162000F08CFA0023F024AD
:1005D00000254FF4C876190A022000E031E000F04F
:1005E00081FA1946032000F07DFA210A042000F068
:1005F00079FA2146052000F075FA290A062000F054
:1006000071FA2946072000F06DFA310A082000F03F
:1006100069FA3146092000F065FA22204FF0C04106
:10062000088000200AE0002104E04FF478429E4F49
:100630003A80491CB1F5C87FF7DB401CF028F2DB9B
:1006400043E29748006849F2253188420AD094482D
:100650000068C91C884205D0914800684DF2D3312A
:1006600088427DD122208F4908700024012501266F
:10067000002641F28F01EC2000F034FA41F23421DF
:10068000EF2000F02FFA002040EA052040EA842104
:10069000012000F027FA4FF4E061022000F022FA76
:1006A00041F21801032000F01DFA0021042000F09F
:1006B00019FA40F20221082000F014FA0021092062
:1006C00000F010FA00210A2000F00CFA01210C20A1
:1006D00000F008FA00210D2000F004FA00210F209C
:1006E00000F000FA0021102000F0FCF90721112091
:1006F00000F0F8F90021122000F0F4F90021132095
:1007000000F0F0F90121072000F0ECF9322000F0B0
:100710008FFD41F29041102000F0E4F940F22721D2
:10072000112000F0DFF9322000F082FD8A21122032
:1007300000F0D8F9322000F07BFD4FF4D0511320A7
:1007400000F0D0F90621292000F0CCF90D212B2052
:1007500000F0C8F9322000F06BFD0021202000E0FD
:1007600088E000F0BFF90021212000F0BBF9322021
:1007700000F05EFD0021302000F0B4F940F2046189
:10078000312000F0AFF940F20531322000F0AAF933
:100790000021352000F0A6F940F60941362000F08E
:1007A000A1F94FF40171372000F09CF940F20131BA
:1007B000382000F097F940F20771392000F092F9E3
:1007C00000213C2000F08EF940F60A213D2000F087
:1007D00089F9322000F02CFD0021502000F082F930
:1007E000EF21512000F07EF90021522000F07AF92B
:1007F00040F23F11532000F075F94FF41C5040EACD
:10080000C631602000F06EF90121612000F06AF924
:1008100000216A2000F066F90021802000F062F9D2
:100820000021812000F05EF90021822000F05AF9B9
:100830000021832000F056F90021842000F052F9B5
:100840000021852000F04EF91021902000F04AF997
:100850004FF4C061922000F045F940F233110720B7
:1008600000F040F9F02300224FF4A071104600F090
:1008700037FB2AE10A48006849F241318842F8D141
:100880002C2008490870CF2000F0B4FB002000F0B5
:10089000A5FBC12000F0A2FB302000F09FFB05E08B
:1008A0000C0000200800002000000460ED2000F093
:1008B000A1FB642000F092FB032000F08FFB1220CC
:1008C00000F08CFB812000F089FBE82000F092FB17
:1008D000852000F083FB102000F080FB7A2000F0E0
:1008E0007DFBCB2000F086FB392000F077FB2C202D
:1008F00000F074FB002000F071FB342000F06EFB70
:10090000022000F06BFBF72000F074FB202000F0C9
:1009100065FBEA2000F06EFB002000F05FFB00208A
:1009200000F05CFBC02000F065FB1B2000F056FBD4
:10093000C12000F05FFB012000F050FBC52000F05B
:1009400059FB302000F04AFB302000F047FBC72065
:1009500000F050FBB72000F041FB362000F04AFBCE
:10096000A82000F03BFB3A2000F044FB552000F0AB
:1009700035FBB12000F03EFB002000F02FFB1A20D9
:1009800000F02CFBB62000F035FB0A2000F026FB1F
:10099000A22000F023FBF22000F02CFB002000F04E
:1009A0001DFB262000F026FB012000F017FBE020B5
:1009B00000F020FB0F2000F011FB2A2000F00EFBBE
:1009C000282000F00BFB082000F008FB0E2000F0B0
:1009D00005FB082000F002FB542000F0FFFAA920DC
:1009E00000F0FCFA432000F0F9FA0A2000F0F6FAD1
:1009F0000F2000F0F3FA002000F0F0FA002000F0E1
:100A0000EDFA002000F0EAFA002000F0E7FAE12019
:100A100000F0F0FA002000F0E1FA152000F0DEFA14
:100A2000172000F0DBFA072000F0D8FA112000F0C0
:100A3000D5FA062000F0D2FA2B2000F0CFFA56208B
:100A400000F0CCFA3C2000F0C9FA052000F0C6FA0C
:100A5000102000F0C3FA0F2000F0C0FA3F2000F091
:100A6000BDFA3F2000F0BAFA0F2000F0B7FA2B20B1
:100A700000F0C0FA002000F0B1FA002000F0AEFA59
:100A8000002000F0ABFAEF2000F0A8FA2A2000F0D6
:100A9000B1FA002000F0A2FA002000F09FFA012035
:100AA00000F09CFA3F2000F099FA112000F0A2FA21
:100AB000782000F0BDFB292000F09CFAF0230022F2
:100AC0004FF4A071104600F00BFABDE8F081000071
:100AD00001464FF0C0421180014A10887047000063
:100AE000000004604FF0C0421080014A118070473E
:100AF0000000046010B504460021084600F0BCF96F
:100B0000064800784FF0C0410880002002E0044908
:100B10000C80401CB0F5963FF9DB10BD08000020AA
:100B2000000004602DE9F04F8046894615469B463B
:100B3000202D01DB7E2D00DD2025A5F12000C5B292
:100B4000002430E000262BE005EBC500800004EB1C
:100B5000440100EB81003044154911F800A0002742
:100B60001BE00AF0010048B11FFA8BF209EBC40345
:100B7000D91908EB060000F06BF90BE00998002882
:100B800008DD099B9AB209EBC403D91908EB0600EA
:100B900000F05EF94FEA6A0A7F1C082FE1DB761C41
:100BA0000C2ED1DB641C032CCCDBBDE8F08F0000E5
:100BB000F01B00082DE9F04F074688461446994679
:100BC000DDF824A0202C01DB7E2C00DD2024A4F104
:100BD0002000C4B2002523E005EB0410124911F8EF
:100BE00000B0002619E00BF0800038B11FFA89F23E
:100BF00008EB0501B81900F02BF909E0BAF1000F74
:100C000006DD1FFA8AF208EB0501B81900F020F999
:100C10004FEA4B604FEA106B761C082EE3DB6D1C2D
:100C2000102DD9DBBDE8F08FF01500082DE9F8474D
:100C300005460E4617469846DDE90AA9099C27E0B5
:100C4000207800F0800098B1607880B15346224649
:100C500031462846CDF8009000F048F8A41C103525
:100C6000A8F11000A84213DA3D46143610E012E055
:100C7000CDF800902278534631462846FFF79AFF78
:100C8000641C0835A8F10800A84201DA3D46143674
:100C900020780028D4D100BFBDE8F8872DE9F841BD
:100CA00005460F4614469846079E19E0207800F046
:100CB000800060B1607848B14346224639462846F4
:100CC000009600F05FF8A41C183509E00BE00096D0
:100CD0002278434639462846FFF724FF641C0C352A
:100CE00020780028E2D100BFBDE8F8812DE9FC4F53
:100CF0000746884691469A46DDF82CB000200090C1
:100D000099F80100A13899F80010A1395E2212FB70
:100D10000100009000252FE000242AE00098400107
:100D200000EB450020441649085C019000261DE0B8
:100D3000C6F10701012088400199084048B11FFA17
:100D40008AF208EB050107EBC403981900F080F85C
:100D50000BE0BBF1000F08DD1FFA8BF208EB050179
:100D600007EBC403981900F073F8761C082EDFDB3C
:100D7000641C022CD2DB6D1C102DCDDBBDE8FC8F7A
:100D8000403B00082DE9F84F8046894692469B4635
:100D9000002551E09AF8000005EB450101EB051133
:100DA000294A52F821100978884244D19AF8010062
:100DB00005EB450101EB051152F8211049788842F5
:100DC00039D1002634E000242FE005EB450000EB8C
:100DD00005101D4901EB8000001D06EB4601214472
:100DE000405C009000271DE0C7F10701012088400A
:100DF0000099084048B11FFA8BF209EB060108EB95
:100E0000C403D81900F024F80BE00A98002808DD84
:100E10000A9B9AB209EB060108EBC403D81900F04B
:100E200017F87F1C082FDFDB641C032CCDDB761C3E
:100E3000182EC8DB04E06D1C044800688542A9DB5D
:100E400000BFBDE8F88F00007029000804000020F2
:100E500070B505460E4614463146284600F00CF89B
:100E6000034800784FF0C04108800248048070BDFC
:100E7000080000200000046030B504460D46174805
:100E8000006849F24131884213D12A2000F0B2F8BB
:100E9000C4F30F2000F0A2F8E0B200F09FF82B207E
:100EA00000F0A8F8C5F30F2000F098F8E8B200F0C1
:100EB00095F80A48006849F22531884204D007486D
:100EC0000068C91C884207D1A1B22120FFF70AFEA1
:100ED000A9B22020FFF706FE30BD00000C00002064
:100EE000F0B504460D4616461F461D48006849F2F7
:100EF0004131884222D12A2000F07CF8C4F30F202F
:100F000000F06CF8E0B200F069F8C5F30F2000F0D3
:100F100065F8E8B200F062F82B2000F06BF8C6F339
:100F20000F2000F05BF8F0B200F058F8C7F30F2084
:100F300000F054F8F8B200F051F80FE0A1B25220DE
:100F4000FFF7D0FDA9B25320FFF7CCFDB1B250207E
:100F5000FFF7C8FDB9B25120FFF7C4FDF0BD000096
:100F60000C0000202DE9F04106460C4615461F46B0
:100F7000DDF818803B46224629463046FFF7B0FF91
:100F800021463046FFF778FF0D4800784FF0C0410A
:100F90000880304608E0214603E00A4AA2F80080B3
:100FA000491CB942F9DB401CA842F4DDF0230022C1
:100FB0004FF4A0711046FFF793FFBDE8F0810000E9
:100FC000080000200000046008B503480088009075
:100FD000BDF8000008BD00000000046001B5BDF8C8
:100FE00000000090BDF800000149088008BD000025
:100FF0000000046001B5BDF800000090BDF80000DD
:101000004FF0C041088008BD00BFFEE77047704741
:1010100029B1064A12680243044B1A6004E0034AED
:1010200012688243014B1A6070470000303802405A
:1010300029B1064A12680243044B1A6004E0034ACD
:1010400012688243014B1A60704700003838024032
:10105000704700000CB500200190009034480068F3
:1010600040F480303249086000BF3148006800F425
:10107000003000900198401C0190009818B9019828
:10108000B0F5A06FF1D12A48006800F4003010B12B
:101090000120009001E0002000900098012846D136
:1010A00023484030006840F08050214940310860BA
:1010B0002048006840F480401E4908601C48083001
:1010C00000681B49083108600846006840F4004089
:1010D00008600846006840F4A05008601648091FE0
:1010E0000860081F006840F08070091F086000BF9A
:1010F0000F48006800F000700028F9D040F2056049
:101100000E4908600A480830006820F003000849CA
:10111000083108600846006840F00200086000BF1F
:1011200003480830006800F00C000828F8D10CBD16
:10113000003802400070004008544007003C024064
:10114000042808D14FF0E021096941F004014FF073
:10115000E022116107E04FF0E021096921F004016C
:101160004FF0E0221161704710B51548006840F457
:101170007000134908601348006840F001001149ED
:10118000086000200F49083108600E4800680E49C9
:1011900008400C4908600D48091D0860081F0068D8
:1011A00020F48020091F0860002006490C310860E7
:1011B000FFF750FF4FF0006001498039086010BD13
:1011C00088ED00E000380240FFFFF6FE10300024FA
:1011D00000BFFEE702E008C8121F08C1002AFAD1CA
:1011E00070477047002001E001C1121F002AFBD1A7
:1011F0007047000010B504466FF00400FFF7A0FF31
:10120000E11704EB5171C1F3C701074A1170104691
:10121000007800EB4001C1EBC0104FF6FF7101EA0E
:10122000C0000249088010BD00000020020000201C
:1012300070B504464FF4077094FBF0F0C6B24FF45B
:10124000077094FBF0F100FB114085B205E04FF40C
:10125000077000F009F8701EC6B2002EF7D115B164
:10126000284600F001F870BD0146114A12884A4331
:101270004FF0E0235A6100229A611A46126942F047
:1012800001021A6100BF4FF0E022106900F0010274
:101290001AB100F48032002AF5D04FF0E022126932
:1012A00022F001024FF0E0231A6100229A61704798
:1012B0000200002000B59FB001210846FFF7B8FEEC
:1012C00001211820FFF7A4FE4DF2B3701D900220FB
:1012D0008DF8780003208DF8790000208DF87A00D1
:1012E0008DF87B001DA95348FFF763F84FF6807017
:1012F0001D901DA95048FFF75CF80C2211464D487F
:10130000FFF79FF80C2207214A48FFF79AF80C22B2
:1013100004214848FFF795F80C2205214548FFF7BE
:1013200090F80C220E214348FFF78BF80C220F2176
:101330004048FFF786F80C2200213E48FFF781F86D
:101340000C2201213B48FFF77CF80C220821394888
:10135000FFF777F80C2209213648FFF772F80C22C4
:101360000A213448FFF76DF80C2207213248FFF7B5
:1013700068F80C2208213048FFF763F80C22092195
:101380002D48FFF75EF80C220A212B48FFF759F889
:101390000C220B212848FFF754F80C22114626484E
:1013A000FFF74FF80C220D212348FFF74AF80C22D3
:1013B0000E212148FFF745F80C220F211E48FFF7A8
:1013C00040F80F200790002008903C200990002052
:1013D0000A900B900C900D900F200090002001902F
:1013E0000F200290002003900490059006900E902C
:1013F0000F901090102011900020129014901390D4
:10140000159016904FF480501790002018904FF4CC
:101410008040199000201A9007A81B90CDF870D03A
:101420000EA8FEF753FF01210020FEF735FF1FB085
:1014300000BD0000000C0240001002403EB5044612
:10144000FEF7FCFEFFF736FFFFF724F80120FEF75A
:101450000FFF4FF6FF70FFF74DFB44F296501E232F
:1014600040F23F12002100900846FFF77BFD44F256
:1014700096500090601E2F4951F820204FF6FF73C0
:1014800002210420FFF70AFC4FF0FF3044F296518E
:1014900029A24FF4A073CDE900210290002220215F
:1014A0000420FFF7C3FB4FF0FF310022601E254BE5
:1014B00053F820004FF4A073CDE9012100903421AE
:1014C0002420FFF7B3FB4FF0FF3044F296511EA2E9
:1014D0004FF4A073CDE90021029000228421042062
:1014E000FFF7A4FB4FF0FF30FF211AA24FF4A073C7
:1014F000CDE900210290002298212420FFF796FBDD
:1015000044F29650F02340F23F12D2210090002086
:10151000FFF728FD44F296504FF6FF7110A24FF4EA
:10152000A073CDE9002102900022D5211A20FFF7F7
:101530007DFB3EBD10000020CAB5D1E9C3E8CAF664
:10154000A3BA0000A8000020CAB5D1E9CFD6CFF3D6
:10155000A3BA0000C4E3B2C2B2C2BFB4000000002C
:10156000B6ABB1B1B4F3D1A7CEEFC1AACDF8B9A44F
:10157000B3CCD7A8D2B5C9FAB2FACAB5CFB02D321A
:10158000303139001CB501211220FFF741FD0F2039
:10159000009001208DF8040000208DF806008DF8E1
:1015A00005008DF8070069460848FEF702FF0F2185
:1015B0000648FEF76BFF0720009069460448FEF7D7
:1015C000F8FE07210248FEF761FF1CBD0010024033
:1015D0000004024010B5FFF7D5FFA820FFF70AFE70
:1015E0000120FFF72BFF40F6B830FFF721FE10BDBA
:1015F00000000000000000000000000000000000EB
:101600000000183C3C3C1818180018180000000096
:101610000066666624000000000000000000000074
:101620000000006C6CFE6C6C6CFE6C6C00000000CA
:1016300018187CC6C2C07C0686C67C18180000003C
:1016400000000000C2C60C183060C6860000000012
:101650000000386C6C3876DCCCCCCC760000000016
:10166000003030306000000000000000000000008A
:1016700000000C18303030303030180C0000000002
:10168000000030180C0C0C0C0C0C18300000000082
:101690000000000000663CFF3C6600000000000007
:1016A000000000000018187E18180000000000005C
:1016B00000000000000000000018181830000000B2
:1016C00000000000000000FE00000000000000001C
:1016D00000000000000000000000181800000000DA
:1016E0000000000002060C183060C08000000000FE
:1016F00000007CC6C6CED6D6E6C6C67C000000007A
:1017000000001838781818181818187E0000000003
:1017100000007CC6060C183060C0C6FE0000000049
:1017200000007CC606063C060606C67C00000000DB
:1017300000000C1C3C6CCCFE0C0C0C1E00000000CD
:101740000000FEC0C0C0FC0E0606C67C0000000003
:1017500000003860C0C0FCC6C6C6C67C00000000E1
:101760000000FEC606060C183030303000000000C5
:1017700000007CC6C6C67CC6C6C6C67C000000008B
:1017800000007CC6C6C67E0606060C780000000077
:1017900000000000181800000018180000000000E9
:1017A00000000000181800000018183000000000A9
:1017B000000000060C18306030180C060000000015
:1017C000000000000000FE0000FE0000000000001D
:1017D0000000006030180C060C183060000000009B
:1017E00000007CC6C60C181818001818000000006D
:1017F0000000007CC6C6DEDEDEDCC07C000000002F
:10180000000010386CC6C6FEC6C6C6C60000000082
:101810000000FC6666667C66666666FC000000008A
:1018200000003C66C2C0C0C0C0C2663C00000000F0
:101830000000F86C6666666666666CF8000000007C
:101840000000FE6662687868606266FE0000000064
:101850000000FE6662687868606060F0000000006A
:1018600000003C66C2C0C0DEC6C6663A000000008A
:101870000000C6C6C6C6FEC6C6C6C6C60000000074
:1018800000003C18181818181818183C0000000020
:1018900000001E0C0C0C0C0CCCCCCC780000000012
:1018A0000000E6666C6C78786C6666E60000000006
:1018B0000000F06060606060606266FE0000000032
:1018C0000000C6EEFEFED6C6C6C6C6C600000000B4
:1018D0000000C6E6F6FEDECEC6C6C6C600000000A4
:1018E0000000386CC6C6C6C6C6C66C38000000000C
:1018F0000000FC6666667C60606060F000000000CE
:1019000000007CC6C6C6C6C6C6D6DE7C0C0E00006D
:101910000000FC6666667C6C666666E60000000099
:1019200000007CC6C660380C06C6C67C00000000FD
:1019300000007E7E5A1818181818183C0000000085
:101940000000C6C6C6C6C6C6C6C6C67C0000000025
:101950000000C6C6C6C6C6C6C66C38100000000069
:101960000000C6C6C6C6C6D6D6FE6C6C0000000017
:101970000000C6C66C6C38386C6CC6C6000000002F
:101980000000666666663C181818183C00000000E7
:101990000000FEC6860C183060C2C6FE00000000C3
:1019A00000003C30303030303030303C000000003F
:1019B00000000080C0E070381C0E0602000000002D
:1019C00000003C0C0C0C0C0C0C0C0C3C000000003F
:1019D00010386CC60000000000000000000000008D
:1019E00000000000000000000000000000FF0000F8
:1019F000303018000000000000000000000000006F
:101A00000000000000780C7CCCCCCC7600000000FC
:101A10000000E06060786C66666666DC00000000CE
:101A200000000000007CC6C0C0C0C67C00000000F2
:101A300000001C0C0C3C6CCCCCCCCC760000000024
:101A400000000000007CC6FEC0C0C67C0000000094
:101A50000000386C6460F060606060F000000000BE
:101A6000000000000076CCCCCCCCCC7C0CCC780038
:101A70000000E060606C7666666666E60000000066
:101A800000001818003818181818183C000000003A
:101A900000000606000E06060606060666663C0000
:101AA0000000E06060666C78786C66E6000000001C
:101AB00000003818181818181818183C00000000F2
:101AC0000000000000ECFED6D6D6D6D600000000FE
:101AD0000000000000DC66666666666600000000C6
:101AE00000000000007CC6C6C6C6C67C0000000020
:101AF0000000000000DC66666666667C6060F000E0
:101B0000000000000076CCCCCCCCCC7C0C0C1E00B1
:101B10000000000000DC7662606060F00000000001
:101B200000000000007CC660380CC67C000000008D
:101B30000000103030FC30303030361C0000000027
:101B40000000000000CCCCCCCCCCCC760000000057
:101B5000000000000066666666663C180000000033
:101B60000000000000C6C6C6D6D6FE6C000000000D
:101B70000000000000C66C3838386CC60000000059
:101B80000000000000C6C6C6C6C6C67E060CF80029
:101B90000000000000FECC183060C6FE000000000F
:101BA00000000E18181870181818180E0000000001
:101BB000000018181818001818181818000000004D
:101BC0000000701818180E1818181870000000007F
:101BD000000076DC000000000000000000000000B3
:101BE0000000000010386CC6C6C6FE0000000000F1
:101BF00000000000000000000000000000000000E5
:101C000000000000000000000000000000000000D4
:101C1000000000000000000000FCFEFC00000000CE
:101C2000000000000003FF030000000000000000AF
:101C3000003079300000000000001CFC1C00001C7B
:101C4000FC1C00000000000000000000000000007C
:101C50000000000000000000000000000000E0E0C4
:101C6000000000F0F08080008282FFFF414141FFD0
:101C7000FF20200000001F1F0000000F0F000000C9
:101C8000C0E0301010FCFC101030E0C003070C085E
:101C900018FFFF303060C080070F1810107F7F10D2
:101CA00010180F07F0F80404F8F00000C0701800D6
:101CB00001030484E3398E4341800000301C070196
:101CC000001F3F40403F1F0000F08804048478005C
:101CD00000000000E0F807061D70C0800040C04012
:101CE0000F1F30202030111B0E1E3120000000007D
:101CF000003CFC3C0000000000000000000001006F
:101D000000000000000000000000000000000000D3
:101D1000000000000080E0780C02010000000000DC
:101D200000FFFF0000000000000000000001071E8F
:101D3000304080000001020C78E0800000000000CC
:101D40000000000000FFFF000000000000804030A5
:101D50001E070100000000008080000060F06000AD
:101D60000080800081C3C32400C30024C3C381005A
:101D700001010000060F0600000101000000000044
:101D800000808000000000000018181818FFFF18DD
:101D900018181800000000000001010000000000F9
:101DA0000000000000000000000000000000000033
:101DB00000000000000000000000008CDE7E3C00FF
:101DC0000000000000000000000000000000000013
:101DD0000018181818181818181818000000000013
:101DE00000000000000000000000000000000000F3
:101DF00000000000000000000000000000000000E3
:101E0000000000183C3C180000000000000000002A
:101E1000000000C0701C0600000000C0701C07011C
:101E200000000000301C070100000000000000005E
:101E300000C0F0380C040C38F0C00000FFFF0000B8
:101E40000000000000FFFF0000030F1C3020301CCA
:101E50000F0300000010101818FCFC000000000028
:101E60000000000000FFFF00000000000000202034
:101E7000203F3F202020000060F0F80C0404040CF8
:101E800018F0E00000000080C06030180E0701006C
:101E9000383E3F333030303030303C0000307878DE
:101EA0000C04040C18F8F0000000000008081C16D0
:101EB00033E1C0000C1E3E3020202030181F0F00E0
:101EC0000000000080E038FCFC00000080E0380EDC
:101ED000030000FFFF000000010101010121213F7B
:101EE0003F21210100FCFC0C0C0C0C0C0C0C000024
:101EF000001F0F08040202061CF8E0000C1E3E3012
:101F0000202020301C0F0300C0F0380C04040C7C8F
:101F100078300000FFFF0804020202061CF8E0000F
:101F2000030F1C30202020301C0F0300781C0C0CE9
:101F30000C0C0C0CCC7C1C000000000080F07C0F12
:101F400001000000000000003F3F00000000000012
:101F500000F0F80C0404040CF8F00000C0E0311BA1
:101F60000E0C0E1B31E0C000070F1830202020306F
:101F7000180F0700C0F0380C0404040C38F0C0003F
:101F8000071F38604040402010FFFF00000C1E3E3D
:101F9000302020301C0F03000000000080C0C080F3
:101FA000000000000000000081C3C38100000000A9
:101FB0000000000001030301000000000000000019
:101FC00080C0C080000000000000000081C3C38109
:101FD0000000000000000000111B0F0700000000BF
:101FE000000000000080C0603018080010386CC687
:101FF0008301000000000000000000000103060C47
:102000001830200000000000000000000000000068
:1020100000C3C3C3C3C3C3C3C3C3C3000000000022
:10202000000000000000000008183060C0800000C0
:102030000000000000000000000183C66C381000A2
:102040002030180C06030100000000000060F0784A
:102050000C0404040CF8F000000000000000F01C68
:10206000070300000000000000307930000000008D
:10207000E0100884C44444C48810E000FF00FFFF5F
:10208000808080FFFF00FF00070810212121202011
:102090002111080000000000F00C3CF000000000DE
:1020A0000000F0FF43404043FFF00000203E3F208F
:1020B00000000000203F3E2004FCFC0404040C1837
:1020C000F0E0000000FFFF0808081C1673E1800024
:1020D000203F3F20202020301C0F0300C0F0380C90
:1020E0000404040C18387C00FFFF0000000000000E
:1020F00000000000030F1C3020202030180E0600C6
:1021000004FCFC0404040C1870E0800000FFFF00D5
:102110000000000000FFFF00203F3F20202030187B
:102120000E07010004FCFC04040404040C1C7C00E5
:1021300000FFFF0808081C7F00000000203F3F2030
:102140002020202030383E0004FCFC040404040459
:102150000C1C7C0000FFFF0808081C7F000000002A
:10216000203F3F200000000000000000C0F0380CBD
:1021700004040C08187C0000FFFF000000000008A9
:10218000F8F80800030F1C302030180C3F3F000007
:1021900004FCFC0400000004FCFC040000FFFF0839
:1021A00008080808FFFF0000203F3F200000002033
:1021B0003F3F2000000000040404FCFC0404040071
:1021C000000000000000FFFF0000000000000020F1
:1021D00020203F3F2020200000000000000404FCDD
:1021E000FC04040000000000000000FFFF000000ED
:1021F0000E1F37222030301F0F00000004FCFC04AB
:102200000080E47C1C04040000FFFF781E7FE18056
:1022100000000000203F3F20000001273E38202022
:1022200004FCFC04000000000000000000FFFF00B0
:102230000000000000000000203F3F202020202060
:1022400030383E0004FCFCC000000000C0FCFC0470
:1022500000FFFF073CE0E03C07FFFF00203F3F207E
:1022600000010100203F3F2004FCFCE000000004CE
:10227000FCFC040000FFFF01071C70C0FFFF000012
:10228000203F3F20000000030F3F0000E0F0180C4B
:102290000404040C18F0E000FFFF00000000000040
:1022A00000FFFF00070F183020202030180F070014
:1022B00004FCFC0404040C0838F0C00000FFFF100C
:1022C000101018080E070100203F3F2000000000FA
:1022D00000000000E0F0180C0404040C18F0E0000A
:1022E000FFFF00000000000000FFFF00070F183094
:1022F00022262C18307F4F4004FCFC0404040C18E8
:10230000F8E0000000FFFF0838F8CC0607010000E5
:10231000203F3F200000032F3C302000F0F8880CC5
:1023200004040C18387C0000000103070E1C3870F0
:10233000E0C080003F1E0C1830202030180F07002E
:102340007C1C0C0404FCFC04040C1C7C000000003D
:1023500000FFFF000000000000000020203F3F20A1
:102360002000000004FCFC0400000004FCFC04004D
:1023700000FFFF0000000000FFFF0000000F1F3003
:10238000202020301F0F000004FCFC04000000048B
:10239000FCFC040000003FFFC000C0FF3F00000045
:1023A000000000031F3C1F030000000004FCFC04AD
:1023B0000000000004FCFC040003FF8000FCFC00A3
:1023C00080FF03000000033F3C03033C3F03000089
:1023D000041C7CE480000080E47C1C04000000817C
:1023E000E77E7EE78100000020383E2701000001E3
:1023F000273E3820041CFCE400000000E4FC1C0420
:10240000000000071FF8F81F070000000000002070
:10241000203F3F20200000007C1C0C040404C4F476
:102420003C1C00000000C0F03C0F03000000000056
:102430003C3F23202020202030383E0000000000B8
:1024400000FF0101010101000000000000FF000089
:10245000000000000000000000FF808080808000FD
:10246000061C70C000000000000000000000000119
:10247000071C70C000000000000000000000000108
:10248000071C3000000101010101FF0000000000F5
:10249000000000000000FF000000000000808080BD
:1024A0008080FF0000000000006030180C06060C61
:1024B0001830600000000000000000000000000074
:1024C000000000000000000000000000000000000C
:1024D00000000000000000000000000000000000FC
:1024E00000000000808080808080808080808080EC
:1024F000000002030706040C0808000000000000AA
:1025000000000000000000000000000000000000CB
:1025100000000000000000000000000000000000BB
:10252000081C9E8AC2424246FCF800001E1F312051
:10253000202030101F3F200004FCFC0000000000A1
:102540000000000000FFFF0C060202061CF8E0007D
:10255000203F1F18302020301C0F03000000000017
:102560000000000000000000E0F81C060202021655
:102570003C3C1800030F1C3020202020301808009D
:10258000000000000000000004FCFC00E0F81C0655
:10259000020202060CFFFF00030F1C302020203037
:1025A000181F3F00000000000000000000000000B5
:1025B000E0F89C86828282869CF8E000030F1C3043
:1025C0002020202030180800000000F0F80C04043F
:1025D0001C3C1800020202FFFF0202020000000081
:1025E0000020203F3F2020000000000000000000ED
:1025F0000000000000000000387CC6828282C67C99
:102600003C0606003C7FC3828684848CCC783000F4
:1026100004FCFC00000000000000000000FFFF18A8
:102620000C060206FCF80000203F3F2000000020BE
:102630003F3F200000000000183C3C180000000054
:102640000000000202FEFE0000000000000000206A
:10265000203F3F20200000000000000000183C3C0C
:102660001800000000000000000202FEFE00000052
:102670003078F8908080C07F3F00000004FCFC00B0
:10268000000000000000000000FFFFC060F0DA0E54
:1026900006020200203F3F200000032F3C302000B4
:1026A0000000000404FCFC0000000000000000002A
:1026B00000FFFF000000000000000020203F3F203E
:1026C00020000000000000000000000000000000EA
:1026D00002FEFE0406FEFC0606FEFC00203F3F2034
:1026E000003F3F20003F3F200000000000000000AE
:1026F0000000000002FEFE180C060206FCF80000B6
:10270000203F3F20000000203F3F2000000000004D
:102710000000000000000000E0F81C0602020206B3
:102720001CF8E000030F1C30202020301C0F030099
:1027300000000000000000000000000002FEFE0C8F
:10274000060202061CF8E00080FFFF860C08080C59
:10275000070300000000000000000000000000006F
:10276000E0F81C060202060CFCFE00000003070C49
:1027700008080C86FFFF8000000000000000000039
:102780000000000002FEFE180C0602021E1C0800DB
:10279000203F3F200000000000000000000000007B
:1027A0000000000000000000387C66C2C282828601
:1027B0000C1C00001C18302020202121331F0E008B
:1027C000000000E0F000000000000000020202FF34
:1027D000FF020202020200000000000F1F30202052
:1027E000301C0C0000000000000000000000000091
:1027F00002FEFE0000000002FEFE0000000F1F307F
:102800002030180C3F3F20000000000000000000B6
:1028100000000000020E7EF2800080F27E0E0200B8
:10282000000000031F3C1F03000000000000000028
:102830000000000000000000023EFEC200F0F000B8
:10284000C2FE3E020000033F3E03033E3F03000082
:10285000000000000000000000000000020E1E3218
:10286000E0C0E0321E0E020020383C2603010326A1
:102870003C382000000000000000000000000000C4
:1028800002061E7AE08080F27E0E020060E0808008
:10289000E17F1F03000000000000000000000000B6
:1028A00000000000000E020282C262321A0E060010
:1028B000383C26232120202020303C00000000004E
:1028C00000FCFE0301010100000000183CE7C3000A
:1028D0000000000000000000003F7FC080808000FA
:1028E0000000000000FFFF000000000000000000EA
:1028F00000FFFF00000000000000000000FFFF00DC
:10290000000000000001010103FEFC0000000000C7
:102910000000000000C3E73C180000000080808039
:10292000C07F3F0000000000000000000000000029
:102930000000000010180C040C081030203018089B
:102940000000000000000000000000000000000087
:10295000C070C00000000000C0F09C8781808187AB
:102960009CF0C0000000000000000000000000001B
:102970001C8C04080000001820300C3FF806B03012
:1029800004B03000B030613FF03130301B303012D5
:102990003030023FF00230300600000440180C7F57
:1029A000FC7C64980C64980C64980C64980C649893
:1029B0000C649A0DFFFF040000000000E08B040887
:1029C00000000010C01818FFFC0CC01808C0184008
:1029D000FFF862C01832C01822FFF80480100410FB
:1029E00080081CE00A18C80918CE1998CC7998D824
:1029F00018D8D018D8E01898C01818C01818CC1BD0
:102A0000FFFE080000000000288C040800300000D1
:102A10001C0810081C1FFFFE1841001871C0186127
:102A2000981BFFFC186180186180186180187F80F6
:102A300018410018006019FFF01840C018218018D4
:102A40001300100E00301E002033C021C0FE4E00C7
:102A500030000000608C0408001000001C00081802
:102A6000400418700618600318C00398C0019980CC
:102A7000011900001A0C7FFFFE00C60000C600000E
:102A8000C60000C60000C60400C604018604018614
:102A9000040306040606061807FE6003FC00000097
:102AA000548C040800000000001810CFFC1FE3182D
:102AB00018C31818C31818C63818C4F01FC86018EF
:102AC000D81818CFFC18CC1818CC1818CC181FCC54
:102AD0001818CFF8108000090C2008863018C61C82
:102AE00038630E704206200004000000E48B0408E6
:102AF0000402000703800603000603000C06180CFE
:102B0000FFFC0C0C000E0C001C0C001C180C2DFF04
:102B1000FE2C18004C10000C30100C7FF80C2030EC
:102B20000C00600C00C00C31800C0D000C07800CF8
:102B300001C00C00E0080040488C0408000240007E
:102B4000036010032C1FFFFE1803001813101BFB5B
:102B50001C1803181A19B01BFDB01B19E01B18C470
:102B600033F9E4331B7422143C20480E42304613E0
:102B7000183013189813088C3300C473FFC061FF1A
:102B800080000000908C040800000010C2181FE3B1
:102B9000FC18C31818C31818C3181FD3F8189910B5
:102BA0001030C00060887FFFFE01820003018006B4
:102BB00000600C643E3FF7F84C66300C66300C66E3
:102BC000300C66300FE7F00C66300844200000003F
:102BD000308C04080000C0000FE0007FF03FF000E0
:102BE0000040200830700C30C00618800611000428
:102BF0000000001C0000180C7FFFFE003C00007A63
:102C00000000DA000199000319800618C00C187042
:102C100030183E401818001800001000EC8B040813
:102C200001100001CC00030E0002041807FFFC068F
:102C30000C000E0C1017FFF8260C00460C1007FFB6
:102C4000F8060C00060C0807FFFC04100000180C26
:102C50007FFFFE007A0000DB000199800618F8185B
:102C6000183E601808001000F88B0408006000008F
:102C7000380008180008100C0FFFFE18041C3987D4
:102C80001830C610006600004600060600038600E5
:102C900001CC00008C00000C0C7FFFFE001800002F
:102CA0001A000031800060E000C03803801C0E0074
:102CB0000E700004788C04080000000002000183FC
:102CC000807FC700118C801D8CC019986019B030AE
:102CD00019A0B819DFDE1980081842103FE114105E
:102CE000D11800C93000C9B01ECDA070CD6020C879
:102CF0004000C04001808C1FFFFE07000002000062
:102D0000A88C040804000807000E06030C0DFF8CB5
:102D10000C300C0C304C18306C1C664C3C7F4C2C2E
:102D2000C64C2CC64C4C864C0D4C4C0D6C4C0E3C81
:102D30004C0C2C4C0C184C0C184C0C300C0C600C23
:102D40000C800C0D00FC0A00380000103C8C0408BC
:102D500000000001901807DFFC1E181866181806FE
:102D60001818061818069FF87FD0100E00000E00E5
:102D70000C173FFE16818016C180264180260198DF
:102D8000461FFC06018006018006018006018C06B4
:102D9000FFFE060000040000F48B040800000000A1
:102DA00000000000303FFFF80000300100300080DC
:102DB0003000C03000C0300060300060300041B0F2
:102DC000000E3000703001C0300F80607E00603037
:102DD00000601000600000E0007FC000078000037A
:102DE00000000000648C040800000010C00C1FEFFD
:102DF000FE18C0C018C0801FC91818CFFC18CC1806
:102E00001FCC9818CCD8108C98002C987FFC980375
:102E10000C98130C981B40C01BE1303302183B0484
:102E20000C27180423000041FFFE80FFF80000007B
:102E3000988C040801000001C00003800003001802
:102E400007FFFC0600000C01801BFFC010000020E3
:102E500000004003001FFF80000300000300000388
:102E6000000003000003000003080001880001883F
:102E70000000C800007C00003C000000008C04083A
:102E80000000000000000800180FFFFC0C00000C00
:102E900008000C0E000C0C000C0C000C0C000C0CB0
:102EA000300DFFF80C0C000C0C000C0CC00C0C606E
:102EB0000C0C70180C30180C20100C00300C0C2767
:102EC000FFFE400000000000C48B0408002000301A
:102ED00038101C30380C3FFC04600000600002C059
:102EE0003062FFF835603036663014633004623685
:102EF0000BFFFE08C03018CC3018C63078C7301829
:102F0000C23419FFFE188030180070180FE0080353
:102F100080000100448C04080808000E0E800C0C90
:102F2000600C0C300C0C300D0C0C7FBFFE0C0C0038
:102F30000C0C000C58300D9FF80E1C301C34307CEB
:102F400034602C32600C62C00C63C00CC1800C83F6
:102F5000C00D06600D0C307E301E1CC0080800003D
:102F6000388C0408000000001000001C000018004D
:102F7000001800001800003800003800003400007D
:102F8000340000640000620000C20000C300018140
:102F9000000181800300C006006004007008003C4E
:102FA00010001F2000084000000000006C8C040886
:102FB0000404000707000606000606000C06080CBD
:102FC000061C0DFFFE1C0E801E1E803C1E802C3633
:102FD000C02C36404C66400C66200CC6300C86185F
:102FE0000D065E0EFFE80C06000C06000C06000C39
:102FF00006000C0600080400808C0408040000078A
:1030000000000600000600180C3FFC0C018018812F
:103010008018E18011C1807F81803B0180020180A6
:103020000601800C01801001807FC1803801800082
:10303000018000C18007018C7C7FFE380000000009
:1030400000000000688C04080001000401C00701B2
:10305000800601800601800601800C31800FF98016
:103060000831801831C01631B033319C23618E4154
:10307000618600C184018180018180030180060195
:10308000800C01803001804001800001800001003F
:10309000348C040800000000000800001C7FFFFEC4
:1030A00000006000006000006004186007FC60061B
:1030B0001860061860061860061860061860061882
:1030C0006007F86006186006106004006000006089
:1030D0000000600007E00001C0000080088C0408C8
:1030E0000810400E1C700C18600C10680C32640D37
:1030F000BF660D26642E66602C57FE2C96602D4C04
:10310000606C4CD06C38904C11980C230C0E440E13
:10311000190804190000184888104CCC3046662065
:10312000C66641C446018004888C04080800000E6D
:1031300000000C20180C3FFC0C30000D30007FB05C
:10314000300C37F80C30000C30000CB00C0F3FFE88
:103150000E36807C36882C269C0C66600C66400CF3
:1031600066600C66200CC6B80CC71C7D8E0F190457
:1031700004120000E88B04080001000001C00001F7
:10318000800061803FF18000018000018C000FFE13
:1031900000318C7FF98C04018C07018C0C030C0C22
:1031A000830C18430C10630C21F30C7E360C302674
:1031B0000C000C1C0019F800607001802002000057
:1031C000C88B04081000001C0000188C8C18FEFE30
:1031D00018CCCC1ACCCCFFCCCC18CCCC18CCCC385E
:1031E000CCCC3DFFFE3ACCCC5ACCCC58CCCC58CC35
:1031F000CC98CCCC18CCCC18CC8C188D8C198D0CD0
:10320000193F7C1A1A18140410000000408C04089E
:103210000000800840E00E70C00C60C81868CE192D
:1032200064C811E6D82364D02660E07E60C4247FA1
:10323000FE0861C00861E01063D023E2D87C64CC52
:103240002064CE0068C403F0C07C60C0306084009D
:10325000FFFE004000000000708C04080020000009
:1032600038000030000030001030601FFFF01830D0
:10327000601830601830601830601FFFE018306050
:103280001830601830601830601FFFE018304010B0
:103290003004003004003004003006003FFE001F00
:1032A000FC000000748C04080000000800600FFFA0
:1032B000F00C00600C00600C04600C07600D0660F0
:1032C0000C8C600C4C600C28600C18600C38600C86
:1032D0002C600C66600CC660188362190332120100
:1032E0003214001220001E20000E400006000000D4
:1032F0002C8C0408001800000C000808180FFFFCB4
:103300000C00180C00180C00180FFFF80C00000C33
:1033100018180DFDFC0C18180D1A180C99980CD9DA
:10332000D80C38B81858581999981F1F18321A18FD
:1033300020181841F9F80070700020200C8C040847
:10334000001000001C00021800039800031860031E
:103350001FF003180003180003180003180C7FFF68
:10336000FE001000021C000318000618200C18783C
:103370001818E0101980201B00401E0000380000C3
:10338000C0000F0000700000948C04080010801032
:103390001CE01818C00C18C00618C806FFFC04185A
:1033A000C00018C00018C00C18C07E18CC0DFFFE5D
:1033B0000C18C00C18C00C30C00C30C00C60C00C15
:1033C000C0C00D00C00C008032000061FFFE20FF75
:1033D000F8000000A48C0408040000070860060F31
:1033E000F0060C60060C60060C6006CC607FEC609A
:1033F0000E0C600E0C601F0C6016CC60166C6036F4
:103400004C60260C60460C60860C6206186206183A
:103410006206306306207F06403E068000040000FE
:10342000A08C0408001000001C0000180800181CE4
:103430007FFFFE0018000018000018301FFFF80082
:1034400000000800300FFFF80C18300C18300C1872
:10345000300FFFF00C00300C0020180000180000A6
:10346000100000200000400000000000D08B040885
:10347000040000071018061FFC0618180618180686
:1034800098187FD8300619F006186006180806DF6D
:10349000FC071A180E1A187E193036193026193002
:1034A0000618E00618C00618E00619B00619183EFE
:1034B0001A0E1C1408080000F08B04080660800631
:1034C00068C07FFD8C0661FE1833181FFA983034EF
:1034D000B02FB06048B0F00FB19E08320800E8008D
:1034E00000080C7FFFFE0000000FFFF00000000F3F
:1034F000FFF000000007FFE006006006006007FF25
:10350000E0060060588C04080806000E03000C0159
:10351000800C21040C3FFE0D200C7F60100C6840D5
:103520000C0E300C18180CB01C0F200C1C40047C26
:1035300080302C7FF80C03000C03000C03000C03FC
:10354000000C03000C030C7CFFFE180000100000B0
:10355000248C040801001001C01C1180181D801863
:103560001999183FFDD8218198418198018D987F44
:10357000FF980181980181981199981FFD981999D8
:103580009819999819999819991819981819F81853
:1035900011B0180181F8018070010020CC8B040863
:1035A0000000000000000000C000018000030000D7
:1035B0000200000600000E00000E00000C00001CBF
:1035C00000001C00001C00001C00001C00000C007F
:1035D000000E00000E0000060000020000030000C4
:1035E00001800000C0000000809A04080000000074
:1035F000000006000003000001800000800000C001
:103600000000C00000E000006000006000007000EA
:1036100000700000700000600000600000E000002A
:10362000C00000C000008000018000030000060010
:1036300000000000508C040800000004006007FF38
:10364000F006006006006006006007FFE00600600C
:1036500006006006006007FFE00444400077101099
:10366000661C0866380C66300666600666C006662C
:103670008004670000660C7FFFFE00000000000071
:10368000188C04080000000000000000600FFFF02C
:1036900000000000000000000000000800001C7F87
:1036A000FFFE0018000018000219000398C003185C
:1036B000600618300618300C181818181C10180C52
:1036C00020180841F800007000002000FC8B04085E
:1036D000001000081C200E18380C18300C18301F71
:1036E000FFF00800300821000E39C00C318C0C337B
:1036F000FE7FFB0C0C32880C36E80C34C00FF0C097
:103700000C30E00C30A00C31B00C31B00FF3180CC1
:10371000361E080C080010007C8C04080000000312
:10372000000007C000003000001000000800001872
:1037300000001C00001C0000340000320000620089
:1037400000630000C10000C1800181800300C00649
:1037500000E00C006008007810003E2000184000D7
:1037600000000000148C040800060000074000065A
:103770002000063000062000060C7FFFFE00060039
:103780000006000006000066003FF300030300038C
:103790000300030300030300030184031D8403E00B
:1037A000C47F006438003420001E00000E000000BA
:1037B0004C8C0408080C000E06000C03000C0218C8
:1037C0000C7FFC0D90407FC8600C0CC00C08980C5E
:1037D000FFFC0D04000E07001C06007C0C0C2DFFE6
:1037E000FE0C18600C30600C60C00C1D800C07C013
:1037F0000C0CE07C383818E01C1300085C8C0408C2
:103800000000000000000000000000000800300F71
:10381000FFF80C00300C00300C00300C00300C00B5
:10382000300C00300C00300C00300C00300C00303C
:103830000C00300C00300FFFF00C00300C00300892
:103840000020000000000000048C040804020007AF
:10385000038006030006030806031C06BFFE7FC3A1
:1038600000060300060300068310073FF806103029
:103870001E10307610602608600608600604C00638
:1038800007800603800606C0060C787E183E0E20D0
:10389000180440008C8C0408001000001C00001864
:1038A000C000186000187000182000180C7FFFFE80
:1038B000007A00007A0000DA0000DB0001990001C4
:1038C00099800318C00618C00C18601818383018F2
:1038D0001E40180800180000180000180000100012
:1038E000848C0408040800070E00060C00260C0057
:1038F00036080036180C269FFE3FF36C26236C46D4
:10390000466C46866C0604CC06CCCC0F18CC7E19CF
:103910008C36310C266318068618060C1806181803
:103920000630380663F00680E0040040DC8B0408B3
:103930000000000028107FF41818C63018C32018A3
:10394000C24018C0881FDFFC18C18018C18018C190
:103950008018C1841FFFFE18C18018C34018F340AF
:103960001BC3407EC36030C62000C43000C81800AE
:10397000D00E00E0080080009C8C040800000020AD
:1039800000183FFFFC300018300018306098346099
:10399000D83268D831659831C59830C31831C3180A
:1039A0003163983166983324D83228D83408983057
:1039B00010183000183000183000183001F82000BE
:1039C00070000020D88B04080000000000000000F8
:1039D000183FFFFC00C18000C18000C18000C18091
:1039E00000C18000C18000C18C7FFFFE00C180004B
:1039F000C1800181800181800181800301800301F8
:103A0000800601800C0180180180200180400100A7
:103A1000208C040800020004038003030003030059
:103A200001030000330C7FFFFE0C06300C06300C47
:103A3000C4300FEA300CCA300CD3300CC3600CC158
:103A4000600CC1C018C0C018C1C010C36017C63018
:103A5000218C1821180E406008008000108C04088A
:103A60000000000000183FFFFC0018000018400C88
:103A700018700618E00318C0039980019900011A14
:103A80000000180C7FFFFE0018000018000018004E
:103A900000180000180000180000180000180000AE
:103AA0001800001800001000D48B0408002000004B
:103AB000380000700000E00000C000018100030039
:103AC000C00600700800383FFFFC1E000C00000814
:103AD00000000004006007FFF006006006006006BA
:103AE000006006006006006007FFE0060060060058
:103AF00060040040C08B04080000000000000000CB
:103B00000000800001C00001C00001C00001C00031
:103B100001C00001C00001C00001C00001C00001DF
:103B2000C00000800000800000000000800001C094
:103B30000001C00000800000000000000000000044
:103B40000000000000000000000000000000000075
:103B50000000000000000000000000000000000065
:103B60000000000000000000000000000000000055
:103B700000000000200018000C00040000000000FD
:103B80000000000000000000000000000000000035
:103B900000000000180024002400180000000000AD
:103BA0000000000000000000000000000000000015
:103BB0000180018000000000000000000000000003
:103BC0000000000000000FE0000000000000000006
:103BD00000000000000000000000000000000000E5
:103BE00000000820044002800100000000000000E6
:103BF00000000000000000000000000000000000C5
:103C00000000000000000C600C60000000000000DC
:103C100000000000000000000000000000000000A4
:103C2000000000000000000002400240024004804A
:103C300004800900000000000000000000000000F7
:103C4000000000000400040004200FF008201040D1
:103C500020800500020001000100000000000000BB
:103C600000000000000000000000000000007FFCD9
:103C70000000000000000000000000000000000044
:103C800000000000000000000000000000001C0414
:103C900023884070000000000000000000000000C9
:103CA0000000024002400240024002400240024046
:103CB0000240024002400240024002400240000036
:103CC00000000000000000000000000063186318FE
:103CD00000000000000000000000000000000000E4
:103CE000000000080010002000300030000000003C
:103CF00000000000000000000000000000000000C4
:103D0000000018001800080010002000000000004B
:103D100000000000000000000000000000000000A3
:103D20000000008801100220033003300000000072
:103D30000000000000000000000000000000000083
:103D40000000198019800880110022000000000086
:103D50000000000000000000000000000000000063
:103D6000000000080010002000200020002000209B
:103D7000002000200020002000200010000800008B
:103D800000002000100008000800080008000800DB
:103D900008000800080008000800100020000000CB
:103DA0000000000400080010002000400080010016
:103DB0000080004000200010000800040000000007
:103DC0000000200010000800040002000100008034
:103DD00001000200040008001000200000000000A4
:103DE00000100024004800900120024004800900D7
:103DF00004800240012000900048002400100000D0
:103E000008002400120009000480024001200090F4
:103E10000120024004800900120024000800000074
:103E20000000003C00200020002000200020002096
:103E30000020002000200020000000000000000002
:103E40000000000000000000040004000400040062
:103E50000400040004000400040004003C0000000E
:103E6000000000FC008400BC00A000A000A000A096
:103E700000A000A000A000E0000000000000000082
:103E8000000000000000000007000500050005001C
:103E900005000500050005003D0021003F00000071
:103EA000000001FC01080110011001200120012087
:103EB00001200120012001100110010801FC000077
:103EC00000003F8010800880088004800480048007
:103ED0000480048004800880088010803F800000F7
:103EE000000001FC01F801F001E001E001C001C0A7
:103EF00001C001C001E001E001F001F801FC000097
:103F000000003F801F800F800780078003800380B0
:103F100003800380078007800F801F803F800000A0
:103F20000000000001000100010001001FF001007D
:103F300001000100010000001FF00000000000006F
:103F40000000000000001010082004400280010062
:103F50000280044008201010000000000000000053
:103F600000000000000003000300000000003FF01C
:103F7000000000000300030000000000000000003B
:103F80000000000000000000060006000000000025
:103F90000000060006000000000000000000000015
:103FA000000001000100028002800440044008205B
:103FB0000820101010102008200840040000000005
:103FC00000000000400420082008101010100820F5
:103FD000082004400440028002800100010000002B
:103FE00000007FFC300418040C0006000300018070
:103FF0000100020004000800100420047FFC0000FF
:1040000000007FF818601860186018601860186069
:104010001860186018601860186018603CF00000A4
:104020000000200820082008200820082008200878
:1040300020082008200820081010082007C00000D1
:10404000000007C0082010102008200820082008C1
:104050002008200820082008200820082008000048
:10406000000001E0060008000800100010001FE03A
:1040700010001000100008000800060001E0000019
:1040800000000000000018301830000000000000A0
:104090000000000018301830000000000000000090
:1040A00000020002000400040008000800100010D4
:1040B0000020002004400A4012800100000000009F
:1040C00000000100010001000100010001000100E9
:1040D0000100010001000100010001003FF80000A3
:1040E000024002400240024002400240048004803C
:1040F0000480048004800900090009000900090007
:1041000000000004000800100020004000800100B2
:10411000020004000800100020007FFC00000000E6
:1041200000000000078018602010201040084008A0
:10413000000000000000000000000000000000007F
:10414000000000000780186020102010400843087D
:10415000430840082010201018600780000000006D
:10416000000000C001200100010001000100010069
:10417000010001000100010001000900060000002B
:1041800000C0012001000100010007C00920092032
:104190000920092007C001000100010009000600F4
:1041A000000000000000000000007FFC00007FFC19
:1041B00000007FFC00000000000000000000000084
:1041C00000000000187020884104410442042208C5
:1041D0001C3000007FFC00007FFC0000000000009D
:1041E000000000000000000000001C042388407054
:1041F0001C04238840700000000000000000000044
:1042000000000000000000003878408480828102B5
:104210008102820242043C380000000000000000DD
:1042200000000000000000003C7E42808100810010
:104230008100810042803C7E000000000000000000
:10424000000000200020004000407FFC0100010031
:1042500002007FFC040008000800100010000000AD
:104260000000010C013001C003000D003100C1004D
:1042700031000D00030001C00130010C00000000FE
:1042800000006100190007000180016001180106AB
:1042900001180160018007001900610000000000A2
:1042A000000C003000C003000C003000C0003000E3
:1042B000CC0033000CC0033000CC0030000C0000F8
:1042C0006000180006000180006000180006001859
:1042D0000066019806601980660018006000000002
:1042E00000000000000000003C784284810281024E
:1042F000810242843C7800000000000000000000C1
:1043000000000000000030303030000000000000ED
:104310000000000000000300030000000000000097
:104320000000000000000300030000000000000087
:1043300000000000000030303030000000000000BD
:104340000000010003800540092011100100010058
:104350000100010003800440044004400380000089
:104360000000038004400440044003800100010079
:104370003FF8010001000100010001000100000000
:1043800000001800240024001800000000000000B5
:10439000000000000000000000000000000000001D
:1043A00000000800080010001000200000000000BD
:1043B00000000000000000000000000000000000FD
:1043C0000000120012002400240048000000000039
:1043D00000000000000000000000000000000000DD
:1043E000600091F4960C6C04080418001800180082
:1043F00018001800180008000C04060801F000005E
:1044000001000FE0113031103100310019000F00B0
:1044100003C001700118011811180D3007E00100E8
:1044200000004002200417E80810100810081008C7
:10443000100810081008081017E8200440020000B7
:104440000010002007E818583048608061006100C3
:104450006200620064003808181017E02000400075
:1044600000E00110010001000200020002003FC054
:104470000400040008000800080010007FC00000CD
:1044800000083010482048404880490032000400AD
:104490000800130C2492449284920492030C0000AE
:1044A0000380044004400400020005000900088065
:1044B00008800480050002000100008008800700D9
:1044C00060802140310031003918292429242D240D
:1044D0002D2425242724272423182300A17E4100EE
:1044E000010001000280028002800440FC7E400442
:1044F00030180820082011901650183020080000AD
:104500000100010003800380038007C0FFFE7FFCE1
:104510003FF80FE00FE01FF01EF0183020080000F9
:10452000000007C01C7030183018600C600C600C64
:10453000600C600C301830181C7007C000000000C0
:10454000000007C01FF03FF83FF87FFC7FFC7FFCB6
:104550007FFC7FFC3FF83FF81FF007C00000000021
:10456000000007C0183023882448482450145014F1
:104570005014482424482388183007C00000000045
:10458000010002800440082010102008400480022E
:1045900040042008101008200440028001000000A0
:1045A0000100038007C00FE01FF03FF87FFCFFFE13
:1045B0007FFC3FF81FF00FE007C003800100000000
:1045C00000007FFC400440044004400440044004D8
:1045D000400440044004400440047FFC000000000C
:1045E00000007FFC7FFC7FFC7FFC7FFC7FFC7FFC6E
:1045F0007FFC7FFC7FFC7FFC7FFC7FFC00000000D9
:1046000000000100010002800280044004400820F4
:10461000082010101010200820087FFC0000000067
:104620000000010001000380038007C007C00FE005
:104630000FE01FF01FF03FF83FF87FFC0000000084
:104640000000430423081010082004400280610C7D
:10465000628C0440082010102308430480020000EC
:104660000000000000000000008000600038FFFE35
:104670000038006000800000000000000000000022
:10468000000000000000000002000C003800FFFEE7
:1046900038000C00020000000000000000000000D4
:1046A000010001000380038007C0054009200100CC
:1046B00001000100010001000100010001000100F2
:1046C00001000100010001000100010001000100E2
:1046D00001000920054007C003800380010001009C
:1046E0000000000000007FFC7FFC7FFC0000000059
:1046F00000007FFC7FFC7FFC000000000000000049
:10470000000001000000000001000300050001009E
:104710000100010001000100038000000000000012
:104720000000084000000000084018C00840084091
:1047300008400840084008401CE00000000000005D
:104740000000111000000000111033301110111082
:1047500011101110111011103BB8000000000000E2
:104760000000100000000000160C320812081110A2
:10477000111010A010A010403840000000000000F0
:10478000000000000000000018300820082004404D
:1047900004400280028001000100000000000000CF
:1047A0000000001000000000C190413041102210B4
:1047B0002210141014100810083800000000000027
:1047C0000000004400000000C64444CC444444447B
:1047D000284428442844104410EE00000000000043
:1047E0000000012400000000C524476C4524452436
:1047F000292429242924112413AE000000000000DC
:104800000000200000000000271C6208211020A0EA
:10481000204020A021102208771C0000000000008A
:1048200000000000000000001C700820044002800E
:1048300001000280044008201C70000000000000FD
:104840000000000000000000000000000000000068
:104850000000000000000000000000000000000058
:104860000000000000000000000000000000000048
:104870000000000000000000000000000000000038
:104880000000000000000000000000000000000028
:104890000000000000000000000000000000000018
:1048A0000000000000000000000000000000000008
:1048B00000000000000000000000000000000000F8
:1048C00000000000000000000000000000000000E8
:1048D00000000000000000000000000000000000D8
:1048E00000000000000000000000000000000000C8
:1048F00000000000000000000000000000000000B8
:104900000100030005000100010001000100010099
:104910000100010001180118000000000000000063
:104920000F00108000800080008001000200040061
:104930000800100010181F98000000000000000080
:104940001F8000800100020006000100008000803E
:104950000080008011180E18000000000000000008
:104960000200020004000400090009001100110007
:104970001FC0010001180118000000000000000025
:104980001F801000100010001E0001000080008039
:104990000080008011180E180000000000000000C8
:1049A00002000400080008001000170018801080A2
:1049B0001080108010980F18000000000000000008
:1049C0001FC00040008000800100010002000200C2
:1049D000020002000218021800000000000000009F
:1049E0000F00108010801080090006000900108060
:1049F0001080108010980F180000000000000000C8
:104A00000F00108010801080108011800E800080B8
:104A1000010001000218041800000000000000005E
:104A200023C06420A4202420242024202420242007
:104A300024202420242C23CC0000000000000000AF
:104A400020806180A28020802080208020802080A3
:104A500020802080208C208C0000000000000000BE
:104A600023C06420A020202020202040208021007E
:104A700022002400240C27EC0000000000000000AD
:104A800027E06020A040208021802040202020209E
:104A900020202020244C238C000000000000000077
:104AA00020806080A1002100224022402440244038
:104AB00027F02040204C204C0000000000000000A7
:104AC00027E06400A400240027802040202020202C
:104AD00020202020244C238C000000000000000037
:104AE00020806100A2002200240025C0262024206E
:104AF00024202420242C23CC0000000000000000EF
:104B000027F06010A020202020402040208020801E
:104B100020802080208C208C0000000000000000FD
:104B200023C06420A420242022402180224024206D
:104B300024202420242C23CC0000000000000000AE
:104B400023C06420A42024202420246023A020202B
:104B500020402040208C210C0000000000000000BC
:104B600038E045100510051005100910111021102E
:104B70002110411041167CE60000000000000000FA
:104B80001010200841044304850281028102810241
:104B90008102810281028102410441042008101037
:104BA000101020084784484480428042804280821E
:104BB000810282028402880248044FC42008101037
:104BC000101020084FC440448082810283028082FA
:104BD000804280428042804248844704200810106E
:104BE00010102008410441048202820284828482DF
:104BF000888288828FE2808240844084200810105E
:104C00001010200847E44404840284028782804212
:104C10008022802280228022444443842008101075
:104C200010102008410442048402840288028B820E
:104C30008C428842884288424844478420081010A9
:104C4000101020084FE440248042804280828082FD
:104C50008102810281028102410441042008101076
:104C60001010200847844844884288428482830286
:104C70008482884288428842484447842008101031
:104C80001010200843C44424842284228422846295
:104C900083A2802280428042408441042008101078
:104CA0001010200848E45914A91289128912891297
:104CB0008912891289128912491448E420081010B7
:104CC0001010200848245864A8A28822882288222C
:104CD000882288228822882248244824200810100C
:104CE0001010200848E45914A8128812881288224B
:104CF0008842888288828902490449F42008101079
:104D0000101020084BF45814A822884288C2882228
:104D100088128812881288124A2449C42008101068
:104D20001010200848445844A88288828922892289
:104D30008A228A228BFA88224824482420081010CC
:104D4000101020084BF45A04AA028A028BC288224F
:104D500088128812881288124A2449C42008101028
:104D60001010200848445884A90289028A028AE265
:104D70008B128A128A128A124A1449E420081010EF
:104D8000101020084BF45814A82288228842884228
:104D9000888288828882888248844884200810100B
:104DA0001010200849E45A14AA128A12892288C2D3
:104DB00089228A128A128A124A1449E420081010A1
:104DC0001010200849E45A14AA128A128A128A3250
:104DD00089D28812882288224844488420081010EA
:104DE000101020084C645294829282928292849293
:104DF000849288929092909250945E642008101051
:104E000007C0183020084104430485028102810252
:104E100081028102410441042008183007C00000CB
:104E200007C0183020084384444480428042808276
:104E300081028202440447C42008183007C00000E1
:104E400007C01830200847C4404480828102830292
:104E500080828042444443842008183007C0000008
:104E600007C01830200841044204820284828482F0
:104E700088828FE2408440842008183007C00000F8
:104E800007C01830200847C4440484028782804247
:104E900080428042488447042008183007C0000040
:104EA00007C018302008410442048202840285822F
:104EB00086428442444443842008183007C00000DE
:104EC00007C01830200847C4404480828082810295
:104ED00081028102410441042008183007C000000B
:104EE00007C01830200843844444844284428382AB
:104EF00084428442444443842008183007C00000A0
:104F000007C018302008438444448442844283C24A
:104F100080428082410442042008183007C000000B
:104F200007C01830200849C45A24AA228A228A229B
:104F30008A228A224A2449C42008183007C0000067
:104F400000000000000001C00630081008003FE02B
:104F50003FE0180008000C1003E000000000000013
:104F60000000000000000000000000000000000041
:104F70000000000000000000000000000000000031
:104F80001010200840044004800280028002BFFA12
:104F90008002800280028002400440042008101039
:104FA00010102008400440049FF28002800280021A
:104FB00080028002BFFA80024004400420081010E2
:104FC0001010200840045FF48002800280028FE20B
:104FD000800280028002BFFA4004400420081010C2
:104FE00010102008400440049FF2929292929292F4
:104FF0009472981290129FF25014400420081010DE
:105000001010200840044FE48102810281028FE2E7
:1050100082228222822282225FFC40042008101019
:10502000101020084004420481028002BFFA80026E
:1050300080028442842288125014400420081010F8
:10504000101020084204420482028202820283F28B
:10505000BE02820282228222422441E420081010F1
:105060001010200840844484848284828482844294
:1050700084428822882290124004400420081010A4
:10508000101020084204420482029FC282428242DF
:1050900082428442844A884A503C400420081010CE
:1050A0001010200841044104810281028102BFFAEC
:1050B0008102810281028102410440042008101013
:1050C00000000000000000000000000000000000E0
:1050D00000000000000000000000000000000000D0
:1050E00000000000000000000000000000000000C0
:1050F00000000000000000000000000000000000B0
:105100000000038001000100010001000100010016
:105110000100010001000100010001000380000006
:1051200000000EE0044004400440044004400440F9
:105130000440044004400440044004400EE00000E9
:1051400000003BB8111011101110111011101110A6
:105150001110111011101110111011103BB8000096
:105160000000771C2208220822082110211021109B
:10517000211020A020A020A020A0204070400000EE
:105180000000701C200810101010082008200820B3
:10519000044004400440028002800100010000003D
:1051A000000071DC2088208820881108110811086F
:1051B00011080A080A080A080A080408041C000062
:1051C0000000E3FE412441244124222422242224FD
:1051D000222414241424142414240824087E0000F7
:1051E0000000E3FE415441544154225422542254BD
:1051F00022541454145414541454085408FE000037
:105200000000771C22082110211020A020A020409F
:10521000204020A020A0211021102208771C00008F
:105220000000701C200810100820044002800100BB
:10523000028004400440082010102008701C000068
:105240000000E39C410822082208140814080808FA
:10525000080814081408220822084108E39C0000EA
:105260000000E3BE41142214221414141414081470
:10527000081414141414221422144114E3BE000060
:10528000000000000000000000000000000000001E
:10529000000000000000000000000000000000000E
:1052A00000000000000000000000000000000000FE
:1052B00000000000000000000000000000000000EE
:1052C000000010001000100010001000100010006E
:1052D000100010000000000010001000000000008E
:1052E00000000CC00CC00CC008800880000000004A
:1052F00000000000000000000000000000000000AE
:10530000000002200220022002203FFC0440044052
:10531000044004403FFC08800880088008800000AA
:10532000000000001010082004400280010001006D
:1053300001000FE001000100010001000100000078
:10534000000018042408241024202440248019007C
:10535000026004900890109020904090006000003F
:105360000000060009001080108009000A000400F7
:105370000A001270212020A0204011A00E10000071
:105380000000380038003800100010001000000045
:10539000000000000000000000000000000000000D
:1053A00000000008001000200020004000400040E5
:1053B00000400040004000200020001000080000D5
:1053C0000000200010000800080004000400040091
:1053D0000400040004000800080010002000000081
:1053E00000000000010001000100010031180D6003
:1053F000038002800440082010100000000000001C
:1054000000000000010001000100010001003FF860
:105410000100010001000100010000000000000087
:10542000000000000000000000000000000000007C
:1054300000000000000030003000100020000000DC
:1054400000000000000000000000000000001FF04D
:10545000000000000000000000000000000000004C
:10546000000000000000000000000000000000003C
:1054700000000000000000003000300000000000CC
:10548000000000020004000800100020004000801E
:10549000010002000400080010002000400000008D
:1054A00007C008201010101010101010101010104D
:1054B00010101010082007C00000000000000000BD
:1054C00001000300050001000100010001000100CE
:1054D00001000100010001000000000000000000C8
:1054E00007800840102000200020004000800100BC
:1054F0000200040008001FF000000000000000008F
:105500000FF000200040008001C0002000100010BB
:1055100000100010082007C000000000000000007C
:1055200002000200040004800880088010801080BF
:105530003FF00080008000800000000000000000BC
:105540001FC01000100010001F000080004000402D
:105550000040004010800F0000000000000000002C
:10556000008001000200040008000F80104010209D
:1055700010201020084007800000000000000000FC
:105580001FF00020004000800080010001000200A8
:105590000200020002000200000000000000000003
:1055A0000780084010201020084007800840102085
:1055B00010201020084007800000000000000000BC
:1055C00007800840102010201020082007C000404D
:1055D0000080010002000400000000000000000044
:1055E00000000000000000000000000000000000BB
:1055F00000003000300000003000300000000000EB
:10560000000000000000000000000000000000009A
:10561000300030000000300030001000200000009A
:105620000000000C003000C003000C003000C0007F
:1056300030000C00030000C00030000C000000002F
:105640000000000000000000000000003FF8000023
:1056500000003FF800000000000000000000000013
:1056600000006000180006000180006000180006BD
:1056700000180060018006001800600000000000B3
:1056800000000E00110021803180318003000600EF
:1056900006000600060000000600060000000000EC
:1056A00000001FE0201000080E8811882088208844
:1056B0002088208811900E6000000000000000008B
:1056C00000000100028002800440044008200FE036
:1056D000101010102008701C0000000000000000D6
:1056E00000001FE008100810081008200FC0082054
:1056F0000810081008101FE0000000000000000063
:10570000000007C00820101010001000100010004A
:1057100010001010082007C000000000000000006A
:1057200000003FC0102010101010101010101010AA
:105730001010101010203FC00000000000000000FA
:1057400000003FF010101010100010801F8010801B
:105750001000101010103FF00000000000000000CA
:1057600000003FF010101010100010401FC010403B
:1057700010001000100038000000000000000000C1
:10578000000007D008301010100010001000107832
:1057900010101010083007D00000000000000000BA
:1057A0000000387010201020102010201FE0102062
:1057B00010201020102038700000000000000000B1
:1057C0000000038001000100010001000100010050
:1057D0000100010001000380000000000000000043
:1057E0000000038001000100010001000100010030
:1057F0000100110011000E00000000000000000078
:1058000000001C700840088009000A000E00090012
:105810000880084008201C3800000000000000003C
:1058200000003800100010001000100010001000E0
:105830001000100010203FE00000000000000000F9
:10584000000030181830145014501290129011109B
:105850001110101010103838000000000000000077
:105860000000307018201420142012201120112064
:1058700010A010A010603820000000000000000000
:105880000000078008401020201020102010201059
:1058900020101020084007800000000000000000D9
:1058A00000003FC010201010101010201FC010006A
:1058B0001000100010003800000000000000000080
:1058C0000000078008401020201020102010201019
:1058D000201011A0084007A00018000000000000E0
:1058E00000003FC010201010101010201FC0120028
:1058F000110010801040383000000000000000004F
:10590000000007D0083010101000080007C0002069
:1059100000101010182017C0000000000000000048
:1059200000003FF8210821080100010001000100EA
:1059300001000100010003800000000000000000E1
:10594000000038701020102010201020102010208F
:105950001020102008400780000000000000000018
:105960000000701C200810101010082008200440AF
:1059700004400280028001000000000000000000DE
:105980000000739C2108210821082288129012909F
:1059900014501450082008200000000000000000EF
:1059A00000003838082004400440028001000280D2
:1059B00004400440082038380000000000000000C7
:1059C0000000383810100820044004400280010014
:1059D0000100010001000380000000000000000041
:1059E00000001FF010201040008000800100020025
:1059F0000200041008101FF000000000000000006A
:105A00000000001C0010001000100010001000101A
:105A1000001000100010001000100010001C00000A
:105A200000004000200010000800040002000100F7
:105A30000080004000200010000800040002000068
:105A400000003800080008000800080008000800EE
:105A500008000800080008000800080038000000DE
:105A60000000010002800440082000000000000047
:105A70000000000000000000000000000000000026
:105A80000000000000000000000000000000000016
:105A900000000000000000000000000000007FFC8B
:105AA000000000200020002000100010000800006E
:105AB00000000000000000000000000000000000E6
:105AC00000000000000000000F80104000400FC0E8
:105AD0001040104010400FA0000000000000000027
